:0200000280007C
:100000000040082059240800392A0800392A08002D
:10001000392A0800392A0800392A0800000000009F
:10002000000000000000000000000000392A080065
:10003000392A080000000000392A0800392A08007F
:10004000392A0800392A0800392A0800392A080004
:10005000392A0800392A0800392A0800392A0800F4
:10006000392A0800392A08004D0B0800190C08002D
:10007000E50C0800392A0800392A0800392A080046
:10008000392A0800392A0800392A0800392A0800C4
:10009000392A0800392A0800392A0800392A0800B4
:1000A000392A0800392A0800392A0800392A0800A4
:1000B000392A0800C9110800392A080010B5054C72
:1000C000237833B9044B13B10448AFF30080012304
:1000D000237010BD880C0020000000004CA0080018
:1000E0000C4B43B10C4810B50C49AFF300800C48E1
:1000F000036823B910BD0A48036833B97047094B38
:10010000002BF7D0BDE810401847064B002BF5D068
:10011000184700BF000000004CA008008C0C002015
:100120004CA00800000000000022F0B5204B83B076
:1001300098420E46019220D01E4B984226D01E4B6C
:1001400098422CD01D4B98420ED01D4B984209D19D
:1001500004461C4F01AD29462046B8470028FAD175
:10016000019B337003B0F0BD0446164F01AD294624
:100170002046B8470028FAD1F2E70446124D31462E
:100180002046A8470028FAD103B0F0BD04460D4F21
:1001900001AD29462046B8470028FAD1E0E70446D9
:1001A000084F01AD29462046B8470028FAD1D7E7C5
:1001B00000060E4000000940004009400080094050
:1001C00000C00940E90A0800453608001F4B70B519
:1001D00098420D4616D01E4B98421CD01D4B98429B
:1001E00022D01D4B984228D01C4B984201D00020B1
:1001F00070BD04461A4E29462046B0470028FAD161
:10020000012070BD0446174E29462046B0470028FD
:10021000FAD1012070BD0446114E29462046B04750
:100220000028FAD1012070BD04460D4E2946204613
:10023000B0470028FAD1012070BD0446084E294677
:100240002046B0470028FAD1DAE700BF00060E408A
:1002500000000940004009400080094000C00940FA
:10026000D50A0800353608002DE9F04F8BB0102173
:100270008C4B06A89847DFF8B8920820C8474FF47F
:10028000E1334FF40060884C884D894A89490493D2
:10029000894E8A4B8A4F05902C600820894D116049
:1002A00003933760C84703A92046874B98472B68BC
:1002B000864C98680021A0472B6800215868A04709
:1002C0000122834C2270BFF35F8F62B60023DFF8F8
:1002D00020A2804E57468049727133707370B3709C
:1002E000F370337188477D4B9847DFF848B27C4BF9
:1002F00006AD0AF12008384655F8042B5946083750
:10030000019398474745019BF5D10025754ADFF8D1
:100310002882754975488AF82050C0477449754845
:10032000C0470920744FC84774492920B84773490A
:100330002A20B84771492B20B84770492C20B8476C
:100340006E492D20B8476D492E20B8476B492F20A4
:10035000B8476A493020B84768493920B8476749E3
:100360003A20B84765493B20B84764493C20B84724
:1003700062493D20B84761493E20B8475F493F2068
:10038000B8475F492620B8475C493320B8475B49E6
:100390003720B84759493420B84759492720B8472A
:1003A00056494F20B84756492820B847534940205E
:1003B000B84752494120B84750494220B8474F49B1
:1003C0004320B8474D494420B8474C494520B847D9
:1003D0004A494620B84749494720B8474749482035
:1003E000B84746494920B84744494A20B847434995
:1003F0004B20B84741495420B84740495520B84799
:100400003E495620B8473D495720B8473B495820F8
:10041000B8473A495920B84738495A20B847374968
:100420003520B8473748C0472946374A3748384B00
:10043000984729464FF00C323448364B98472946A6
:100440004FF010123148344B9847294641F20302CD
:100450002E48324B9847324B9847324B9847324898
:10046000C0474FF00108DFF8D490304F72B6BFF3A9
:100470005F8F3078257038B9164B13F8012F013093
:10048000C0B2002AF9D030B984F80080BFF35F8F82
:1004900062B6B847EAE772B6BFF35F8F2570C84708
:1004A000F7E700BF890A080000060E40A8350020C3
:1004B000AC35002029010800A435002000D8B8057B
:1004C000CD010800D8020020F9350800C13A080023
:1004D00044020020B03500201925080055360800D8
:1004E000613C0800949C0800A09C0800AC9C08009B
:1004F00090010020EC9C08007D2808000100000805
:1005000001000010009D08000004040400000E40DB
:10051000190B0800250B0800310B08003D0B0800E3
:100520000D380800052C0800209D0800B10D0800BA
:10053000F52608008C9C08001139080015330800C6
:10054000704700BF2DE9F04F444A454B14681B68C3
:1005500055681B1B9D4283B003D842F227339C424F
:1005600002D903B0BDE8F08F4C203E4B9847002DD8
:100570006AD0DFF80CC1BCF802600136B6B20023C5
:10058000A408ACF80260ACF8003054D0364B05EB50
:1005900084041B6835495A1923440193344B4FF0A6
:1005A000010993E82004D868D3F8088002E0D04617
:1005B000AA461D4680EAC02080EAD54316786B40E3
:1005C00083EA1023DCB2F0B284EA000B844218BF45
:1005D000ACF8009081F800B05478C3F3072EE4B271
:1005E000A6458EEA040B18BFACF8009081F801B064
:1005F0009478C3F30747E4B2A74287EA040E18BF12
:10060000ACF8009081F802E0D4781E0EE4B2A64265
:1006100086EA0407019C02F1040218BFACF80090BE
:10062000A242CF70404601F10401C0D1104A82E8D5
:100630002804C2F80C8004210E4A0F4B1160C3F845
:1006400000C003B0BDE8F08F0C4B094F0FCB012663
:1006500087E80F00DFF828C091E700BFD42F002003
:10066000B401002039240800B8010020A80C0020A3
:100670007434002018300020143000206034002032
:100680001C30002042F2273270B5104B1C68944297
:100690001BD80F4A126872B95D6802200D4B98474B
:1006A0004C200D4B984705F1C0402146BDE87040F5
:1006B0000A4A0B4B18474C20074B98472146BDE888
:1006C0007040064A0748064B184770BDD42F0020DB
:1006D00070340020010B0800392408009507080039
:1006E00005280800A80C002070B5084B04205C68A1
:1006F000074A1D6890470749074A04F1C0440D6046
:1007000014604C20BDE87040044B1847D42F0020E3
:10071000010B080018300020143000203924080094
:100720002DE9F0410C4D01202E68DFF838806C680F
:10073000C0471020094B98474EB1094FEB1D3019A7
:100740003A6813F8011F115501348442F8D1434629
:10075000BDE8F04100201847D42F002039240800BC
:10076000B8010020010B080010B5064A0320064B13
:1007700054689847054A10201460054BBDE81040A6
:10078000184700BFD42F0020010B0800D02F0020F5
:100790003924080000B1704710B5054B044698474E
:1007A000022800D010BD2046BDE81040014B18477C
:1007B0000D0B0800010B080070B5A8B9104B1B7891
:1007C00093B969B10F4C104A234615680F4E0C447B
:1007D000ED1AEA1813F8010B3168A3428854F8D1D6
:1007E0000B4B9847032807D0BDE87040094A4FF4E7
:1007F00080610448084B18470020084B9847F3E7EE
:10080000A40C002020300020D02F0020B8010020B0
:100810000D0B0800B907080021280800010B08008B
:100820000B4B9B78012B05D0022B02D11020094BDA
:100830001847704710B53E20074B9847074CA04714
:100840000028FCD01020BDE81040054B184700BF21
:100850008C350020ED250800452608006D2608008F
:1008600095250800004B184729380800004B184709
:100870004D380800054B1B7803B9704710B5044B81
:100880009847BDE81040034B184700BFB101002056
:10089000791B08006938080038B501244C20064B44
:1008A000064D9847064A4FF48061064B06482C7067
:1008B0009847204638BD00BF39240800B101002008
:1008C000B907080021280800203000200022014B31
:1008D0001A707047B1010020F8B5234D10206C68E4
:1008E000224B2E68984784B92148224BD5F808E05E
:1008F000EF6829696A69C0F800E0C3F800E0476062
:100900005F6081609960C260DA60B60828D01848DC
:10091000194D04EB86060168C26881EAD14382EA78
:10092000C222534083EA12234268876882602A68A1
:100930005FFA83FE03604160C76002F804E0296843
:10094000C3F30727621C8F542968A21CC3F307470F
:100950008F542968E21C04341B0EA6428B54DAD152
:100960000122064B1A60F8BDD42F0020392408005C
:100970007434002060340020B8010020703400205E
:1009800038B51C4B0024D9885A78402928BF40210B
:10099000194D1A48103A9D6099810470122A27D87F
:1009A000DFE802F00E12161A1E222626262626261A
:1009B0002626262626260A00114A01201A6138BD5D
:1009C000104A01201A6138BD0F4A01201A6138BD52
:1009D0000E4A01201A6138BD0D4A01201A6138BD46
:1009E0000C4B9847012038BD0B4A01201A6138BDD5
:1009F000002038BD8C350020D42F0020A40C00200E
:100A0000210808008506080069070800E9060800B3
:100A100021070800D90808004505080038B5144A20
:100A20005378152B05D0172B11D0122B01D0002095
:100A300038BD00240F4B104918680D680F499560A8
:100A400090811C60884704280CD0012038BD00210B
:100A50000A2003240A4B948158701970997093608E
:100A6000012038BD2046074B9847012038BD00BF04
:100A70008C35002018300020143000200D0B0800A9
:100A800020340020010B0800042370B586B0064610
:100A90000D4600930F2202AB0E210B480B4CA047D2
:100AA00018B11024204606B070BD042D28BF0425BF
:100AB0000446002DF6D0AA0002A93046044B984700
:100AC000204606B070BD00BF00080E4001000020A7
:100AD0003939080043699B0743BFC1F30801C1616D
:100AE00000200120704700BF4369DB0705D58369FB
:100AF0000020C3F308030B6070470120704700BF5C
:100B0000014B1870704700BF84340020014B1878E7
:100B1000704700BF8434002001EB810100EB8101AC
:100B20000A67704701EB810100EB81014A6770475A
:100B300001EB810100EB81018A67704701EB8101C4
:100B400000EB8101C1F88020704700BF70B52E4BCB
:100B50002E4898472E4B05462C489847054015D0FF
:100B60002C4C20680A2812D020690A2818D0206A44
:100B70000A281ED0206B0A2824D0206C0A282AD0EC
:100B8000206D0A2837D0206E0A282DD070BD6168EC
:100B90000D42E9D0E368984763689D43F6D0E3E7E8
:100BA00061692942E3D0E369984763699D43EDD0C9
:100BB000DDE7616A2942DDD0E36A9847636A9D43B5
:100BC000E4D0D7E7616B2942D7D0E36B9847636BDA
:100BD0009D43DBD0D1E7616C2942D1D0E36C9847CB
:100BE000636C9D43D2D0CBE7616E2942CED0E36ED9
:100BF000BDE870401847616D2942C4D0E36D984745
:100C0000636D9D43C2D0BEE73D280800000C0E4036
:100C1000412808008834002070B52E4B2E48984794
:100C20002E4B05462C489847054015D02C4C206883
:100C30000B2812D020690B2818D0206A0B281ED050
:100C4000206B0B2824D0206C0B282AD0206D0B2879
:100C500037D0206E0B282DD070BD61680D42E9D0D1
:100C6000E368984763689D43F6D0E3E761692942EA
:100C7000E3D0E369984763699D43EDD0DDE7616A9E
:100C80002942DDD0E36A9847636A9D43E4D0D7E701
:100C9000616B2942D7D0E36B9847636B9D43DBD0F0
:100CA000D1E7616C2942D1D0E36C9847636C9D43D6
:100CB000D2D0CBE7616E2942CED0E36EBDE8704062
:100CC0001847616D2942C4D0E36D9847636D9D4319
:100CD000C2D0BEE73D280800000E0E4041280800A3
:100CE0008834002070B52E4B2E4898472E4B054671
:100CF0002C489847054015D02C4C20680C2812D061
:100D000020690C2818D0206A0C281ED0206B0C28D3
:100D100024D0206C0C282AD0206D0C2837D0206ECF
:100D20000C282DD070BD61680D42E9D0E36898476A
:100D300063689D43F6D0E3E761692942E3D0E36944
:100D4000984763699D43EDD0DDE7616A2942DDD0B4
:100D5000E36A9847636A9D43E4D0D7E7616B294211
:100D6000D7D0E36B9847636B9D43DBD0D1E7616CD1
:100D70002942D1D0E36C9847636C9D43D2D0CBE736
:100D8000616E2942CED0E36EBDE870401847616DB8
:100D90002942C4D0E36D9847636D9D43C2D0BEE73E
:100DA0003D28080000100E4041280800883400202B
:100DB00038B50A4D0A4C2A6823689A4200D838BDD3
:100DC000084B984723682A68643393422360F6D21D
:100DD000002264232A60236038BD00BF88350020CC
:100DE000F8340020410508000322124B70B41A7039
:100DF000EFF3108272B6BFF35F8F4FF480604FF451
:100E0000004100264FF400650B4B0C4C2670C3F8D4
:100E10001801C3F81451C3F80401C3F81811C3F83A
:100E2000041122B901232370BFF35F8F62B670BC37
:100E3000704700BF0235002000400A4044020020F5
:100E40002DE9F041441E66006C4A331902EBC303DE
:100E5000197DCD073DD5D3F80CE09D68AE4500F077
:100E60008180A5EB0E05B5F5803F4FEA401132D8E1
:100E700001F1402C0CF5202CDCF800812F0418F037
:100E8000080F33D00821DCF800C10CF0070C01FA80
:100E90000CF10139294200F08C80197D47F0290CB2
:100EA0006FF3410119752DE0B8F1000F00F09F803C
:100EB000311902EBC101CD68514F00F108038D607B
:100EC0005D017D59097D2F0701D58D0753D4C907D1
:100ED00072D4BDE8F08101F1402505F52025D5F853
:100EE000007117F0080755D14FF4803501F140210A
:100EF00001F52021D1F80031C3F30113012B50D0AB
:100F000047F0350C311902EBC1014F683D4B774476
:100F100003EB00135F60EFF3108872B6BFF35F8FCF
:100F20004FF0000E384F87F800E0D3F80CE01EF0C9
:100F3000100FB9D14FF00072C3F808C0CB68304829
:100F40002B440D61CB60036902FA04F41C43046175
:100F5000B8F1000FBDD101233B70BFF35F8F62B6C4
:100F6000BDE8F08100F10803254F5D017D592D0793
:100F700022D5890720D54FF400644FF480722049B0
:100F800002FA00F001EB43135C600B69184308613F
:100F9000BDE8F081D5F800314FF0210C4FF48035D9
:100FA000B0E70823D1F8001101F007018B40AB42F4
:100FB000A6D247F0210CA5E73519ED0051190F7D98
:100FC00055596FF300070F75002D82D00C495B0156
:100FD000CB5834441F0702EBC40248BF40F08000E6
:100FE00091682B46BDE8F0410246002018470123D6
:100FF0003B70BFF35F8F62B65AE700BF0435002035
:1010000000400A4000430A40440200202DE9F04716
:10101000EFF3108372B6BFF35F8F00204FF480614F
:10102000614E624A3070C2F80811002B5AD0DFF8C6
:10103000908198F80030032B5FD05D4F5D4D38886C
:10104000AC89241AA4B2002C33D00146DFF8749185
:101050003F2C92BF01230023402489F80030AA6866
:10106000EFF3108572B6BFF35F8F4FF0000E4F4B5A
:1010700086F800E0D3F81C319B055DD444B14E4B9B
:101080000A4412F8011B03F8011BD9B2A142F8D39C
:101090004FF480624FF40061444B04443C80C3F839
:1010A0001821C3F81411C3F80421002D5DD0BDE848
:1010B000F087424AE988138803449BB2994213801F
:1010C00040D0DFF8009199F800A0BAF1000F39D1B3
:1010D0006B69002B65D0984700285DD138880123C3
:1010E0000146BAE701233370BFF35F8F62B6DFF8C2
:1010F000D08098F80030032B9FD12E4D2B6903B17F
:101100009847EFF3108372B6BFF35F8F00204FF460
:101110008061264A3070C2F80811002B36D00023B7
:101120004FF40071214AC2F818112B616B61AB8139
:1011300088F80030BDE8F087F5B1042388F8003066
:10114000BDE8F087042388F80030EFF3108372B60F
:10115000BFF35F8F4FF480410020144A3070C2F813
:101160001811C2F80411002BA1D101233370BFF371
:101170005F8F62B6BDE8F08701233370BFF35F8FE6
:1011800062B6042388F80030BDE8F087012333708D
:10119000BFF35F8F62B6C2E73C8020465146AC8900
:1011A00056E70146012358E74402002000400A4068
:1011B000FE3400208C35002000001820003500206F
:1011C00002350020FC3400202DE9F041B04B1D20F9
:1011D0009847B04B984720B9AF4B5B6913F00203B7
:1011E0004BD0AD4B5A6917070AD508229A615B6943
:1011F000DE0701D4A94B9847BDE8F041A84B18473A
:101200005A69550700F1D680D3F81C215969CC05DD
:101210003AD54FF480404FF40041C3F80801D004A0
:10122000C3F8081100F14E81510504D5D3F80C31F3
:101230005F0500F12881960500F17B81950404D5B6
:101240004FF40051944BC3F81811140400F1B88006
:10125000510419D54FF480428F4BC3F81821D3F8AD
:101260001C21920507D48F4A1278012A00F01D83B1
:10127000042A00F0B480BDE8F08172B6BFF35F8F3E
:10128000894A1370BDE8F081834B1A69960103D532
:101290005B699D0100F134837F4B1A6994053CD54D
:1012A000D3F82C21100533D5D3F83C3113F4006367
:1012B0002ED1012211464FF40067774E58007B4C27
:1012C00006EB41151844C5F8087104EBC000C5F8D9
:1012D0001471007DC007CED5182505FB03F56019F4
:1012E000077D65596FF300070775002DC3D00831DE
:1012F0004901715800200F074FF0180101FB03430B
:1013000048BF42F0800299682B46BDE8F04118477B
:10131000614BD3F82C21510366D45F4B1A695201FB
:1013200003D55B695B0100F10A835B4B1A695605C3
:101330001AD5D3F84C21150507D5D3F85C311C0517
:1013400003D4022201231146B5E7534BD3F84C21B5
:10135000560309D5D3F85C3113F4402F04D14FF470
:1013600080670123022248E04B4A546914F01004BC
:1013700040F010811369990761D553699B075ED5C9
:101380002023022593611369494923F00203136165
:1013900013691D2043F02003136195618847454B75
:1013A0009847454A1378002B40F06B820023137056
:1013B000BDE8F08104219961384ABDE8F041104749
:1013C0004FF40042344BC3F81821D3F81C215005C8
:1013D0003FF551AF334A1278032A7FF44CAF2022F5
:1013E000C3F81421BDE8F081D3F83C31C3F3814345
:1013F000002B92D14FF4007701224FF48020202659
:10140000402525495C0001EB4212C2F80801086939
:101410001C44264B20EA0700086103EBC403197D36
:101420006FF382011975D2F8083123F00203C2F874
:101430000831C2F81461C2F81851BDE8F081164BAA
:101440005B699F067FF517AF1B4A1378002B00F0EE
:101450005F810124022020210F4B14709861996153
:101460001A69164922F020021A611A6902431A61A8
:101470001A6942F008021A611A6942F004021A61FC
:10148000BDE8F04108470E4BBDE8F041184700BFEA
:10149000F52608009135080000400A40A12C0800FC
:1014A00075080800023500204402002004350020A1
:1014B0001D27080065080800FD3400206D0808009D
:1014C0000D100800B74C237803B3B74D2B6903B157
:1014D0009847EFF3108372B6BFF35F8F00264FF487
:1014E0008060B24AB2491670C1F8080123B90123DD
:1014F0001370BFF35F8F62B600234FF40071AC4AE4
:10150000C2F818112B616B61AB812370A84DD5F81F
:101510001C31C3F30A53082B00F0A58005212022BB
:101520004FF480532170C5F81421C5F81831BDE877
:10153000F0819C4C2378012B00F0FE80022B00F000
:10154000E080042B00F0DD8005212022984B964D91
:101550002170C3F81421EFF3108372B6BFF35F8FCD
:1015600000264FF48060914A91491670C1F8080135
:1015700023B901231370BFF35F8F62B600234FF4CA
:1015800000718B4AC2F818112B616B61AB8123701B
:10159000BDE8F0811023874C9361237DDD0700F1C6
:1015A000358194F82C30D80700F11C810124824B3E
:1015B00098477F4B1A6822F07F021A601A6842F03F
:1015C00080021A60D3F8002122F47F7222F0030215
:1015D00042F04302C3F80021C3F80441EFF3108244
:1015E00072B6BFF35F8F4FF4007100264FF4805541
:1015F0006E480670C3F80451C3F80411196941F428
:10160000807119611AB90470BFF35F8F62B6EFF38E
:10161000108372B6BFF35F8F00244FF48061644A79
:101620000470C2F8081123B901230370BFF35F8F60
:1016300062B600224FF400705D4B5A49C3F818019E
:101640000A701869584940F00800186118690A6161
:1016500040F00400186118694A6140F00200186106
:101660008A81BDE8F081554B4F4E1A78DFF870E162
:1016700032709EF800C0524F52485349534A0333C8
:1016800097F800E01B7807780132087812F8011CFF
:1016900086F801C01278F37086F802E04C4B37717F
:1016A0007071B171F271984700283FF437AF4FF471
:1016B0008053C5F8183196F90030002BC0F24481F0
:1016C000F388002B00F0F180002201264FF48041C6
:1016D0004048414B02801A802670C5F81811EFF37C
:1016E000108372B6BFF35F8F30480270C5F80411E3
:1016F000002B7FF4C0AD0670BFF35F8F62B6BDE80C
:10170000F081294D2B69002B3FF425AF984722E744
:10171000EFF3108172B6BFF35F8F304C234DA0788A
:101720002B70431CA37000297FF493AE01232B7010
:10173000BFF35F8F62B68CE61D4BDFF89C80D3F859
:101740001C61194DB8F80070AB89C6F30A56BA1976
:101750009342BCBFDB1B9EB2AA6886B1791E174BB1
:101760000A4413F8010BD9B2B14202F8010FF8D3C1
:101770003744BFB2402EA8F8007000F09A806B6921
:10178000AF81002B54D09847002851D1052020214B
:101790004FF40072064B2070C3F81411C3F81821DF
:1017A000BDE8F081023500208C3500204402002085
:1017B00000400A40043500200D2C080000001820CD
:1017C0000200182004001820050018200600182028
:1017D000D92C080000350020FE340020B035002050
:1017E00001001820A5696FF3000384F82C30002D48
:1017F0003FF4DCAE624B216AD3F84031012013F094
:10180000080F14BF82220222A847CFE625686FF393
:1018100000032375002D3FF4C4AED2F82031A16837
:1018200013F0080F14BF812201220120A847B8E657
:101830004FF400710322524BC3F818112270EFF3DA
:10184000108272B6BFF35F8F4FF480604FF4004197
:1018500000264FF400654B4C2670C3F81801C3F8FE
:101860001451C3F80401C3F81811C3F80411002A75
:101870007FF401AD01232370BFF35F8F62B6BDE833
:10188000F081EFF3108372B6BFF35F8F3E483D4D9A
:1018900081782C7001398170002B7FF487AD012392
:1018A0002B70BFF35F8F62B680E5384BBDE8F04127
:1018B0001847374EEA8833883B449A427FF75FAF38
:1018C000AB89BB424BD04FF400734FF480402C4A9D
:1018D000C2F81831C2F81801EFF3108372B6BFF3E3
:1018E0005F8F002427490C70C2F80401002B7FF49D
:1018F000C2AC01230B70BFF35F8F62B6BDE8F0810D
:1019000001204FF000750022224B03EB0013D96831
:10191000CF073FF5B0AC1A4C216921EA05012161DE
:10192000D968090C07D018241B4B04FB0233DA6872
:10193000521ADA609A60194BBDE8F041184702204C
:101940004FF080650122DFE700230221104D14488B
:101950002B8003802170134ABDE8F04110476B696A
:10196000002B3FF413AF984700283FF40FAF00213E
:101970003388B8F80020A8F8001013443380A2E799
:1019800000400A4044020020B0350020E90D080064
:101990000035002000430A4004350020410E0800B5
:1019A000FE3400200D100800F8B5EFF3108672B673
:1019B000BFF35F8F0021274B274C1A782170002A34
:1019C00035D00125254A1D201D7090471020022783
:1019D00020214FF0080C4FF0040E214B1A6842F4FE
:1019E00000621A601A6822F400721A601A690243CF
:1019F0001A611A693A431A611A690A431A611A6923
:101A000042EA0C021A611A6942EA0E021A61C3F82C
:101A100018C0144AC3F818E098619F611D209961AD
:101A200090471EB92570BFF35F8F62B6F8BDEFF324
:101A3000108172B6BFF35F8F0B482270827801323B
:101A400082700029BDD101222270BFF35F8F62B680
:101A5000B7E700BFFD34002044020020F52608004F
:101A600000400A401D270800B0350020F8B5264B7D
:101A70009847264B1D209847EFF3108672B6BFF3A8
:101A80005F8F002450274FF00051214D21482C70CA
:101A90000368214A43F480730360204B82F81D736E
:101AA0001160197D93F82C20D0F8E07001F0FE0150
:101AB00002F0FE0264F3820164F3820227F003075E
:101AC000C0F8E070197583F82C204FF48020144F73
:101AD000B847144B1C70EFF3108372B6BFF35F8FDF
:101AE00011492C70CA780132CA7023B901232B70B6
:101AF000BFF35F8F62B60D4B984726B901232B7059
:101B0000BFF35F8F62B6F8BDE5240800F526080034
:101B10004402002000400A4000E100E004350020BB
:101B200045270800FD340020B0350020A919080021
:101B3000024B586900F00100704700BF00400A40A6
:101B4000084B00F07F011A6822F080021A601868C2
:101B500020F07F00084318601A6842F080021A6083
:101B6000704700BF00400A40024B186800F07F0039
:101B7000704700BF00400A40024B5868C0F3CA00DB
:101B8000704700BF00400A40014B98609981704740
:101B90008C3500202DE9F84F00F00F04022C68D896
:101BA000630103F1402505F52025D5F80C61274692
:101BB00016F001065DD101F00305022D63D0032D5F
:101BC0005AD0012D55D1002C56D002F4C055B5F590
:101BD000006F00F08E81B5F5805F0CBF4FF00308F9
:101BE0004FF001084FF0400E4FF0010C22F4C052AC
:101BF00092B203F1402505F52025D5F800A1A2F504
:101C0000806910F0800F4FEA01112AF47F7A1FFAE1
:101C100089F901F030012AF0030A0CBF00200820E6
:101C2000B9F57C4F4AEA010130D3082A40F25F81BE
:101C30005200013AB2FA82F2C2F11C0227E00224F9
:101C40004FF001082746A2460AEB080351F833502B
:101C50007DB1B64A07F108035B01D358D0441B0796
:101C600048BF44F0800401EBC801C9682246012046
:101C7000A8470020BDE8F88F4FF0400E12F4C05C7A
:101C8000F7D1E046B5E74FF0800EF7E707224EEABE
:101C9000010E4EEA0000BCF1000F01D04FEA082609
:101CA00010433043C5F80001D5F80021002AE0DADE
:101CB0000121022288460026DFF870C2C5F804110F
:101CC00051010CEB0109D9F80C0102F1FF3EC007EC
:101CD00014D501F1402101F52021D1F80001C9F806
:101CE0000881C0F38110D1F80091520000FA02F28D
:101CF000324329F0C00096B2C1F800015FFA8EF2BB
:101D00009442DDD9620046FA02F212F003027FD05B
:101D1000D5F8000104F1FF384FEA480A844920F061
:101D2000C0000AEB080C40EA821201EBCC0C9CF8D4
:101D300014E0C5F800210122F346C5F80421D5F8C6
:101D400000216FF3000B002A8CF814B00EF0010094
:101D5000BFF67AAFD5F8042142F00202C5F804219B
:101D6000002855D0DCF80C00DCF8102003F14023EB
:101D7000821A03F52023CCF80C20D3F80C01C707F6
:101D80007FF577AFD3F81C319D063FF572AF5FFA50
:101D90008BFA1AF0040B7FF46CAFDCF80450CAF332
:101DA000400EDCF80830EFF3108C604672B6BFF3DB
:101DB0005F8F604F1AF0010F87F800B040F09C80F1
:101DC000182000FB081090F8149049F0010980F8E1
:101DD0001490BCF1000F00F09D801820002700FB3C
:101DE00008109B1A2A4442608360C7600761BEF1F5
:101DF000000F40F08B80B3FA83F35B09182202FBDB
:101E00000812117D204663F3410111754A4B984732
:101E1000012C69D1C6F30116002E65D04449474B09
:101E200091F82C00D3F80021054622F0C00242EAC6
:101E30008616C3F80061C3F80441D3F800216FF39C
:101E40000005002A81F82C5000F00100BFF6F7AE23
:101E5000D3F8042142F00202C3F80421002843D041
:101E6000486A8B6A314AC31A4B62D2F84C01C007E8
:101E70007FF5FFAED2F85C2192063FF5FAAEEDB2E7
:101E800015F004087FF4F5AEC5F3400CCE690A6A7C
:101E9000EFF3108E704672B6BFF35F8F254F15F0CB
:101EA000010F87F8008027D145F0010581F82C50FB
:101EB000BEF1000F35D00020D21A33440A62CB6144
:101EC00048628862BCF1000F22D1B2FA82F2520954
:101ED00091F82C30022062F3410381F82C30164A2D
:101EE00090470120BDE8F88F0120BDE8F88F00225F
:101EF000CDE64FF0020875E600287FF4BAAE012364
:101F00003B70BFF35F8F62B6BDE8F88F012375E7C2
:101F10000122DDE74FF001003870BFF35F8F62B63A
:101F20005BE73C70BFF35F8F62B6C4E700400A40D6
:101F30000435002044020020410E080040400A40C1
:101F400000F00F02022A00D970470120530103F16B
:101F5000402101F520210B462DE9F041C1F808018F
:101F6000561ED1F8007106FA00F5A919144C27F095
:101F7000C007C900C3F800716718387D10F0010F61
:101F800008D1354404EBC504237D6FF38203237528
:101F9000BDE8F08154F801806FF300003875B8F1A6
:101FA000000FEED0D3F8003101201B0705EB06032C
:101FB00004EBC30348BF42F080029968C047E0E7E2
:101FC0000435002000F00F00430103F1402303F526
:101FD0002023D3F81C319B0609D4064B013800EBB3
:101FE000400003EBC000007DC0F38000704701207B
:101FF000704700BF0435002000F00F03022B2CD8DF
:10200000F0B4244E5C013719D7F81C21920621D474
:1020100021495A1E02EB420201EBC202157D15F066
:10202000040117D1ED071AD401061AD44FF4005158
:10203000202204F1402404F52024D4F808310120A2
:1020400023F00203C4F80831C4F81811C4F81421AD
:10205000F0BC70470120F0BC704700207047084674
:10206000F9E7D7F81C1111F4402FDFD04FF4802589
:102070004FF48071147D03F1080006EB401044F02A
:10208000040414754560326901FA03F313433361A4
:102090000120E0E700400A400435002000F00F0076
:1020A000022854D8F8B5431E5D002E4CEA1804EB04
:1020B000C202117D49073FD54FF4802C4FF4807741
:1020C00092F814E0284E02F110016FF3820E4201E3
:1020D00081F804E006EB020ECEF808C1316907FA78
:1020E00000F021EA00003061DEF81C118F0615D5E2
:1020F00002F1402101F52021D1F81C01860428D4E9
:10210000202002F1402101F520210A46C1F81801E2
:10211000D1F8041141F00201C2F804112B44DB0094
:10212000E218117DC80710D5117DE3586FF3000147
:10213000117598470120F8BD420102F1402101F5D7
:102140002021D1F81C118906D2D40120F8BD00202D
:1021500070474FF400564020C1F81861C1F81801CB
:10216000CEE700BF0435002000400A4000F00F0019
:1021700002282BD82DE9F843440104F1402404F54A
:102180002024D4F80C51ED071DD5D4F81C41A40629
:1021900019D4471E4FEA470C284E0CEB070506EBF7
:1021A000C50595F814E01EF004080CD1EFF3108477
:1021B00072B6BFF35F8FDFF88C901EF0010F89F8C5
:1021C000008005D08CB30020BDE8F8830020704764
:1021D00095F814E04EF0010E85F814E0F4B14FF0DC
:1021E000000E0CEB0704089DE40035513444626096
:1021F000A360C4F80CE0C4F810E059B1674406EBE2
:10220000C706337D0E4A61F34103337590470120C1
:10221000BDE8F883B3FA83F14909EFE7012489F8AF
:102220000040BFF35F8F62B6D9E7012389F8003021
:10223000BFF35F8F62B62046BDE8F8830435002007
:10224000410E08004402002000211E4B00F00F0246
:1022500003EB0213F0B49960010622D4541E65000A
:102260002B191948DB00C1180E7DF70701D4F0BC0B
:1022700070473746C6586FF300070F75002EF6D02B
:1022800002F1080311495B01CB582C4400EBC40058
:102290001B0781683346F0BC48BF42F08002012032
:1022A00018474FF40070094901EB4211D1F81C3175
:1022B00013F4402FD2D0C1F81401D1F81C319B0582
:1022C000FBD4F3E700430A400435002000400A40F5
:1022D000074AD2F8E03023F0030343F00203C2F8C8
:1022E000E030D2F8E03043F00403C2F8E030704749
:1022F00000400A40074AD2F8E03023F0030343F0DD
:102300000203C2F8E030D2F8E03043F00803C2F82C
:10231000E030704700400A40044AD2F8E03023F031
:10232000030343F00203C2F8E030704700400A4064
:1023300070B48FB06C4601261F4D0FCD0FC40FCD6A
:102340000FC40FCD0FC495E803001C4D44F8040BD7
:102350002170C5F80861D5F80031194A23F47F735C
:1023600023F0030343F06B03C5F800316B46C5F857
:102370000461D5F8E0100DF1350021F0030141F0C2
:102380000201C5F8E010D5F8E01041F01001C5F8E1
:10239000E01013F8011B834202F8011FF9D14FF43A
:1023A00080614FF40062054BC3F81811C3F8142183
:1023B0000FB070BC704700BF409D080000400A404D
:1023C000FFFF1720013802281ED82DE9F0411546DD
:1023D000BAB10E460C46DFF83C800D4F01E0013DDE
:1023E0000DD014F8011BD8F800003B68984700286E
:1023F000A4EB0600F3DA4FF0FF30BDE8F081BDE852
:10240000F0811046BDE8F0814FF0FF30704700BF0B
:10241000A4350020A8350020112806D0102802D0AD
:102420004C2800D07047034B184710B5014B984714
:1024300010BD00BF61280800112806D0102802D066
:102440004C2800D07047034B184710B5014B9847F4
:1024500010BD00BF452808001749184808B581423B
:1024600009D0174B984206D2C2431A4422F0030205
:102470000432144B98471448144B984207D2C24375
:102480001A4422F0030204320021114B9847114BE9
:10249000114A23F0604103F1604321F07F01B3F55D
:1024A000404F916003D2936843F0005393600B4B0D
:1024B00098470B4B9847FEE74CA00800000000200F
:1024C000880C002039390800880C0020E0350020F5
:1024D000253A08000000080000ED00E0C1380800BF
:1024E0006902080010B53E20074B9847074CA047EB
:1024F0000028FCD04FF47102054B064CDA61A0476E
:102500000028FCD010BD00BF452608006D2608003D
:1025100000040E40E526080070B51248124DA84789
:102520003E20124B9847124CA0470028FCD04FF099
:102530008070104B9847104CA0470028FCD00F4BE0
:1025400098470F4B0F4A104C9A62A0470028FCD0C6
:102550000E4B102098470E4B98472B46BDE8704015
:102560000048184700D8B805250100204526080076
:102570006D2608008D2608007D260800B526080077
:1025800000040E40013F0F20C5260800ED2508007D
:10259000FD36080014490B6B23F0030343F00103DD
:1025A0000B638B6E1B0758BF4FF4006302D504E02A
:1025B000013B16D08A6E1207FAD50B490B6B23F03C
:1025C0007003184308638B6E180758BF4FF40063FD
:1025D00002D504E0013B04D08A6E1207FAD5002030
:1025E00070470120704700BF00040E4014490B6B78
:1025F00023F07003184308638B6E180758BF4FF41D
:10260000006302D504E0013B17D08A6E1207FAD5A9
:102610000B490B6B23F0030343F002030B638B6E38
:10262000180758BF4FF4006302D504E0013B04D003
:102630008A6E1207FAD5002070470120704700BF4C
:1026400000040E40084900020A460B6A80B223F0DB
:10265000030343F45C1343F0010303430B62936EE3
:10266000DB07FCD5704700BF00040E40024B986E9C
:1026700000F00100704700BF00040E40024B986E4E
:1026800000F48030704700BF00040E40084B1B6A06
:1026900030B923F08073064A43F45C131362704729
:1026A00043F08073024A43F45C131362704700BF27
:1026B00000040E404FF00052014B9A62704700BF79
:1026C00000040E40024B986E00F00200704700BFFD
:1026D00000040E40024AD36923F48033D36170476B
:1026E00000040E40024B986E00F04000704700BF9F
:1026F00000040E401D280AD80123074A03FA00F0FF
:10270000936930EA030304D0106100207047012070
:1027100070470020704700BF00040E401D2809D8F4
:102720000123074A03FA00F0936930EA030303D058
:10273000002070470120704750610020704700BFA3
:1027400000040E40034BC0F312001A6F10431867C9
:10275000704700BF00040E400A490B4A0B6F43F458
:1027600080130B67136923F00403136120BF4FF438
:10277000FA7300BF013BFCD1024A136A1B07FCD568
:10278000704700BF00040E4000ED00E0014B1878D8
:10279000704700BF34350020024B1B7803B17047EF
:1027A000014B184734350020CD080800084B1B7832
:1027B00013F0800F03F0600303D1402B05D00020FD
:1027C0007047402BFBD1034B1847034B184700BF02
:1027D0008C3500201D0A080081090800064B10B541
:1027E0009847064AC37813700BB1012010BD044B03
:1027F000BDE81040184700BFF92B08003435002011
:102800009908080010B582B000920B4602460021DC
:10281000024C8120A04702B010BD00BF6D2108000E
:1028200010B582B000920B4602460021024C0220F5
:10283000A04702B010BD00BF6D210800C06C7047FA
:10284000806C70470122430903F5001303F20673FD
:1028500000F01F005B0202FA00F01863704700BF2F
:102860000122430903F5001303F2067300F01F0071
:102870005B0202FA00F05863704700BF430903F59A
:10288000001301F0F04203F20673B2F1205F4FEA49
:1028900043234FD030B42AD8B2F1006F13D0B2F135
:1028A000805F44D1012400F01F0204FA02F25A644E
:1028B000186FCD0740EA020018675A6013D41A66F1
:1028C000204630BC7047012400F01F0204FA02F2D7
:1028D0005A64186F1D6FC90700EA050020EA02005C
:1028E00018675A60EBD55A66204630BC7047B2F183
:1028F000405F02D0B2F1605F19D1012200F01F00E9
:10290000824001F0040401F06050C9075A644CBFD2
:102910005A661A66002C2BD15A65B0F1605F0CBF65
:102920001A635A631A611A60012030BC7047002094
:1029300030BC7047012200F01F008240C8075A6473
:102940004CBF5A661A6611F00A0F14BF1A625A6217
:10295000880707D4080748BFC3F8842001205A61BC
:102960001A607047C3F8802001205A611A607047CE
:102970001A65D2E710B402F0F044B4F1205F0346C8
:102980003FD020D8B4F1006F0ED0B4F1805F35D1C4
:102990004164006FD40740EA0100186759600ED403
:1029A0001966012010BC70474164006F1C6FD2078C
:1029B00000EA040020EA010018675960F0D5596662
:1029C000012010BC7047B4F1405F02D0B4F1605FE9
:1029D00014D102F0605002F00404D20759644CBFD5
:1029E000596619662CBB5965B0F1605F0CBF19635D
:1029F000596319611960012010BC7047002010BC98
:102A000070474164D0074CBF5966196612F00A0F2F
:102A100014BF19625962940708D4100748BFC3F85D
:102A2000841059611960012010BC7047C3F88010F0
:102A3000F7E71965D8E700BFFEE700BF024A034B7E
:102A4000907800F07F0018478C350020411B08006B
:102A5000134B1B681B681A7982421DD970B4114E42
:102A600033605C881C44A34213D2002504E01A782A
:102A7000012513449C420BD95A78042AF7D19A783D
:102A80008242F4D1DA788A42F1D13DB9012001E0E5
:102A90003360002070BC7047002070473360F5E75A
:102AA0003C35002040350020264B1B780BB9002018
:102AB00070472DE9F041244E0D4631680B681A79B4
:102AC00082422ED9DFF888E0CEF800305A881A44C6
:102AD000934226D21C46002704E0237801271C4499
:102AE000A2421CD96378042BF7D1A3788342F4D196
:102AF000E378AB42F1D117BB0546144F04E063788D
:102B0000042B05D0052B0FD023781C44A242F6D805
:102B10004B6853F82530BDE8F0411B681847CEF8E4
:102B200000400020BDE8F081A288E178A078B84795
:102B30000028F6D031680B685A881A44E4E7CEF8CA
:102B40000040D9E73B3500203C350020951B0800AC
:102B500040350020F8B5244F06463B685B6853F8C3
:102B60002050EB689847214B1B780BB90020F8BD2B
:102B70003B681B681A79B242F8D9DFF878E0CEF8E2
:102B800000305A881A449342F0D21C46002104E0D7
:102B9000237801211C44A24218D96378042BF7D171
:102BA000A378B342F4D1E3788342F1D1C9B9104E8E
:102BB00004E06378042B05D0052B0BD023781C444C
:102BC000A242F6D86B6898470120F8BDCEF80040C5
:102BD0000020F8BDA078B0473B681B685A881A44AB
:102BE000ECE7CEF80040E2E73C3500203B35002022
:102BF000411F080040350020014B1868704700BF96
:102C000040350020004B18476D1A0800F8B51F4EDC
:102C10003278002A2ED01E4F3B681B68197949B3C1
:102C200000241C4D32B90134E4B28C4222D23278F5
:102C3000002AF8D02B6059881944994213D90020F2
:102C400004E01A7801201344994218D95A78042ACA
:102C5000F7D19A78A242F4D1DA78002AF1D198B962
:102C600020460D4B98473B6801341B68E4B2197944
:102C70008C42DCD30023094A33701380F8BD3A68D4
:102C80002B6013681979CEE72B60E9E73B3500200C
:102C90003C35002040350020552B080036350020FB
:102CA00038B50B4B1B7893B10A4D2A681368197914
:102CB00069B10024536853F824301B691BB198474D
:102CC0002A68136819790134E4B28C42F2D338BD12
:102CD0003B3500203C35002000222DE9F843954E7D
:102CE0003378B281326172611A060DD413F0600F2D
:102CF00069D003F01F03012B00F08280022B1ED04D
:102D000000242046BDE8F883F488002CF8D013F0A6
:102D10006001EED113F01F0340F0CB807378062BD7
:102D200000F0BD81082B00F0B281002BE8D1022C0D
:102D3000E6D121468048814B98470124E1E7804D48
:102D40002B78002BDCD07F4C23681A681279002A7C
:102D5000D6D000277C4E5B6853F82780D8F80C301B
:102D600098472B78002BCBD023681B681A79BA427E
:102D7000C6D93360598819448B42C1D24FF0000E36
:102D800005E01A784FF0010E1344994219D95A7888
:102D9000042AF6D19A78BA42F3D1DA788242F0D195
:102DA000BEF1000F40F08F82D8F808309847002815
:102DB0007DD1236801371A68FFB21279BA42CAD8A6
:102DC0009EE733609CE713F01F0353D17378013BF8
:102DD000082B95D801A252F823F000BF172F080046
:102DE000012D0800F32E0800012D0800E32E080035
:102DF000012D0800012D0800012D0800652F080095
:102E00004F4D2B78002B3FF47BAF4E4CD4F800E0B5
:102E10003779DEF800301A79BA427FF671AFDFF801
:102E20002881C8F80030598819448B421ED20020EE
:102E300005E01A7801201344994240F2EE805A7856
:102E4000042AF6D19A78BA42F3D1DA78002AF0D17E
:102E5000002840F02682DEF8043053F82790D9F895
:102E60000C3098472B78002B40F09281337803F098
:102E70001F0343E7012B00F0B080022B7FF440AF2B
:102E80007378012B00F0CC80032B7FF458AFF388CC
:102E9000002B7FF454AF7388002B7FF450AF307950
:102EA0002A4B984730792A4B9847002831D0012483
:102EB00027E7012B00F0C380022B7FF421AF73784A
:102EC000002B7FF43CAF022C7FF439AF214B3079DB
:102ED0009847214B21461880184A184690470124EC
:102EE0000FE7F388002B7FF40BAF1C4B01243361F9
:102EF00007E7F388002B7FF403AF7388022B7FF47E
:102F0000FFAE174B9847044618B13379002B00F0F9
:102F100066813378EDE6F388002B7FF4F1AE748898
:102F2000012C7FF4EDAE044A138823F002031380D2
:102F3000E7E600BF8C35002036350020891B0800ED
:102F40003B3500203C350020403500204922080058
:102F5000F91F0800C51F0800383500203D2A080069
:102F6000311B0800F388002B7FF4CAAEA24B9847B0
:102F70000028CED0A14FB847A14DB278002800F06C
:102F80005881AB685B7C9A42C3DC9E4B98479E4C51
:102F9000B3782370002B8AD0B8472278002800F03D
:102FA0008B812B6902F10052013A03EBC2031A68CC
:102FB000964C12792360002A3FF479AF0025944F94
:102FC00028460021B8470135EDB20028A1D023687A
:102FD0001B681B79AB42F3D869E773780B2B98D148
:102FE000F18800297FF40CAF874B1B78002B3FF44E
:102FF00087AE3479874B2046B5789847002888D02B
:103000002046854B9847002883D029462046804B90
:10301000984700287FF44BAF7BE7C8F8003025E7DE
:10302000F388002B7FF48BAE7388002B7FF487AE80
:1030300030797A4B984700287FF439AF69E7737885
:103040000A2B7FF466AF012C7FF4DAAE6E4D2B783D
:10305000002B3FF455AE6D4C96F8048027683B6812
:103060001B7943457FF6D2AE40466A4B98470446EB
:1030700000283FF44EAF7B6853F82830DB68984750
:10308000674B01211870674A1846904739E6012CB2
:103090007FF436AE21465C48624B984731E674882F
:1030A000230A013BE4B20E2B3FF62AAE01A252F8EE
:1030B00023F000BF7B310800513108004331080084
:1030C000012D0800012D0800373108000D310800DE
:1030D000012D0800012D0800012D0800012D080018
:1030E000012D0800012D0800012D0800F130080015
:1030F000434B586900283FF403AE4188494B984739
:10310000F388B2899A4288BFB381D0E63B4B984797
:103110003B4B002840F0AD809A68527CA2427FF67B
:10312000F8AE1A693F4B52F834004188984707229D
:10313000B3685A70E4E7324A3A4BD068017898474E
:10314000DEE7032C3FF6E5AEDFE804F06EB18E79E2
:103150002A4B98472A4B002800F097809A68527CA7
:10316000A2427FF6D6AE1A692E4B52F8340041883F
:1031700098470222B3685A70C2E7204B9847204A0A
:10318000284B002840F0A180906801789847B7E765
:1031900023681B681A79BA427FF668AEC8F8003017
:1031A0005A881A449342BFF461AE002405E01978AE
:1031B00001240B449A427FF630AF59780429F6D1A6
:1031C0009978B942F3D1D9788142F0D1002C6BD1F2
:1031D000D9F80830984700287FF469AE46E6094BD5
:1031E0009847B3881B0A013B032B3FF692AEDFE8FA
:1031F00003F07976737000BF691B0800311B08006B
:10320000480200200D2C08003B3500203C350020F2
:10321000A92A0800512A0800552B08009D20080003
:103220003A350020891B080004213048304B98476C
:1032300066E72B685B7C9A427FF7A7AE69E642217E
:1032400020200C462B4B2C4F00223D46013B0132E7
:1032500013F801EFD2B2824225F802EFF7D32648E5
:10326000234B3C7098474BE7282113200C46234BF7
:10327000E9E71A68527CA2427FF64BAE5A681C4BB3
:1032800052F834004188984751E71A68527CA242AC
:103290007FF63FAE5A68164B52F834004188984783
:1032A00067E7C8F80030D6E5C8F8003090E72C2171
:1032B00015200C46124BC6E76B6802F10052013A2A
:1032C00003EBC20373E633606EE51068017898473C
:1032D00016E70C4B336114E50B4B336111E50B4BD7
:1032E00033610EE50A4B33610BE500BF1402002089
:1032F000891B080090010020D0010020300200202E
:10330000180200203123080019230800F5220800C4
:10331000D12208002DE9F04F431E83B0042B00F2A8
:10332000B880DFE813F0C800C80005000500B90048
:1033300072B6BFF35F8F00210122884CDFF84C8208
:10334000874B217088F800201F6A864AD3F830B076
:10335000854ED2F800A047F45C11D6F800900BF02F
:1033600003059E6ADA6941F00801012D0092196295
:1033700000F2B580DE461EF0700F07D0784A2EF0BE
:103380007003114613638B6E1A07FCD5774B0190BF
:103390009847774B9847724901988B6E9B03FCD5F1
:1033A0000B6A6F4A23F09B7323F4803343F45C135E
:1033B0000B62936ED903FCD56A496B4B2AF4706C8F
:1033C000C1F800C0042829F47061196000F0BD80C4
:1033D00001232370BFF35F8F62B6664B984772B6C6
:1033E000BFF35F8F0023BA07237040F185805C49EB
:1033F00061480F6A614B384003430B620B6A23F448
:103400005C1323F0780343F45C130B625C49314096
:1034100000296FD0524B46F000569E620221422393
:103420000098C70302D519464D4BD861022D00F014
:103430008780032D03D14A48836E5D06FCD5484E34
:103440000BF070033046356B25F070052B4333636A
:10345000836E1A07FCD5434D434BC5F800A0C3F853
:103460000090A5F58065C0F830B0AB6E1B07FCD5A9
:103470003B4A936E0B42FCD00026424D88F8006018
:103480002B680BB198472E6001232370BFF35F8F29
:1034900062B603B0BDE8F08F01203B4A2F491369A3
:1034A00043F0040313610870BFF35F8F62B620BF5F
:1034B00003B0BDE8F08F01252949334A0B6F274C33
:1034C00023F480130B67136923F004031361257041
:1034D000BFF35F8F62B60228E9D130BFD9E7194642
:1034E0002BF0030E4EF0010EC3F830E08B6E1B077D
:1034F000FCD540E7402393E7FB0787D51848036ACC
:10350000DF070DD40146036A23F45C1323F00303A1
:1035100043F45C1343F0010303628B6EDA07FCD5BE
:103520000F4B196AC90109D41946186A40F09B70FB
:1035300040F4803018628B6EDB03FCD508495DE7F0
:103540000748836E9E07FCD579E7136A23F45C1362
:1035500023F0010343F45C13136239E744020020B3
:1035600000040E4000080E40000A0E40B526080078
:10357000D526080059270800FCFFC8FE02003701C5
:103580000000FF074835002000ED00E04435002032
:10359000024B187880F00100704700BF44350020CE
:1035A0000B4A0C4913683BB118448142A6BF106016
:1035B00018464FF0FF30704710B4074C204481424A
:1035C0001460AABF10604FF0FF30204610BC704757
:1035D0004C350020FC3F0820004008204FF0FF3011
:1035E000704700BF4FF4005300204B60704700BF8E
:1035F0000120704700207047AC2330B4036091E88D
:103600001800B3FBF4F302464FF6FE701B095C1E74
:1036100084420BD840F20225502413628B680020AC
:103620005360C2F82051146030BC7047012030BC98
:10363000704700BF43699B0746BFC161002001205E
:10364000704700BF4369DB0743BF836900200B70ED
:10365000012070474FF40042134B10B50A205A6006
:10366000124CA0470B20A0470C20A047104C4FF055
:1036700060511120A0474FF060511020A0474FF03B
:1036800060514C20A0474FF040515320A047532099
:10369000084B9847BDE810404FF000624FF4C0510E
:1036A0000548064B184700BF50120E40F52608008B
:1036B0007D28080061280800000C0E4075290800CC
:1036C0002DE9F04190B9002A90460DDD0C46094FD6
:1036D000094E8D1821463868336801349847AC424A
:1036E000F8D14046BDE8F0818046FAE74FF0FF3858
:1036F000F7E700BFA8350020AC3500203B4A136B2C
:1037000003F00303012B2FD018D3136AD9013BD543
:103710003749384B0B603548026B02F00302022A2E
:1037200042D03248344B026B02F07002702A15D13D
:10373000324AA2FB03235B080B607047304B2C49D5
:103740005B6913F0800F14BF4FF400434FF4FA434A
:103750002648026B02F07002702AE9D0026BC2F3B5
:103760000212D3400B607047136ADB0119D4204961
:1037700024480860126A02F07002102A33D01D4BF0
:10378000202A18BF0346E3E719491E4B0B60126A53
:1037900002F07002102A23D0202ABCD1154B0B60F6
:1037A000B9E7144B1249D3E710B4846A826AC4F3B0
:1037B0000A4000FB03330D48D2B2B3FBF2F3026BB5
:1037C00002F07002702A06D0026BC2F30212D340DC
:1037D0000B6010BC7047094AA2FB03235B08F7E7A4
:1037E000094B0B6097E7084BB2E700BF00040E409F
:1037F000D4020020001BB700001C4E0EABAAAAAAE0
:1038000010120E4000093D0000127A0010B5112080
:10381000044CA0471020A0472346BDE810404C2090
:10382000184700BF1924080010B51120054CA04707
:103830001020A0474C20A047BDE810405320024B69
:10384000184700BF192408004528080010B51120AA
:10385000034B9847BDE810405320024B184700BF68
:1038600039240800612808004FF47A72104B10B513
:10387000A3FB00139B0902FB13039BB204467BB11D
:10388000B3F5FA7F10D0C4F3080424B91020094C12
:10389000A0474C20A047084A13680133136010BDAD
:1038A0001120064B9847EEE71120024B9847EAE7B4
:1038B000D34D6210192408008835002039240800EF
:1038C00070B50F4E0F4D761BB61018BF002405D0F3
:1038D000013455F8043B9847A642F9D10A4E0B4DE6
:1038E00006F09EFB761BB61018BF002406D00134EC
:1038F00055F8043B9847A642F9D170BD70BD00BF92
:103900002CA008002CA0080034A008002CA008005F
:103910000FB410B5074B82B004AC54F8042B1868F0
:1039200023468168019401F081FC02B0BDE810409B
:1039300004B07047D8020020844641EA000313F027
:10394000030349D1403A23D30B6803604B684360BB
:103950008B688360CB68C3600B6903614B6943610B
:103960008B698361CB69C3610B6A03624B6A4362F3
:103970008B6A8362CB6AC3620B6B03634B6B4363DB
:103980008B6B8363CB6BC36340304031403ADBD2F7
:1039900030320BD30B6803604B6843608B688360E5
:1039A000CB68C36010301031103AF3D20C3205D31B
:1039B00051F8043B40F8043B043AF9D2043208D0F1
:1039C000D2071CBF11F8013B00F8013B01D30B8863
:1039D00003806046704700BF082A13D38B07B1D01D
:1039E00010F00303AED0C3F10403D21ADB071CBFEF
:1039F00011F8013B00F8013BA4D331F8023B20F859
:103A0000023B9FE7043AD9D3013A11F8013B00F891
:103A1000013BF9D20B7803704B7843708B7883703D
:103A20006046704770B4860746D0541E002A41D0C5
:103A3000CAB2034602E014F1FF343BD303F8012B72
:103A40009D07F8D1032C2ED9CDB245EA05250F2CC0
:103A500045EA054519D9264603F11002103E0F2EFE
:103A600042F8105C42F80C5C42F8085C42F8045CD6
:103A700002F11002F2D8A4F1100222F00F0204F0B9
:103A80000F041032032C13440DD91E462246043A6B
:103A9000032A46F8045BFAD8221F22F003020432FC
:103AA000134404F003042CB1C9B21C4403F8011BF5
:103AB0009C42FBD170BC704714460346C2E700BF6E
:103AC00000290CBF022200224FF4806300F000B8EE
:103AD0002DE9F043614D83B02D6804460F469046B2
:103AE0001E4615B1AB6B002B64D0B8F1020F06D0A7
:103AF000B8F1010F00F29F80002EC0F29C80636E2F
:103B0000D80734D52146284603F0E0FA216B41B1AD
:103B100004F14003994202D0284603F055FC0023EB
:103B200023630022B4F90C30A26162601A063AD411
:103B300023F44A6323F00303B8F1020FA3811DD0DD
:103B400001AB6A462146284603F0EAFEA3891843E2
:103B5000A081002E32D1009E304603F059FF074667
:103B600000286BD0A38943F08003A38128E0A389B8
:103B70009905C7D4A06D03F0CFFEC3E7002500264A
:103B80000120616E04F1430243F00203A660CE07F8
:103B9000A38160612260226101D498053ED5284648
:103BA00003B0BDE8F0832169284603F00DFCB4F9A9
:103BB0000C30BDE7284603F0E1FA96E7002FCBD0A2
:103BC000AB6B002B33D0009BB4F90C209E421CBF82
:103BD00042F40062A281B8F1010F04BF42F0010279
:103BE000A28192B212F008032760276166610ED0AD
:103BF000D1071AD50023656E764215F00105A6613E
:103C0000A36009D00025284603B0BDE8F083A36077
:103C1000656E15F00105F5D19305C0D4A06D03F0D4
:103C20007DFE284603B0BDE8F083A660F0E7284695
:103C300003F0A4FAC7E74FF0FF35B0E7DDF80090D6
:103C4000B14504D0484603F0E3FE074620B9B4F975
:103C50000C304FF0FF3592E74E4683E7D802002044
:103C60000EB40146F0B56FF000454FF402774FF601
:103C7000FF769CB021AC54F8042B0B4B02910691BB
:103C8000186802A923460194ADF8147004950795AD
:103C9000ADF8166000F00AF80022029B1A701CB002
:103CA000BDE8F04003B07047D80200202DE9F04F86
:103CB000C3B00C460B9192460F930C9003F01AFE82
:103CC000036818461A9304F021FFA3891990190676
:103CD00003D52369002B01F0358000230DF1C809BD
:103CE000C84615931393149318931B930993169333
:103CF000179327932693CDF894909AF80030544662
:103D0000EBB1252B02D11AE0252B03D014F8013F8B
:103D1000002BF9D1A4EB0A058DB1269B279A01331C
:103D20002A44072BC8F800A0C8F80450279226930D
:103D300000F38A8008F10808099B2B440993237833
:103D4000002B00F0898000234FF0FF301A468DF8D9
:103D5000773019460D939B46637804F1010A0A9067
:103D60000AF1010AA3F12000582800F2B783DFE826
:103D700010F04C03B503B5035403B503B503B50305
:103D8000B503B503B50359005903B5036600140222
:103D9000B5032F02A503A503A503A503A503A5034A
:103DA000A503A503A503B503B503B503B503B50383
:103DB000B503B503B503B503B5038B02D302B50351
:103DC000D302B503B503B503B5031B03B503B503B0
:103DD0002003B503B503B503B503B5033402B5033A
:103DE000B5034B02B503B503B503B503B503B5037E
:103DF000B503B503B503B50376029E03D302D30220
:103E0000D30263039E03B503B5036803B5037503CB
:103E1000DD018C035E03B503F201B5038700B50332
:103E2000B50332030F9C236818460D9323460028E0
:103E300003F104030F9304DA0D9B5B420D934BF0E7
:103E4000040B9AF800308BE725AA0B990C9804F024
:103E50008BFE40B9C8466FE7279B23B10C9825AA73
:103E60000B9904F081FE0B9B9B8913F0400F099B7B
:103E700018BF4FF0FF330993099843B0BDE8F08FA6
:103E80001BF0200F119340F0AF810F9A1BF0100F21
:103E9000134640F09A851BF0400F00F096850025F0
:103EA0000123148804320F92002217468DF87720E0
:103EB0000A994A1C00F010822BF08002079254EA03
:103EC000050240F00F82002940F03184002B40F0C1
:103ED00039851BF001030E9300F06286302342AE59
:103EE00006F8413D0A9B0E9A9342B8BF13460893C9
:103EF0000023129317B1089B01330893079B13F01B
:103F00000203109302D0089B02330893079B13F01F
:103F1000840540F010830D9B089AA3EB020BBBF1C4
:103F2000000F40F30883BBF1100F40F3B287279CCA
:103F300043462146A8461027269A0C9C0B9D06E076
:103F4000ABF1100BBBF1100F03F1080318DD0132C8
:103F5000AB481031072A2791269283E88100EFDDD4
:103F600025AA2946204604F0FFFD00287FF47BAFF8
:103F7000ABF1100BBBF1100F4B462799269AE6DCEC
:103F800045460C46984601329D4B5C44072A2794CF
:103F9000269288E8080800F3C3829DF8777008F13C
:103FA000080887B10121269B0C440B440DF17702D0
:103FB000072B27942693C8F80410C8F8002000F3B4
:103FC000CD8308F10808109B7BB10221269B0C448D
:103FD00001331EAA072B27942693C8F80410C8F8AB
:103FE000002000F3118408F10808802D00F00483FC
:103FF0000A9B0E9A9F1A002F37DD102F40F3798607
:10400000804D42462146B0464FF0100B2E46269B6F
:104010000C9C0B9D04E0103F102F02F1080215DDEF
:1040200001331031072B2791269382E84008F2DDF7
:1040300025AA2946204604F097FD00287FF413AFF7
:10404000103F102F4A462799269BE9DC35460C463F
:104050004646904601333C44072B2794269388E834
:10406000A00000F3708308F10808079BDF0500F14A
:104070006482269B0E9901330C44072B2794C8F8C1
:104080000060C8F80410269300F3B38308F1080811
:10409000079B5B073BD50D9B089A9D1A002D36DDCB
:1040A000102D40F321871026269B0C9FDDF82CB0A5
:1040B00004E0103D102D08F1080816DD0133504AC8
:1040C0001034072B2794269388E84400F1DD25AAB5
:1040D0005946384604F048FD00287FF4C4AE103D30
:1040E000102DC846279C269BE8DC0133444A2C440B
:1040F000072B2794269388E8240008DD25AA0B992E
:104100000C9804F031FD00287FF4ADAE279C099B8C
:104110000D9A08998A42ACBF9B185B180993002C32
:1041200040F0FB820023C8462693E6E511931BF07E
:10413000200340F045811BF0100240F066841BF024
:10414000400300F062840F9913460A4604320C883B
:1041500000250F92A8E600250F9A119316688DF896
:104160007750141D002E00F0CD860A9A531C00F0E3
:104170001B862946304603F00BFF002800F00D8710
:10418000831B0A950E930F94CDF81CB023EAE373BA
:10419000089312959DF87770ACE69AF800300AF112
:1041A00001042A2B00F0C287A3F130000928A2469F
:1041B00000F2188700231C461AF8013B04EB840424
:1041C00000EB4404A3F130000928F5D90A94C9E5AD
:1041D0004BF0800B9AF80030C2E54BF0100B1BF04F
:1041E000200F11933FF451AE0F9C073424F00703C6
:1041F00003F10802D3E900450F92012354E600BF02
:10420000C09D0800D09D08001193002A40F0AD87A2
:10421000BE4B1BF0200F189340F0E7800F9A1BF065
:10422000100F134640F0D8831BF0400F00F0D483EA
:104230000025043314880F931BF0010F00F0E38076
:1042400054EA050300F0DF8030239DF844208DF808
:1042500078308DF879204BF0020B022324E60122FE
:104260001193002311460F98089202681F468DF89B
:1042700077300A931293031DCDF81CB00E918DF880
:10428000A0200F9328AE39E61193002A40F08487CE
:104290004BF0100B1BF0200F40F075840F9A1BF0B1
:1042A000100F134640F09D831BF0400F00F09983E0
:1042B000B2F900400433E5170F9322462B46002A3B
:1042C00073F10003C0F298830A999DF877704A1C35
:1042D0004FF001037FF4F0AD54EA050200F02982AB
:1042E000CDF81CB0012B00F00E83022B40F09C8215
:1042F0004E461898230943EA0573290904F00F0272
:104300000D461C46835C06F8013D54EA0503F1D1D5
:10431000A9EB06030E93E5E51193002A40F03887D8
:104320000F9C1BF0080F04F1070400F0CF8424F069
:10433000070303F108020F921A685B681592149341
:10434000149B159D23F00044284621464FF0FF3270
:104350006F4B05F0D5FA002840F0348428462146FA
:104360004FF0FF326A4B05F0ADFA002840F02A8486
:1043700015A80DC8149905F09BFA002840F0D485C3
:104380009DF8777003231A4608930023614E19465F
:104390000A93614B0E92119A2BF0800007901291B4
:1043A000472AD8BF1E46A5E54BF0080B9AF8003007
:1043B000D6E44BF0100B11931BF020033FF4BBAE7F
:1043C0000F9C073424F0070303F10802D3E90045EA
:1043D0000F92002368E51193002A40F0C2864F4BEC
:1043E0001BF0200F18933FF419AF0F9C1BF0010F27
:1043F00004F1070424F0070303F108020F92D3E944
:1044000000457FF41DAF02234EE59AF800300029E5
:104410007FF4A6AC01222021A2E44BF0010B9AF814
:1044200000309DE49AF8003001222B2198E44BF0F3
:10443000200B9AF8003093E44BF0400B9AF80030D0
:104440008EE49AF800306C2B03BF9AF801304BF0E1
:10445000200B0AF1010A4BF0100B81E4002A40F016
:104460007C861BF0200F40F052841BF0100F40F0B0
:1044700038841BF0400F00F034840F9A1368043224
:104480000F92BDF824201A8037E4782330220F9849
:104490008DF879301193031D0F93204B0468189306
:1044A0004BF0020B8DF8782000250223FCE41193D9
:1044B000002A3FF4EFAE8DF87710EBE600200446BB
:1044C000A3F130001AF8013B04EB840400EB440430
:1044D000A3F130000928F5D90D9443E41193002A83
:1044E00040F04A86119A002A3FF4B6AC002301211D
:1044F0001F4608918DF8A020CDF81CB08DF87730BC
:104500000A9312930E9128AEF8E400BF8C9D080028
:10451000FFFFEF7F809D08007C9D0800A09D0800A4
:1045200025AA0B990C9804F01FFB00287FF49BAC84
:10453000C8469DF87770279C33E5119B652B40F3A7
:104540009A8015A80DC8149905F0A8F9002800F064
:1045500093810121269BB54A0B440C44072B2794D9
:104560002693C8F80410C8F8002000F3C68308F1A9
:1045700008081F9B139A279C934203DB079BDD07C8
:104580007FF586AD269B199901331A9A0C44072BA7
:10459000C8F80020C8F804102794269300F3C483B9
:1045A00008F10808139B5E1E002E7FF771AD102ED8
:1045B00040F3758522461027269B9D4DDDF830B0CF
:1045C0000B9C05E008F10808103E102E40F32582F0
:1045D00001331032072B2792269388E8A000F1DDE3
:1045E00025AA2146584604F0BFFA00287FF43BACC8
:1045F000C846279A269BE7E70D9B089A9F1A002F2B
:104600007FF7F6AC102F40F3A884894D424621462F
:10461000B0464FF0100B2E46269B0C9C0B9D04E0E1
:10462000103F102F02F1080215DD01331031072B66
:104630002791269382E84008F2DD25AA29462046E4
:1046400004F092FA00287FF40EAC103F102F4A4677
:104650002799269BE9DC35460C46464690460133B1
:104660003C44072B2794269388E8A00000F39E8201
:1046700008F10808BCE4139B012B40F34F8201238F
:10468000269F1C441F44072F2794C8F800602697D4
:10469000C8F8043000F35F8208F10808199A01375E
:1046A0001A9B1444072F27942697C8F80030C8F89F
:1046B000042000F35C8208F1080815A80DC81499BD
:1046C00005F0ECF8139B002840F04181013B0137D5
:1046D00001361C44072FC8F8006026972794C8F8B5
:1046E000043000F3668108F108081B9A013714446E
:1046F00021AB072F27942697C8F80420C8F800306C
:104700007FF7C4AC25AA0B990C9804F02DFA002869
:104710007FF4A9ABC846279CBAE425AA0B990C984C
:1047200004F022FA00283FF4FDACFFF79CBBDDF853
:104730001CB0012B00F07E81022B71D1CDF81CB092
:1047400000240025D4E525AA0B990C9804F00CFA56
:1047500000287FF488ABC846279C86E425AA0B99DD
:104760000C9804F001FA00287FF47DABC846279C22
:1047700029E40120269B2D4A03440444072B279457
:104780002693C8F80400C8F8002040F3D88225AA70
:104790000B990C9804F0E8F900287FF464ABC84644
:1047A0001F99279C29B9139B1BB9079BD8077FF535
:1047B0006FAC1998269B0246013322441A9C072BA2
:1047C0002792C8F80040C8F80400269300F331840B
:1047D00008F108080029C0F20984139901338C18E4
:1047E000072B27942693C8F80060C8F804107FF7B9
:1047F0004DAC25AA0B990C9804F0B6F900287FF46B
:1048000032AB279CC84643E425AA0B990C9804F0C8
:10481000ABF900287FF427ABC846279CFFF7E5BB20
:1048200000240025CDF81CB0494604E0BC9D0800DA
:10483000D09D08003146E20842EA4572E80804F0DB
:10484000070305461446303354EA050201F8013CDB
:1048500001F1FF36EED1079AD2077FF559AD302B23
:104860003FF456AD3023023906F8013CA9EB0103B1
:104870000E930E46FFF736BB1F9900297FF779AFDD
:10488000129B139A9342A8BF1346002B1F460BDDC1
:10489000269B3C440133072B279488E8C0002693CD
:1048A00000F3FB8208F10808129B002FA8BFDB1B56
:1048B000002B1F4640F3D780102B40F33484BA4DB1
:1048C00042462146B0464FF0100B2E46269B0C9CCC
:1048D0000B9D04E00832103F102F40F3B5800133E8
:1048E0001031072B2791269382E84008F2DD25AA94
:1048F0002946204604F038F900287FF4B4AA4A4635
:104900002799269BE7E7002D08BF0A2CC0F090806E
:104910004E46204629460A22002305F02FF8303261
:1049200006F8012D2046294600230A2205F026F824
:1049300004460D4654EA0503EBD1A9EB06030E939A
:10494000FFF7D0BA0A9B4E460E93FFF7CBBA5E1E16
:10495000002E7FF7CAAE102E40F3E38322464FF0BD
:10496000100B914D0C9C04E0103E102E08F108082D
:1049700015DD01371032072F2792269788E8200887
:10498000F2DD25AA0B99204604F0EEF800287FF40A
:104990006AAA103E102EC846279A269FE9DC1446C4
:1049A00001373444072F2794269788E860007FF763
:1049B0009AAE25AA0B990C9804F0D6F800287FF43B
:1049C00052AA279C269FC8468FE604321C68002501
:1049D00001230F92FFF768BA1C6804330F93002578
:1049E0002AE41C680433E51722460F932B46002A5D
:1049F00073F10003BFF668AC2D27644265EB4505F3
:104A00008DF877700123FFF753BA0F9900250A46F6
:104A100004320C680F92FFF747BA1446013334444E
:104A2000072B2794269388E860007FF72FABE0E6FA
:104A3000DDF81CB0012342AE3034CDF81CB006F8CE
:104A4000414D0E93FFF74EBA35460C46464690460A
:104A500001333C44072B2794269388E8A00000F3F9
:104A6000468208F108081F9A139B9A4245DB079B70
:104A7000D90742D4139B12989A1A1D1A9542A8BFBF
:104A80001546002D0EDD2699064401312C440729D8
:104A9000C8F800602794C8F80450269100F31682E5
:104AA00008F10808002DB4BF1646561B002E7FF7EC
:104AB000EFAA102E40F3F38222461027269B3A4D90
:104AC000DDF830B00B9C04E008F10808103E102E11
:104AD000A3DD01331032072B2792269388E8A0002C
:104AE000F2DD25AA2146584604F03EF800287FF45E
:104AF000BAA9C846279A269BE8E7269B199801334E
:104B00001A990444072B2794C8F80010C8F8040029
:104B1000269300F3CF8108F10808ABE7079BDA077B
:104B20003FF5ADAD0123269F1C441F44072F27945A
:104B3000C8F800602697C8F804307FF7D4AD25AADE
:104B40000B990C9804F010F800287FF48CA9C84643
:104B5000279C269FC9E525AA0B990C9804F004F818
:104B600000287FF480A9C846279C269F96E525AAA1
:104B70000B990C9803F0F8FF00287FF474A9C8463D
:104B8000279C269F99E50F9C073424F0070404F125
:104B90000801D4E900230F9114461D46FFF78FBB8F
:104BA0004E46FFF79FB900BFD09D080025AA0B997C
:104BB0000C9803F0D9FF00287FF455A9C846279C1C
:104BC000FFF716BA159C22462046149C2346214620
:104BD00004F096FE002840F073820A9B0133119B7B
:104BE00023F020030E9300F09C81472B00F0D68029
:104BF0004BF480730793149B1F1E159B0893B7BF3C
:104C00003B46002303F100472D231093119B662B95
:104C100000F09081462B00F0A48002200E9B23A977
:104C2000452B0ABF0A9B0A9D5D1C8DE8210004915B
:104C300020A81FA93B460390089A02910C9801F006
:104C400087FA119B0646672B40F0BA811BF0010FD3
:104C500000F023827419169A0898179B394604F0BD
:104C60001DFE002840F02481239BA34206D2302160
:104C70005A1C23921970239B9C42F9D89B1B1393B7
:104C80000E9B472B00F0A280119B652B40F3A78160
:104C9000119B662B1F9B129300F07181139B129A3C
:104CA0001946914200F35D811BF0010F40F0F08145
:104CB00022EAE273089367230E921193109B002B54
:104CC0007DD10A939DF87770FFF714B924F007049B
:104CD000236815936368149304F108030F93FFF797
:104CE0002FBB0F9A136804320F92099A1A60FFF7CC
:104CF00004B8269BAF4DFFF7ADB925AA0B990C98C8
:104D000003F032FF00287FF4AEA8C84631E40F9AC2
:104D1000134604330F93099B1168DD171A462B467F
:104D2000C1E90023FEF7E9BF25AA0B990C9803F00F
:104D30001BFF00287FF497A8C846279C32E408F19F
:104D400008082FE540210C9802F06AFE0B9A1060CB
:104D50001061002800F0148240230B9A5361FEF783
:104D6000BCBF03200A9C23A98DE81100049120A850
:104D70001FA90390089A3B4602910C9801F0E8F9AC
:104D800025460646119B7419462B7FF464AF337891
:104D9000302B00F087811F9D2C445CE70A9B002B81
:104DA00008BF01230A9323E730460A9503F0AEFEBD
:104DB0000F940E90CDF81CB00346FFF7E7B92D27EE
:104DC00000238DF877700A93FFF795B81F9B1A465A
:104DD0001293033304DB0A9B19469142BFF65EAF80
:104DE000119B023B1193129B9DF84420013B002B29
:104DF0008DF88420B4BF2D222B221F93B8BF129BA5
:104E00008DF88520B8BFC3F10103092B40F31F8142
:104E10000DF193000146684C00E0114684FB0352FB
:104E2000DD17C5EBA20505EB8502A3EB420230328C
:104E3000092D01F8012C2B4601F1FF32EDDC303356
:104E40000239DCB2884202F8014C40F292810DF145
:104E50008601134601E013F8014B834201F8014B30
:104E6000F9D101339B1A0DF18602134421AA9B1A32
:104E7000139A1B93012A13440E9340F348810E9B0F
:104E8000199A13440E9323EAE373089300231293B1
:104E900014E7279C269AFFF776B825AA0B990C9859
:104EA00003F062FE00287EF4DEAFC846279CFBE4D8
:104EB0002346E3E625AA0B990C9803F055FE00283B
:104EC0007EF4D1AFC8461F9A279CD3E525AA0B993B
:104ED0000C9803F049FE00287EF4C5AF1F9A139B7F
:104EE000C846279C9A1ADDE5269BFFF7FEB825AA3F
:104EF0000B990C9803F038FE00287EF4B4AFC84636
:104F0000279CB0E50A9B3746062B28BF06230A9646
:104F1000129608930F94CDF81CB00E93274EFEF70F
:104F2000E9BF06230A9363E62D231F468DF87730E9
:104F3000FFF728BA03200A9C23A98DE811000491E9
:104F400020A81FA90390089A3B4602910C9801F0F3
:104F5000FFF825460646041919E7269B154DFFF76D
:104F60007EBB199A139B1344129A0E93002A40F3A6
:104F7000C78023EAE3730893672311939EE6002B0F
:104F800040F3E1800A9A002A40F0B0801BF0010F44
:104F900040F0AC8008930E9390E60A9B0F94089320
:104FA0000E930A90CDF81CB012909DF87770FEF722
:104FB000A1BF00BFD09D080067666666B49D08006B
:104FC000119B472B7FF446AE1BF0010F7FF4DAAE46
:104FD000239B9B1B13930E9B472B3FF4F7AE1F9B0A
:104FE000129300E700200A90FEF7BCBE4F4210313A
:104FF00035DA10246A4DDDF830B004E008F1080815
:10500000103F102F2CDD01331032072B27922693EF
:10501000C8F80050C8F80440F0DD25AA0B9958469E
:1050200003F0A2FD00287EF41EAFC846279A269BF7
:10503000E6E725AA0B990C9803F096FD00287EF46C
:1050400012AFC8461F99279A269BFFF7C3BB302291
:1050500013448DF887308DF8862022AB06E7504D3B
:1050600001333A44072B88E8A0002792269308F1E1
:1050700008087FF7B2AB25AA0B990C9803F074FDD2
:1050800000287EF4F0AEC846279A269BFFF7A5BB02
:10509000129B199A13440E936BE7239BEEE5269B14
:1050A0003F4DBBE4169A0898179B394604F0F6FB6F
:1050B00000287FF470AEC5F101051F952C44CAE5A8
:1050C000149B384E002BBEBF2D231F468DF8773022
:1050D0004FF003031A4608934FF00003A8BF9DF852
:1050E000777019460A93304BFFF754B9129B199AFF
:1050F00013440A9A1A4422EAE2730E920893DDE5F9
:10510000129B0E9AC3F101031A441346C3E71BF026
:10511000010312937FF4B3AE0E9B23EAE37308936B
:10512000CCE51F4D3CE4269B1D4D91E40F9D9AF864
:1051300001302868A24640EAE0700A902846043010
:105140000F90FEF70DBE0A9B13B91BF0010F02D0A2
:10515000199B0133CDE701231CE78DF87710FFF78A
:1051600080B98DF87710FFF73AB98DF87710FFF70F
:105170004FB80DF1860379E68DF87710FFF7B2B9D5
:105180004FF0FF320C2309920C9A1360FEF774BEA5
:105190008DF87710FFF7C4B88DF87710FFF778B85F
:1051A000D09D0800889D0800849D08002DE9F84FD7
:1051B0004B6E93469C042FD59368126853B30E46EA
:1051C000074602F1080919E920045FEA9A0817D096
:1051D0000024043D01E0A04510D0324655F8041FDC
:1051E000384602F06DF8431C04F10104F3D10023AA
:1051F000CBF80830CBF80430BDE8F88FDBF8083086
:105200002AF0030AA3EB0A03CBF8083009F10809D6
:10521000002BD8D10020EAE702F0BCF90023CBF83C
:105220000830CBF80430BDE8F88F00BF2DE9F04F0F
:10523000ADB01D468B4690460793069018B1836B20
:10524000002B00F0F380DBF86430BBF90C00DF07C3
:1052500081B202D48E0540F1FC808C040AD4DBF8C4
:10526000643040F4005123F40053ABF80C10CBF839
:10527000643089B2080740F1B380DBF81030002BAE
:1052800000F0AE8001F01A030A2B00F0B580002375
:105290000DF1700AD1460B93039311931093CDF83F
:1052A0003CA0CDF810B098F800304446FBB1252B57
:1052B00002D11CE0252B03D014F8013F002BF9D1BB
:1052C000A4EB08059DB1109B119A01332A44072BCA
:1052D000C9F80080C9F80450119210937ADD002AB1
:1052E00040F0B584D146039B10922B44039323785E
:1052F000002B00F0E58300204FF0000304F10108CB
:105300008DF8373062780646054603464FF0FF3485
:1053100008F10108A2F12001582900F2D982DFE842
:1053200011F02802D702D7023002D702D702D702E3
:10533000D702D702D702A0008802D702A800B8027D
:10534000D702A601AB01AB01AB01AB01AB01AB01D5
:10535000AB01AB01AB01D702D702D702D702D7020C
:10536000D702D702D702D702D702B901D702D70294
:10537000D702D702D702D702D702D702D702D70265
:105380009E01D702D702D702D702D702A201D702C5
:10539000D7025A02D702D702D702D702D702D702C2
:1053A000D702D702D702D70261022202D702D70260
:1053B000D70276022202D702D7027B02D702FC0173
:1053C00089011002D202D7029502D702AD00D7029E
:1053D000D702350209F10809039B2B44039386E7A2
:1053E0005946069800F0AAFD18BBBBF80C1001F056
:1053F0001A030A2B7FF44BAFBBF90E30002BFFF6DC
:1054000046AFDBF86430DB0705D48F0503D4DBF847
:10541000580002F083FA2B4642465946069800F09F
:1054200049FD039003982DB0BDE8F08F01F0A6FE72
:1054300009E7DBF86430D90704D4BBF80C309A05CF
:1054400040F1AE844FF0FF33039303982DB0BDE8D5
:10545000F08FDBF8580002F05FFABBF90C0081B264
:10546000FBE607990A460D680432002D079202DA1E
:105470006D4243F0040398F8002049E708959E0622
:1054800000F15A840799DD060A4600F1EF835806B9
:1054900040F1EC83002701220E88043107914FF080
:1054A000000100258DF83710611C00F0178123F0F2
:1054B0008001029156EA070140F01581002C40F06E
:1054C0005B83002A40F0B68313F00103059300F0DC
:1054D000558430230DF1B00B0BF8413D059BA342E1
:1054E000B8BF234601930DB101330193029B13F022
:1054F0000203099302D0019B02330193029B13F034
:1055000084030A9340F01582089B019A9D1A002D8E
:1055100040F30F82102D40F38484109BCE46102759
:10552000A146119AC54E1946069C07E001F1020CEE
:1055300001460EF1080E103D102D11DD481C1032F1
:10554000072811928EE8C0001090EFDD002A40F08D
:10555000D981103D102D11464FF0010CD646EDDCDF
:105560004C466146F1462A4407291192C9F8006069
:10557000C9F80450109100F3EB829DF8375009F1FF
:105580000809481C002D40F0DC81099B002B00F02D
:10559000F68102210EAB0A44072811921090C9F837
:1055A0000410C9F8003040F3E681002A40F09583EA
:1055B0000A9B0120802B1146D14640F0E481089BD4
:1055C000019D5E1B002E40F3DE81102E40F33C84D3
:1055D000CC461027A1469A4D069C07E001F1020E29
:1055E00001460CF1080C103E102E11DD481C103243
:1055F000072811928CE8A0001090EFDD002A40F0FF
:105600009B82103E102E4FF0010E1146D446EDDC69
:105610004C46E1463244BEF1070F119289E8600022
:10562000CDF840E000F3668309F108090EF10100AE
:105630007146A8E1089513F0200240F0898313F029
:10564000100140F0198313F0400200F01583079811
:105650000A46014604310688002707911FE708958E
:1056600043F01003E7E7089543F0100307E743F022
:10567000800398F800204BE60025A2F1300118F8CD
:10568000012B05EB850501EB4505A2F13001092948
:10569000F5D93FE60895002840F0028443F0100356
:1056A0009E0600F13D830799DD060A4600F1F0826F
:1056B000580640F1ED82B1F900600432F717304628
:1056C00039460792002871F10002C0F25A83611C2A
:1056D0009DF837504FF001027FF4E9AE56EA07011A
:1056E00000F04B820293012A00F08A82022A40F0E5
:1056F0005A82D3460B98330943EA0773390906F0F7
:105700000F020F461E46835C0BF8013D56EA070365
:10571000F1D1AAEB0B030593E0E6002840F0BD832E
:10572000990600F15983DA0600F1E5805B0640F145
:10573000E280079A136804320792BDF80C201A80A1
:10574000B1E5782230210895079D8DF839202A1D72
:1057500007923C4A2E680B9243F002038DF83810F2
:10576000002702229BE60895002899D08DF8376023
:1057700096E798F80020002E7FF4CAAD012020267D
:10578000C6E543F0010398F80020C1E5089500281C
:1057900040F080832B490B919F0600F1E58207982A
:1057A000DE06014600F16F825D0640F16C82002743
:1057B000043106880791D80740F1208256EA070194
:1057C00000F01C8230218DF8392043F002038DF85F
:1057D0003810022263E60895002840F055831A49E4
:1057E0000B91D9E7012207981146019202684FF008
:1057F00000048DF848200246043208958DF83740A1
:10580000059107920DF1480B029300246EE643F0D8
:10581000400398F800207BE598F800206C2A03BF2D
:1058200098F8012043F0200308F1010843F0100329
:105830006EE598F8002001202B2669E5E09D080020
:10584000F09D0800A09D08008C9D08004FF000020C
:1058500007990895D1F800B08DF837200D1DBBF1E0
:10586000000F00F0E482671C00F0C3822246002192
:105870005846019302F08CFB019B002800F0E8825F
:10588000A0EB0B020795059202939DF83750002478
:1058900024E698F8002008F101072A2A00F0E9829E
:1058A000A2F130010929B8464FF000043FF632ADAD
:1058B00018F8012B04EB840401EB4404A2F130013D
:1058C0000929F5D926E543F0200398F800201FE5C3
:1058D0000895002840F0DB82002A00F0F1800121C9
:1058E0008DF848204FF0000201918DF83720059186
:1058F0000DF1480B88E7079A136804320792039A60
:105900001A60D0E40FAA04992046FFF74FFC002844
:1059100040F043811099D646119A01F1010C0AE634
:105920000FAA04990698FFF741FC002840F0358142
:10593000D14610999DF83750119A481C002D3FF41C
:1059400024AE01210DF137050A4407281192109069
:10595000C9F80410C9F8005040F30981002A40F04A
:10596000AF81099B002B3FF423AE02220846D146AB
:105970000EAB1D921C93014609F1080901300A9BE8
:10598000802B3FF41CAE059BE41A002C2FDD102C5D
:1059900040F32082CE461026B24D069FDDF81090CF
:1059A00006E0881C19460EF1080E103C102C10DD84
:1059B0004B1C1032072B11928EE860001093F0DD23
:1059C000002A65D1103C102C4FF001001146D6463C
:1059D000EEDCF146224407281192C9F80050C9F8BC
:1059E0000440109000F3858009F108090130059901
:1059F00007280A441192C9F800B0C9F804101090A1
:105A000040F38280002A40F01881029B10925807D0
:105A100035D5089B01995C1A002C40F3E780D146EC
:105A2000102C40F30D82102510998F4E069FDDF843
:105A300010B006E0881C194609F10809103C102C2A
:105A400011DD4B1C1032072B1192C9F80060C9F808
:105A500004501093EEDD42BB103C102C4FF00100BF
:105A60001146D146EDDC224407281192C9F80060A6
:105A7000C9F80440109051DD002A40F09A81039B40
:105A8000089A01998A42ACBF9B185B1803934EE0B9
:105A90000FAA49463846FFF789FB002840F03E81AF
:105AA0001099D646119A481C7FE70FAA59463846E6
:105AB000FFF77CFB60B91099D146119A481CBDE7ED
:105AC000119BDDF810B0002B40F0CA810023109329
:105AD000DBF8643013F0010FBBF80C3002D19A05EB
