:0200000280007C
:10000000003008204D1B080049150800491508005C
:1000100049150800491508004915080000000000AE
:10002000000000000000000000000000491508006A
:10003000491508000000000049150800491508008E
:100040004915080049150800491508004915080018
:100050004915080049150800491508004915080008
:100060004915080049150800ED160800FD1608009E
:100070000D17080049150800491508004915080022
:1000800049150800491508004915080049150800D8
:1000900049150800491508004915080049150800C8
:1000A00049150800491508004915080049150800B8
:1000B000491508008D2208004915080010B5054CA7
:1000C000237833B9044B13B10448AFF30080012304
:1000D000237010BD580D002000000000ACA70800E0
:1000E00008B5034B1BB103490348AFF3008008BDBB
:1000F000000000005C0D0020ACA708000022F0B555
:100100001E4B83B0984204460F46019223D01C4BED
:1001100098420DD01B4B984212D11B4E01AD29467F
:100120002046B0470028FAD1019B3B7003B0F0BDD8
:10013000154E01AD29462046B0470028FAD1F3E715
:10014000124B98420FD1104E01AD29462046B047C0
:100150000028FAD1E8E70E4D39462046A847002886
:10016000FAD103B0F0BD0B4B9842DFD1064E01AD82
:1001700029462046B0470028FAD1D5E700060E40B0
:100180000000094000400940093308000080094090
:10019000351E080000C009401D4B70B5984204464A
:1001A0000E4615D01B4B98421AD01B4B98421FD0BD
:1001B0001A4B984204D01A4B984221D0002070BDAF
:1001C000184D31462046A8470028FAD1012070BDBD
:1001D000154D31462046A8470028FAD10120F6E700
:1001E000104D31462046A8470028FAD10120EEE7FD
:1001F0000C4D31462046A8470028FAD10120E6E7F9
:10020000084D31462046A8470028FAD1DEE700BF56
:1002100000060E40000009400040094000800940EF
:1002200000C00940F5320800251E080010212DE904
:10023000F04788B00DEB0100764B9847764F0820C9
:10024000B847764C764A4FF4006114604FF4E132BF
:10025000744BCDE90221744A744D1A60744A754B8F
:1002600008201A60744B0193B84701A92046734BCC
:1002700098472B68724C98680021A0472B68002192
:100280005868A04701216F4B1970BFF35F8F62B6AA
:1002900000226D4BDFF8B48159711A705A709A7050
:1002A000DA701A716A4988476A4B4546DFF8A891A7
:1002B0006A4E04AC0DF1200A984754F8042B2846E6
:1002C0003146C847A24505F10805F6D100250920A9
:1002D000634C88F82050B84762492920A0476149FB
:1002E0002A20A0475F492B20A0475E492C20A04729
:1002F0005C492D20A0475B492E20A04759492F205B
:10030000A04758493020A04756493920A0475549B1
:100310003A20A04753493B20A04752493C20A047E0
:1003200050493D20A0474F493E20A0474D493F201E
:10033000A0474D492620A0474A493320A0474949B4
:100340003720A04747493420A04747492720A047E6
:1003500044494F20A04744492820A0474149402014
:10036000A04740494120A0473E494220A0473D497F
:100370004320A0473B494420A0473A494520A04795
:1003800038494620A04737494720A04735494820EB
:10039000A04734494920A04732494A20A047314963
:1003A0004B20A0472F495420A0472E495520A04755
:1003B0002C495620A0472B495720A04729495820AF
:1003C000A04728495920A04726495A20A047254937
:1003D0003520A0472946254A2548264B98474FF007
:1003E0000C3229462248244B98474FF010122946D8
:1003F0001F48224B984741F2030229461C48204BD4
:100400009847204B9847204B9847204B9847204BC4
:100410009847FEE74D1508006D1A080000060E40CB
:10042000C8360020C436002099010800AC03002023
:10043000FD0008005C36002000D8B805ED1D08005E
:100440006D35080004030020643600209C01002064
:10045000891C0800D11408002D370800F8A20800F4
:100460005D170800010000080100001000040404EA
:1004700000000E40191B0800251B0800311B080056
:100480003D1B0800E1130800F50C08004D0B0800A7
:10049000A908080070B5084B084A5C6805201D686B
:1004A0009047074B074A04F1C0441D6014604C207C
:1004B000BDE87040044B1847CC3000209913080069
:1004C000A4300020A03000204D1608002DE9F04196
:1004D0000E4F01203C680E4E7D68B04710200D4B3A
:1004E000984774B107EB040CEC1F0B4DFB1DE41B8C
:1004F0000CF1070CE21813F8010F296863458854C2
:10050000F8D13346BDE8F04100201847CC30002038
:10051000991308004D1608000003002010B5064A84
:10052000064B042054689847054A10201460054B78
:10053000BDE81040184700BFCC30002099130800D8
:100540009C3000204D16080070B5084B0220D3E9FE
:100550000054074B98474C20064B9847294604F116
:10056000C040054A054BBDE870401847CC3000201C
:10057000991308004D16080065060800BD1E080006
:1005800042F2273310B5074A14689C4200D910BDC7
:100590004C20054B98472146BDE81040034A0448CB
:1005A000044B1847CC3000204D16080065060800A3
:1005B000740D0020BD1E080070B590B969B10F4DD3
:1005C0000F4A2B680F4C1944206812F801CB00F831
:1005D00003C001339942F7D129600B4B9847042897
:1005E00007D0BDE870404FF48061084A0448084BCA
:1005F0001847084B00209847F3E700BF9C300020C5
:100600000C31002000030020D5130800B9050800B4
:10061000DD1E0800991308000D4A5378122B03D0F1
:10062000152B01D00020704710B50024094B0A4853
:10063000196800689181094990601C608847052805
:1006400001D0012010BD2046054B9847012010BD68
:10065000AC360020A4300020A0300020D5130800C4
:100660009913080000B1704710B5054B0446984730
:10067000022800D010BD2046BDE81040014B1847AD
:10068000D5130800991308002DE9F04F364A374B6F
:1006900014681B6856681B1BB34283B003D342F235
:1006A00027339C4202D903B0BDE8F08F4C20304B79
:1006B0009847002E3ED02F4F7B8801339BB20025F8
:1006C000A4087B803D8047D04FF00109A300009330
:1006D000294B2A4A1B68D2E9004B3344284E019328
:1006E000D2E90283B446002283EAC32383EAD441D9
:1006F0006140A24681EA1324019B5919087824FA23
:1007000002F3DBB2984202F1080280EA030E18BF3E
:10071000A7F80090202A0CF801EB01F10101EDD1BE
:10072000009A0435AA42434606F104060FD0D84683
:10073000D346D7E71349114A086801231060486877
:100740000C4F50608868C9689060D160B7E70B4B68
:10075000C3E902B8C3E9004A04220B490B4B0F60FE
:100760001A6003B0BDE8F08FCC300020C00100203B
:100770004D160800A830002000030020BC300020E7
:10078000740D0020AC300020A0300020A4300020E8
:100790002DE9F047214C10206568214B26689847C9
:1007A0004DB9DFF880C0204F083494E80F008CE882
:1007B0000F0087E80F00B6082ED04FF0000CDFF8CE
:1007C00064901A4C4FEA8608D9E9000ED9E9026212
:1007D000002382EAC22282EAD04A8AEA000A074655
:1007E0000CEB05018AEA122020FA03F2D4F800A0EB
:1007F0000833D2B2202B0AF8012001F10101F3D114
:100800000CF1040CC445324602D07646BE46DFE702
:10081000C9E902E6C9E90007BDE8F087CC3000204D
:100820004D160800BC300020AC3000200003002032
:1008300008B5154A5378103B082B0AD8DFE803F0B7
:100840000B0F13171B1F09090500104B0120136123
:1008500008BD002008BD0E4B0120136108BD0D4BE3
:100860000120136108BD0C4B0120136108BD0B4B27
:100870000120136108BD0A4B9847012008BD094BB0
:100880000120136108BD00BFAC36002081050800BF
:10089000490508001D05080095040800CD0408005E
:1008A000910708008906080010B5044B04489847D2
:1008B000BDE810400348044B184700BFCD080800AE
:1008C0001906080031080800F508080007490A78E9
:1008D0000F2A01D900207047034610B4501C044C65
:1008E000087044F82230012010BC70474C350020BD
:1008F0000C35002007490A780F2A01D900207047DB
:10090000034610B4501C044C087044F822300120F7
:1009100010BC70474D35002050350020004B184763
:10092000FD130800004B184721140800054B1B78E5
:1009300003B9704710B5044B9847BDE81040034B0E
:10094000184700BFC4010020712C08003D140800A6
:1009500038B50124044D4FF48061044A044B054826
:100960002C709847204638BDC4010020B905080006
:10097000DD1E08000C3100200022014B1A70704768
:10098000C401002038B50F4B0F4AD9880F484029C1
:1009900028BF40211278986099818AB10C4C551E6D
:1009A000EDB2531B251F05EB830504EB820401E028
:1009B000AC4205D054F8043D98470028F8D038BD23
:1009C000002038BDAC3600204D350020CC30002052
:1009D0005035002038B50B4B1A788AB10A4C551E99
:1009E000EDB2531B251F05EB830504EB820401E0E8
:1009F000AC4205D054F8043D98470028F8D038BDE3
:100A0000002038BD4C3500200C350020044B5A78AE
:100A1000222A03BF034A01201A610020704700BF49
:100A2000AC360020290A080010B5224B9B78013B08
:100A3000102B0AD8DFE803F00A161B090909090977
:100A4000090909090909092D3A0010BD3E201A4B70
:100A500098471A4CA0470028FCD0BDE81040102051
:100A6000174B18471020BDE81040164B18470122BD
:100A70000C21154B15489847154B9847154A536854
:100A80009903FCD4136843F0254343F00503136036
:100A9000FEE70F4B98470F4A53689B03FCD413683B
:100AA00043F0254343F005031360FEE70A4BBDE81E
:100AB00010401847AC360020D1190800F51908007D
:100AC0001919080075190800FD14080000080E40E7
:100AD000B52B080000120E40C913080038B5154C9C
:100AE0006378172B1BD0402B17D14FF0200C124DE1
:100AF000124B372293E8030085F808C085E803000D
:100B00000F4B104905F10900984728460E4BA56088
:100B1000984703460120A38138BD002038BD40F22C
:100B2000011500210322044B01201D809970A36050
:100B3000A28138BDAC360020903500200CA30800FF
:100B4000CD37080000A308007137080010B5044B2A
:100B500004489847BDE810400348044B184700BFBD
:100B6000CD080800DD0A08000D0A0800F508080095
:100B7000024A034B508800F07F001847AC36002033
:100B8000392C0800154B1B681B681A79824222D940
:100B900030B4134C2360B3F802C09C44634517D2B1
:100BA000002504E01A78012513449C450CD95A7895
:100BB000042AF7D19A788242F4D1DA788A42F1D1C4
:100BC00005B12360012001E00020236030BC7047A4
:100BD000002030BC70470020704700BFD83500208F
:100BE000DC3500202DE9F0411C4C23787BB300213B
:100BF0001B4E0546B04750B3DFF86880D8F8003088
:100C00005B6853F82570FB68984723780146F3B179
:100C10002846B0470546D0B1134B144E1C68D8F88F
:100C20000020237812681C4453881A44A24206D834
:100C300008E0052B0FD023781C44A24202D9637828
:100C4000042BF6D17B6898472846BDE8F081002543
:100C50002846BDE8F081A078B047E0E7D535002010
:100C6000850B0800D8350020DC3500208D2C0800CD
:100C7000184B1B785BB32DE9F041174B054698479D
:100C800010B3164B164E1C68164F316823780A684D
:100C90001C4453881A44A24206D808E0052B0DD004
:100CA00023781C44A24202D96378042BF6D14B6806
:100CB00053F82530BDE8F0411B681847A288E17859
:100CC000A078B8470028E0D10020BDE8F0810020DE
:100CD000704700BFD5350020850B0800DC350020AB
:100CE000D83500205D2F0800014B1868704700BF01
:100CF000DC350020004B1847F52A0800F8B50C4FEA
:100D00003B787BB10B4D2B681B681B7953B10024DA
:100D10002046094EB0472B6801341B68E0B21B79AE
:100D20008342F7D80023054A3B701380F8BD00BF0B
:100D3000D5350020D8350020E50B0800D03500203F
:100D400038B50C4B1B789BB10B4D2B681A68127988
:100D500072B1002422465B68013453F822301B69CB
:100D600003B198472B68E2B2196809799142F2D829
:100D700038BD00BFD5350020D835002000232DE92F
:100D8000F0478B4C2288C4E90433B2F5E07FA3819D
:100D900000F0D08094F900202378002A0EDB13F0B5
:100DA000600F79D013F01E0F40D003F01F03022B09
:100DB00000F0B68000252846BDE8F087E588002DC4
:100DC000F8D013F0600FEDD113F01F0200F0658131
:100DD000012A40F0B98062780A2A24D1012D22D15B
:100DE000744A1278FAB1744A267917683A68127907
:100DF000B24218D900213046704B9847054600286A
:100E000000F0C5807B6853F82630DB6898470246BF
:100E10006B4801216B4B02709847CCE7012A00F028
:100E20004D81022A6CD013F01E0FC3D1A388614EEE
:100E3000022B04BF0123A3803378002BBAD05E4F6E
:100E400094F804803D682B681B79984540D322783C
:100E500002F01F02022AADD1002BABD00024A04625
:100E6000DFF858916B68013453F82850EB689847C5
:100E700033780146002B9DD040465FFA84F8C8477E
:100E8000002897D0AB689847002837D13D682B6879
:100E90001B794345E6D88DE713F01F02BED1627877
:100EA000013A082ABFD801A151F822F0930F080097
:100EB000270E08006F0F0800270E08008B1008008F
:100EC000270E0800270E0800270E0800DD0F080077
:100ED00000214046394FB847002833D06B6853F89B
:100EE0002850EB68984733780146002B3FF462AFF7
:100EF0004046B84730B3AB68984718B301255AE766
:100F00006278012A00F0F780032A06D1E28861881E
:100F10000A4392B2002A00F0C18113F01E0F85D05F
:100F2000244E3378002B3FF445AF234F3D682B68A8
:100F30001B7991E701259E212348224B984728469B
:100F4000BDE8F087237830E7022A7FF46CAF62783F
:100F5000002AE2D1022DE0D120791C4B98470246AD
:100F60001B482946174B01250280984723E7E28852
:100F7000002A7FF458AF6288022A7FF454AF154BE1
:100F80009847054618B12379002B00F0BC812378DF
:100F900008E7E288002A7FF446AF6588012D7FF4D8
:100FA00042AF0D4A138823F00203138003E700BF0A
:100FB000AC360020D5350020D8350020850B080040
:100FC000D4350020812C0800EC010020DD2C080025
:100FD000D2350020292C0800D0350020E288002AD4
:100FE0007FF421AF9C4B98470028D0D0DFF86C925B
:100FF000C847DFF86CA2A378002800F02581DAF852
:101000000820527C9A42C2D3964E337883B1964FD1
:101010003B681B681B795BB100252846DFF84C82D2
:10102000C0473B6801351B68E8B21B798342F7D89B
:1010300000228F4B1A80A3783370002B3FF45EAFF1
:10104000C8473278002800F03381DAF8103002F116
:101050000052013A03EBC2031A68834F12793B60D6
:10106000002A3FF44BAF0025824E2B4605E03A683C
:10107000126812799A427FF641AF18460021B047B4
:101080000135EBB20028F2D181E7E288002A7FF433
:10109000CAAE794B012523618DE66278062A40D0DD
:1010A000082A36D0002A7FF4BEAE022D7FF4BBAEF4
:1010B00029466F48714B984701257CE662780B2AD8
:1010C0007FF4B1AEE288002A7FF4ADAE654A1278B3
:1010D000002A3FF4A8AE2579644B284666889847D5
:1010E00000283FF454AF2846624BF1B298470028DD
:1010F0007FF404AF4BE7E28861880A4392B2002A8A
:101100007FF40BAF20795E4B984700287FF4F6AE52
:101110003DE7012D7FF487AE29465248574B98474B
:1011200049E661880A0A013ACDB20E2A3FF63AAE84
:1011300001A151F822F000BFED110800C311080011
:1011400001120800A50D0800A50D0800B711080040
:101150008D110800A50D0800A50D0800A50D0800BB
:10116000A50D0800A50D0800A50D0800A50D080097
:101170007511080021214348404B9847E388A28914
:101180009A427FF6BBAE0125A38114E6334B984704
:10119000334B002840F094809A68527CAA427FF634
:1011A000F6AE1A69354B52F8350041889847072248
:1011B000A3685A70E2E72A4A304BD0680178984712
:1011C000DCE7264B9847264B002800F090809A6871
:1011D000527CAA427FF6DBAE1A69284B52F83500E2
:1011E000418898470222A3685A70C7E71B4B98476B
:1011F000002871D11A4A214B906801789847BDE7C1
:10120000032D3FF6CFADDFE805F01A1714022021B9
:101210001D4B1E4E5D18324613F8010BAB4222F8EF
:10122000020FF9D1490002311848144B3170984728
:10123000A4E71321164BECE71521164BE9E704212F
:1012400015480E4B984799E7DAF80020527C9A42ED
:10125000BFF4DAAE9BE600BF612C0800292C080021
:1012600020030020D5350020D8350020E50B0800EC
:10127000D0350020710C0800710B0800812C08008B
:10128000B92D0800C80100209C0100208C0200201C
:10129000EC020020D4020020D00200202079324B42
:1012A00098472079314B984700287FF427AE6EE6A7
:1012B000DAF8043002F10052013A03EBC203CBE644
:1012C0001A68527CAA427FF662AE5A68284B52F8DE
:1012D0003500418898476AE710200221254B244DAC
:1012E0001A689070D17018680178A84746E71A68A4
:1012F000527CAA427FF64BAE5A681D4B52F835001D
:10130000418898476EE71C4E327892B11B4F3A687D
:10131000126812796AB199461846DFF86480C047AE
:101320003B6809F101091B685FFA89F01B79834268
:10133000F5D80022A38813491B0A013B0A803270AA
:10134000032B3FF624AEDFE803F00B0805020E4B3B
:10135000236130E50D4B23612DE50D4B23612AE51B
:101360000C4B236127E500BF89310800112D0800CF
:10137000812C080020030020D5350020D83500201E
:10138000E50B0800D0350020553208003D3208003A
:1013900019320800F531080038B5084B0446984763
:1013A000074B1A782AB901251C70064B9847284626
:1013B00038BD0025034B9847284638BD99150800CD
:1013C000E0350020D91508000022014B1A70704743
:1013D000E0350020014B1878704700BFE035002051
:1013E00010B51120044CA0471020A0472346BDE8AB
:1013F00010404C20184700BF0516080010B51120FA
:10140000054CA0471020A0474C20A047BDE8104045
:101410005320024B184700BF051608002517080087
:1014200010B51120034B9847BDE810405320024BE4
:10143000184700BF4D16080041170800C0F3090304
:1014400010B50446ABB1B3F5007F03D0C4F3080474
:101450003CB110BD1120094BC4F308049847002C7F
:10146000F7D1064C1020A0472346BDE810404C2081
:1014700018471120024B9847E8E700BF05160800FF
:101480004D16080010B54FF060510D4C1120A047CB
:101490004FF060511020A0474FF060514C20A04702
:1014A0004FF040515320A0475320064B9847BDE8CA
:1014B00010404FF000624FF4C0510348034B1847EF
:1014C0005D17080041170800000C0E405518080071
:1014D0004FF4004210B5064B064C5A650A20A0474F
:1014E0000B20A0470C20A047BDE81040024B184736
:1014F00000120E406D1A08008514080038B5A1F1DD
:101500000E03012B17D9EFF3108572B6BFF35F8F6F
:1015100000230A4CC9B22370094B03EA022211438B
:10152000084B41F0B441984725B901232370BFF31C
:101530005F8F62B638BD4FF0FF3038BD0403002026
:1015400000FFFF008D000020FEE700BFF0B504267D
:1015500087B004460D460F220E210C480C4F02ABFB
:101560000096B84770B9042D26462A46044628BF7F
:10157000042225B13046074B02A992009847204625
:1015800007B0F0BD1024204607B0F0BD00080E40A3
:1015900001000020DD3308000C4B1A6822B9EFF37C
:1015A000108129B10A490A701A6801321A6070471D
:1015B00010B472B6BFF35F8F0120064C044A21704D
:1015C00010701A6801321A6010BC7047E4350020B0
:1015D000E835002004030020074B1A68013A1A601E
:1015E0001B6843B9054B1B782BB10122044B1A70C1
:1015F000BFF35F8F62B67047E4350020E835002006
:10160000040300202DE9F041112305460C4CAB42A8
:101610000C4FDFF8348004F1100605D0B4420AD034
:1016200054F8083FAB42F9D163682846012B04D037
:10163000B847B442F4D1BDE8F081C047EEE700BF3F
:1016400018A3080025170800411708002DE9F041EC
:10165000112305460C4CAB420C4FDFF8348004F1EB
:10166000100605D0B4420AD054F8083FAB42F9D175
:1016700063682846012B04D0B847B442F4D1BDE8D2
:10168000F081C047EEE700BF18A30800411708002B
:1016900025170800F8B5124B04460E469847114B23
:1016A000054620469847054019D00F4C04F16007C5
:1016B0002368B34205D0BC4211D023691034B34231
:1016C000F9D161682942F6D0E368304698476368EB
:1016D000BC4225EA030502D01034002DE8D1F8BD44
:1016E0001D17080021170800EC3500200A210148C9
:1016F000014B1847000C0E40951608000B210148BD
:10170000014B1847000E0E40951608000C210148A9
:10171000014B184700100E4095160800C06C70472A
:10172000806C70470122430903F5001303F206732E
:1017300000F01F005B0202FA00F01863704700BF60
:101740000122430903F5001303F2067300F01F00A2
:101750005B0202FA00F05863704700BF430903F5CB
:10176000001301F0F04203F20673B2F1205F4FEA7A
:10177000432335D010B416D8B2F1006F1BD0B2F1AC
:10178000805F15D14FF0010C00F01F000CFA00F241
:101790005A64186F1043186711EA0C005A601BD086
:1017A0005A6610BC704701F0E042B2F1405F2FD0A2
:1017B000002010BC70474FF0010C00F01F000CFA25
:1017C00000F25A64186F1C6F204020EA020018676C
:1017D00011EA0C005A60E3D11A66604610BC7047EB
:1017E000012200F01F008240C8075A644CBF5A66AD
:1017F0001A6611F00A0F14BF1A625A62880722D4BF
:10180000080748BFC3F8842001205A611A60704756
:10181000012200F01F00824001F0605CC1F38004EF
:10182000C9075A644CBF5A661A6654B95A65BCF166
:10183000605F0CBF1A635A631A611A60012010BC02
:1018400070471A65F3E7C3F8802001205A611A60D7
:10185000704700BF034602F0F040B0F1205F29D08E
:1018600010B410D8B0F1006F15D0B0F1805F0FD177
:101870005964186F0843186712F00100596015D0B9
:10188000596610BC704702F0E040B0F1405F25D0CF
:10189000002010BC70475964186F1C6F204020EA6C
:1018A0000100186712F001005960E9D119660120A2
:1018B00010BC7047D00759644CBF5966196612F0C6
:1018C0000A0F14BF1962596290071ED4100748BF4F
:1018D000C3F88410012059611960704702F060500C
:1018E000C2F38004D20759644CBF5966196654B9D3
:1018F0005965B0F1605F0CBF1963596319611960D4
:10190000012010BC70471965F3E7C3F8801001206F
:1019100059611960704700BF15490B6B23F0030331
:1019200043F001030B638B6E1B0758BF4FF400633A
:1019300002D504E0013B16D08A6E1207FAD50C4995
:101940000B6B23F0700303430B63886E10F00800E9
:1019500008BF4FF4006302D007E0013B03D08A6E5A
:101960001207FAD57047012070470020704700BF6A
:1019700000040E4015490B6B23F0700303430B6307
:101980008B6E1B0758BF4FF4006302D504E0013B88
:1019900017D08A6E1007FAD50C490B6B23F003039E
:1019A00043F002030B63886E10F0080008BF4FF489
:1019B000006302D007E0013B03D08A6E1207FAD51C
:1019C0007047012070470020704700BF00040E40A0
:1019D000074A0302116A9BB221F003010B4343F44F
:1019E0005C1343F001031362936EDB07FCD5704771
:1019F00000040E40024B986E00F00100704700BFDB
:101A000000040E40024B986E00F48030704700BF17
:101A100000040E40084B1B6A30B1074A43F0807344
:101A200043F45C1313627047034A23F0807343F45A
:101A30005C131362704700BF00040E404FF0005269
:101A4000014B9A62704700BF00040E40024B986E33
:101A500000F00200704700BF00040E40024B986E79
:101A600000F04000704700BF00040E401D280AD857
:101A70000123064A83409169002033EA010101D025
:101A80001361704770470120704700BF00040E408B
:101A90001D280AD80123064A83409169002033EAB1
:101AA000010100D07047536170470120704700BFAB
:101AB00000040E40034BC0F312001A6F1043186766
:101AC000704700BF00040E402DE9F041A0B9002A84
:101AD00090460DDD0C460A4F0A4E8D182146386897
:101AE000336801349847AC42F8D14046BDE8F081F4
:101AF00080464046BDE8F0814FF0FF38F5E700BF73
:101B0000C83600205C360020024B187880F00100B7
:101B1000704700BF6036002001EB810100EB8101BE
:101B20000A67704701EB810100EB81014A6770474A
:101B300001EB810100EB81018A67704701EB8101B4
:101B400000EB8101C1F88020704700BF1749184899
:101B500008B5814209D0174A904206D2013A121ABA
:101B600022F00302144B043298471448144A90425E
:101B700007D2013A121A22F003020021114B04325B
:101B80009847114B114923F0604203F1604322F062
:101B90007F02B3F5404F8A6003D28B6843F0005355
:101BA0008B600B4B98470B4B9847FEE7ACA70800A0
:101BB00000000020580D0020DD330800580D0020E3
:101BC00014370020C93408000000080000ED00E0D0
:101BD0006D3308002D0208000C4A034610680C49BA
:101BE00030B103448B42CCBF4FF0FF3013607047DD
:101BF00010B4084C23448B421460D8BF13602046B5
:101C0000C8BF4FF0FF3010BC704700BF6C360020DB
:101C1000FC3F0820003008204FF0FF30704700BF25
:101C20004FF4005300204B60704700BF0120704705
:101C300000207047014608B50148024B9847FEE76F
:101C400030A30800B5330800704700BF4FF0FF30E5
:101C5000704700BF10B53E20074B9847074CA04780
:101C60000028FCD04FF47102054B064CDA61A04706
:101C70000028FCD010BD00BFD1190800F5190800DC
:101C800000040E405D1A080070B51248124DA847B6
:101C90003E20124B9847124CA0470028FCD04FF032
:101CA0008070104B9847104CA0470028FCD00F4B79
:101CB00098470F4B0F4A104C9A62A0470028FCD05F
:101CC0000E4B102098470E4B98472B46BDE87040AE
:101CD0000048184700D8B80531010020D119080084
:101CE000F5190800151A0800051A08003D1A080021
:101CF00000040E40013F0F204D1A0800751908001E
:101D0000051D0800314A136B03F00303012B2CD08F
:101D1000023B012B1ED8136AD90138D52C482D4B14
:101D200003602A4A136B03F00303022B3CD02A4BB7
:101D300026490A6B02F07002702A05D00A6BC2F3C2
:101D40000212D34003607047244AA2FB03235B08BE
:101D500003607047224B1E485B6A13F0800F14BF6C
:101D60004FF400434FF4FA43E2E7136ADB010BD46C
:101D7000126A02F07002102A21D0164B1949144839
:101D8000202A18BF0B46D3E7124B1148D0E7154B5A
:101D90000F480360136A03F07003102B12D0202B3E
:101DA000BFD10C4B0360BCE7916A0368C1F30A41E1
:101DB00001FB0333926AD2B2B3FBF2F3B8E70A4BEA
:101DC0000348B5E7084B0360ABE700BF00040E40D3
:101DD00008030020001BB700001C4E0EABAAAAAAE5
:101DE00000120E4000093D0000127A00AC2303608F
:101DF0000246D1E90030B3FBF0F34FF6FE7C1B093D
:101E0000581E60450CD830B440F2022550241362AD
:101E10008B6800205360C2F82051146030BC7047BA
:101E20000120704703464269920746BF0020D961EE
:101E3000012070474369DB0743BF836900200B70B3
:101E400001207047014B1878704700BF70360020A2
:101E5000024B1B7803B17047014B184770360020C6
:101E600079090800084B93F900201B78002A03F039
:101E7000600303DB402B05D000207047402BFBD1D3
:101E8000024B1847024B1847AC360020D509080012
:101E900085090800064B10B59847064AC3781370A9
:101EA0000BB1012010BD044BBDE81040184700BF26
:101EB000E90C0800703600205109080030B584464E
:101EC000154683B00B4662460021034C00958120E5
:101ED000A04703B030BD00BF852E080030B5844652
:101EE000154683B00B4662460021034C0095022044
:101EF000A04703B030BD00BF852E080090F814C085
:101F000003461CF0010F16D030B404686FF3000CC8
:101F100080F814C06CB1084D084602F1080149016F
:101F20006958090748BF42F080029968234630BCCF
:101F3000184730BC7047704700400A402DE9F04315
:101F4000431E664C03EB430104EBC10191F814C03E
:101F50001CF0010F39D00246D1E90250A8424FEAE5
:101F6000430634D02D1AB5F5803F4FEA421C47D8BE
:101F70000CF1402E0EF5202EDEF800812F0418F013
:101F8000080F72D0DEF800814FF0080E08F0070845
:101F90000EFA08FE0EF1FF3E1EEA050F00F09A80D1
:101FA00091F814E047F029076FF3410E81F814E02F
:101FB00033E04FF400644FF480734948C1F80441A2
:101FC00003FA02F203691A430261BDE8F0834FEAA3
:101FD000421C0CF1402101F52021D1F8000100073D
:101FE00005D5F01804EBC000007D8707E1D43D4D16
:101FF000F01804EBC0002B46BDE8F0430021184761
:102000000CF1402101F52021D1F800512D0735D5E3
:1020100021274FF48035D1F8001106EB030E04EBB5
:10202000CE0EDEF8041008442F4901EB021148607F
:10203000EFF3108872B6BFF35F8F4FF000092B48A3
:1020400080F80090D1F80C9019F0100F20D0B8F162
:10205000000F04D101210170BFF35F8F62B6F11848
:1020600004EBC101C8688860B3E7DEF80011C1F372
:102070000111012925D047F03507CEE7D1F80051ED
:10208000C5F30115012DC3D035274FF48035C4E7C2
:102090004FF000728F6002FA03F3DEF80C20CEF8E6
:1020A000105015440E4ACEF80C5011690B431361C1
:1020B000B8F1000F89D101230370BFF35F8F62B6BF
:1020C00083E7DEF8001101F0070E082101FA0EF196
:1020D000A942D0D247F021079FE700BF7C360020FD
:1020E00000400A40FD1E080000430A40040300208F
:1020F0002DE9F047EFF3108372B6BFF35F8F002036
:102100004FF48061594D5A4A2870C2F8081123B91A
:1021100001232B70BFF35F8F62B6DFF8588198F808
:102120000030032B63D0544F544E3A88B489A41A1C
:10213000A4B2002C38D01346DFF844913F2C86BF60
:1021400000224024012289F80020B268EFF31086B3
:1021500072B6BFF35F8F002129704549D1F81C1179
:10216000890539D454B11A44464B1846013312F844
:1021700001CBD9B2A14280F800C0F6D34FF48062FF
:102180004FF400613B881C44394B3C80C3F8182154
:10219000C3F81411C3F8042126B901232B70BFF32F
:1021A0005F8F62B6BDE8F0873749F0880B8813442B
:1021B0009BB298420B8040D0DFF8C49099F800A001
:1021C000BAF1000F39D17369002B33D0984700283A
:1021D00047D101223B88B6E726B901232B70BFF314
:1021E0005F8F62B6042388F80030BDE8F087234E85
:1021F000336903B19847EFF3108372B6BFF35F8F73
:1022000000204FF480611A4A2870C2F8081123B9DF
:1022100001232B70BFF35F8F62B600234FF4007170
:10222000134AC2F81811C6E90433B38188F80030A4
:10223000BDE8F0871346012285E7042388F80030C3
:10224000EFF3108172B6BFF35F8F4FF4804200202E
:10225000074B2870C3F81821C3F804210029A1D125
:102260009BE73C805346B48968E700BF0403002025
:1022700000400A407836002074360020AC3600203A
:102280007136002000001820763600202DE9F0413C
:102290009B4B1D2098479B4B984728B99A4B5B69ED
:1022A00013F0020300F09680974B5A69120700F171
:1022B00082805A69560700F18780D3F81C2159693A
:1022C000CD0521D54FF480404FF40041D404C3F82C
:1022D0000801C3F8081100F1AC80500504D5D3F80B
:1022E0000C31590500F14D82930500F147819704A7
:1022F00004D54FF40051844BC3F81811160400F1B3
:102300006D81540400F1CB8001234FF000754FF430
:1023100080767D4A106903F1FF3E05FA0EF108420E
:10232000DFB203D05069014240F0CE80116906FA55
:1023300003F0014202EB431417D0D4F80C11A44669
:1023400011F4006F05D0D4F81C1111F4006100F0F5
:102350003583DCF80C114F0307D5DCF81C1111F4A0
:10236000402FC1F3814400F0E980022B39D1664946
:102370004C6914F0100440F07E810A69900735D54D
:102380004A69920732D520228A610A691D2022F00B
:1023900002020A610A695D4D42F020020A618B6106
:1023A000A8475B4B98475B4A1378002B40F0BF82ED
:1023B0000023137013E008229A615B69DF0712D5CE
:1023C000BDE8F041544B184704219961534ABDE8D8
:1023D000F041104772B6BFF35F8F514A1370BDE8EA
:1023E000F081022396E74D4B9847E9E7464B5B693E
:1023F0009B06F4D5474A1378002B00F0798202241B
:1024000001252020404B15709C6198611A6945494F
:1024100022F020021A611A6922431A611A6942F0F5
:1024200008021A611A6942F004021A61BDE8F0411B
:1024300008473D4D2B7803B33C4C236903B19847C3
:10244000EFF3108272B6BFF35F8F00214FF480600C
:10245000334B19702C49C1F8080122B901221A70B6
:10246000BFF35F8F62B600234FF40071264AC2F8B3
:102470001811C4E90433A3812B70234AD2F81C310C
:10248000C3F30A53082B00F0BC80052020214FF431
:1024900080532870C2F81411C2F818319FE74FF426
:1024A0008043194AC2F81831D2F81C3113F4007372
:1024B00095D11D480178012900F04D8204298ED163
:1024C0002023C2F814318AE7194800EB0313D868B7
:1024D000C00784D4106920EA01011161DB681B0C7C
:1024E00008D0144A0EEB4E0E02EBCE02D168CB1A86
:1024F000C2E902333846BDE8F0410F4B184700BF30
:102500006D1A0800091B080000400A40911A0800D3
:102510001D090800723600202D090800410D080031
:10252000040300202509080078360020AC3600207E
:1025300000430A407C3600203D1F08004FF48023F2
:1025400020254021CCF8083113690EEB4E0E23EA0A
:102550000000B34B106103EBCE0E9EF8143064F311
:1025600082038EF81430DCF8083123F00203CCF833
:102570000831CCF81451CCF8181130E7A94D2B785C
:10258000012B00F00281022B00F03781042B00F0B8
:10259000348105212022A44BA44C2970C3F81421B6
:1025A000EFF3108272B6BFF35F8F00214FF48060AB
:1025B0009F4B19709C49C1F8080122B901221A7079
:1025C000BFF35F8F62B600234FF40071964AC2F8E2
:1025D0001811C4E90433A3812B7000E74FF40042C3
:1025E000914BC3F81821D3F81C2155053FF5F7AEE0
:1025F0008C4A1278032A7FF4F2AE2022C3F8142109
:10260000EDE68C4A8C4B8D4819460133097883429C
:1026100002F8011FF8D18A4B9847002800F0F48097
:102620004FF48051804B814AC3F8181192F9001081
:102630000029C0F27181D288002A00F0AD81002209
:1026400001244FF480417F482C7002807E48028034
:10265000C3F81811EFF3108572B6BFF35F8F74489B
:102660000270C3F80411002D7FF4B9AE0470BFF3FB
:102670005F8F62B6B3E61022694C237D8A6113F046
:1026800001020DD025686FF30003237545B1D1F821
:102690002031012013F0080F18BF8122A168A8473C
:1026A00094F82C30DD0710D5A5696FF3000384F88A
:1026B0002C3055B15C4B0120D3F84031216A13F026
:1026C000080F14BF82220222A847604B98470120BE
:1026D000554B1A6822F07F021A601A6842F0800295
:1026E0001A60D3F8002122F47F7222F0030242F034
:1026F0004302C3F80021C3F80401EFF3108472B65B
:10270000BFF35F8F4FF48052002549490D70C3F825
:1027100004214FF40072C3F804211A6942F4807254
:102720001A611CB90870BFF35F8F62B6EFF31083B4
:1027300072B6BFF35F8F00244FF480603A4A0C708A
:10274000C2F8080123B901230B70BFF35F8F62B693
:1027500000224FF40074344B344832490261C3F80C
:1027600018410A701969426141F00801196119693B
:10277000828141F0040119611A6942F002021A6172
:102780002DE6334BBDE8F0411847274B2E4FD3F8C9
:102790001C61264C3B88B4F80CC0C6F30A569A1943
:1027A0009445ACBF1FFA82FCACEB0306A268B8BF2D
:1027B000B6B21A44002E00F012811F4B18460133A6
:1027C0000078D9B2B14202F8010BF7D3402EA7F836
:1027D00000C067D06369A4F80CC0002B3AD09847BA
:1027E000002837D1052020214FF400720E4B2870AD
:1027F000C3F81411C3F81821F1E50C4C2369002B20
:102800003FF4CEAE9847CBE6052020214FF480520E
:10281000054B2870C3F81411C3F81821DFE500BF79
:102820007C3600207836002000400A40AC3600207C
:1028300004030020AB3600200000182008001820F8
:102840007D0D08007636002074360020FD0C08004F
:10285000F12008004FF4007103226A4BC3F81811ED
:102860002A70EFF3108472B6BFF35F8F00256648BD
:102870004FF4806105704FF400424FF40065C3F8D7
:102880001811C3F81451C3F80411C3F81821C3F880
:102890000421002C7FF4A3AD01230370BFF35F8FED
:1028A00062B69CE5594EE288338863449A4291DDD2
:1028B000A389634500F096804FF400714FF4804285
:1028C000504BC3F81811C3F81821EFF3108072B6FB
:1028D000BFF35F8F00244C490C70C3F8042100281B
:1028E0007FF47DAD01230B70BFF35F8F62B676E599
:1028F000EFF3108472B6BFF35F8F4348444903700F
:102900008B7801338B70002C7FF479AD0123037039
:10291000BFF35F8F62B672E5002302213B4C3D4856
:102920002380038029703C4ABDE8F0411047EFF353
:10293000108572B6BFF35F8F3348354904708B78CA
:10294000013B8B70002D7FF433AD01230370BFF387
:102950005F8F62B62CE503240470EFF3108572B626
:10296000BFF35F8F284C4FF4806023704FF40066F4
:102970004FF40043C2F81801C2F81461C2F8040110
:10298000C2F81831C2F80431002D7FF428AD21704F
:10299000BFF35F8F62B622E503212970EFF3108445
:1029A00072B6BFF35F8F4FF4806117484FF4006534
:1029B00002704FF40042C3F8181162E74FF400634D
:1029C000164D1748C4F808310EEB4E0EC4F81431FA
:1029D0003A462B4600EBCE00BDE8F0411847A7F879
:1029E00000C0F7E66369002B3FF4FCAE984700286F
:1029F0003FF4F8AE0022338839883A800B443380A4
:102A00005AE700BF00400A40040300207636002049
:102A10006436002074360020F1200800FD1E0800F6
:102A20007C3600202DE9F041EFF3108672B6BFF33B
:102A30005F8F0021294B2A4C1A782170002A3BD045
:102A40000125284A1D201D704FF0080890470227D5
:102A50004FF0040E4FF0100C2021234B1D201A685C
:102A600042F400621A601A6822F400721A601A694D
:102A700042F010021A611A6942F002021A611A69E0
:102A800042F020021A611A6942F008021A611A69BA
:102A900042F004021A61C3F81880144AC3F818E01F
:102AA000C3F818C09F61996190471EB92570BFF3A4
:102AB0005F8F62B6BDE8F081EFF3108072B6BFF3AE
:102AC0005F8F0B4922708A7801328A700028B7D153
:102AD00001222270BFF35F8F62B6B1E77236002029
:102AE000040300206D1A080000400A40911A0800F3
:102AF00064360020F8B5254B9847254B1D20984794
:102B0000EFF3108672B6BFF35F8F00244FF0500EC4
:102B10004FF0005C1F4A204D117D204B21F0050134
:102B2000117592F82C102C7021F0050182F82C10F0
:102B30001A681B4F42F480721A6087F81DE3C7F8C9
:102B400000C0D3F8E0204FF4802022F00302C3F845
:102B5000E020144B9847144B1C70EFF3108172B6B1
:102B6000BFF35F8F114A2C70D3780133D37021B932
:102B700001232B70BFF35F8F62B60D4B984726B9C8
:102B800001232B70BFF35F8F62B6F8BD551C0800A0
:102B90006D1A08007C3600200403002000400A4023
:102BA00000E100E0B51A080072360020643600200B
:102BB000252A080010B5164B1D209847154B1D20DF
:102BC0001A68154942F400721A601A6822F4006209
:102BD0001A608847114B1A7812B900221A7010BD7A
:102BE000EFF3108472B6BFF35F8F4FF0000C0C4907
:102BF0000C488A78013A8A7080F800C0002CECD129
:102C000001220270BFF35F8F62B600221A7010BDFE
:102C10006D1A080000400A40911A08007236002020
:102C20006436002004030020024B586900F00100C4
:102C3000704700BF00400A40084B00F07F001A6850
:102C400022F080021A601A6822F07F0202431A60A2
:102C50001A6842F080021A60704700BF00400A40C4
:102C6000024B186800F07F00704700BF00400A4028
:102C7000024B5868C0F3CA00704700BF00400A40CA
:102C8000014B986099817047AC36002000F00F022C
:102C9000022A00D97047012138B5530103F14025BC
:102CA00005F520252B46541EC5F80811D5F800510E
:102CB00004EB4400074C25F0C00504EBC004C3F846
:102CC00000512046044B9847237D6FF38203237500
:102CD00038BD00BF7C360020FD1E080000F00F004C
:102CE000430103F1402303F52023D3F81C319B0655
:102CF00009D4064B013800EB400003EBC000007D17
:102D0000C0F3800070470120704700BF7C36002070
:102D100000F00F03022B2CD830B5254D590105EBDF
:102D2000431EDEF81C21920621D4224C5A1E02EBCF
:102D3000420204EBC20C9CF8144014F0040216D1B9
:102D4000E40718D4020618D44FF40055202401F1EA
:102D5000402303F52023D3F80821012022F00202AA
:102D6000C3F80821C3F81851C3F8144130BD01203D
:102D700030BD00207047104630BDDEF81C2112F433
:102D8000402FE1D04FF480244FF480729CF814104F
:102D9000012041F004018CF8141003F1080105EB47
:102DA00041114C60296902FA03F30B432B6130BDDA
:102DB00000400A407C36002000F00F0002285AD85C
:102DC00070B500F1FF3C2D4C0CEB4C0104EBC10144
:102DD0000B7D4FEA4C025D0726D54FF480264FF459
:102DE000807E0B7D0EFA00FE6FF382030B75244983
:102DF000430101EB4015C5F80861086920EA0E009F
:102E00000861D5F81C118D0617D402EB0C0304EBF6
:102E1000C302117DDB00C80704D56FF30001E3583E
:102E200011759847012070BD430103F1402101F560
:102E30002021D1F81C118906F4D503F1402101F5B8
:102E40002021D1F81C01860406D54FF40050C1F8AA
:102E500018014020C1F81801202003F1402101F59C
:102E600020210B46C1F81801D1F8041141F00201EC
:102E7000C3F80411C9E70020704700BF7C3600206A
:102E800000400A4000F00F00022857D82DE9F04119
:102E90004FEA401C0CF1402C0CF5202CDCF80C41C6
:102EA000E50748D5DCF81C41A40644D4451E284E4D
:102EB00005EB450C06EBCC0C9CF814406F0014F0AD
:102EC000040E38D1EFF3108472B6BFF35F8FDFF8D2
:102ED000848088F800E09CF814E01EF0010F29D1EE
:102EE0009CF814E04EF0010E8CF814E02CB901248B
:102EF00088F80040BFF35F8F62B64FF0000CDDF83A
:102F000018E07C1946F834E006EBC404C4E9012358
:102F1000C4E903CC11B9B3FA83F149097B1906EB73
:102F2000C3031A7D61F341021A750B4988470120DA
:102F3000BDE8F08124B10020BDE8F0810020704799
:102F4000012388F80030BFF35F8F62B62046F3E7B5
:102F50007C360020040300203D1F08002DE9F04FBF
:102F600000F00F04022C85B000F2D480650105F159
:102F7000402606F52026D6F80C7117F0010740F020
:102F8000C98001F0030CBCF1010F00F0C780ACF167
:102F9000020CBCF1010F00F2BD8012F4C05E40F0E3
:102FA000B980F44605F1402606F52026D6F8003112
:102FB00010F0800F18BF0827090123F47F73B2F5C2
:102FC000806F01F0300023F0030380F0BA80082AFC
:102FD00038BF08225200013AB2FA82F2C2F11C0252
:102FE000BEF1000F01D040EA0C2003433B431343E2
:102FF00043F04003C6F80031D6F80031002B80F2D0
:1030000089804FF0010C022300255C4FC6F804C1F3
:1030100007EB4310D0F80C115E1EC9074FEA4312AC
:1030200014D502F1402202F52022D2F800115B00F3
:10303000C0F808C1C1F3811101FA03F3D2F80011FD
:103040002B4321F0C0019DB2C2F80011F3B29C42A3
:10305000DED94B4F04EB4406E0B2864607EBC606CA
:1030600007E001345FFA84FEBEF1020F06F1180694
:1030700069D804F1FF38620008EB480C45FA02F207
:1030800007EBCC0C4FEA480312F00302F3460CF1B5
:1030900010090393E5D0630103F1402303F52023D6
:1030A000D3F800119CF8140021F0C00141EA82120B
:1030B000C3F8002101228246C3F80421D3F800217D
:1030C0006FF3000A002A00F0010089F804A03FDA3B
:1030D000D3F8042142F00202C3F804210028C0D032
:1030E00056E9033256F8101C56F814CC11449A1ABB
:1030F00046F80C2CCB1A624499F8041056F818CCF8
:103100007046CDF800C0C1F34001DFF878C0E04759
:103110000028A6D1002005B0BDE8F08F002C3FF4B8
:103120003CAF02F4C053B3F5006F0ED0B3F5805F2F
:1031300008BF4FF0030C22F4C0524FF0010E92B2C0
:1031400030E707224CE70120E5E74FF0020CF2E7F9
:10315000DCF80030002BDDD0084A08346401125935
:1031600001201207039A48BF4EF0800B424407EB40
:10317000C207F9685A469847CCE700BF00400A40AA
:103180007C360020852E08000021174B00F00F022E
:1031900003EB0213000610B499600AD4134C1448D0
:1031A000531E03EB430300EBC3000121234610BC75
:1031B0001847530103F1402303F52023D3F81C11D2
:1031C00011F4402FEAD04FF4007403F58A7CCCF858
:1031D0000040D3F81C118905FBD4D3F81C1111F45D
:1031E000402FF4D1DAE700BF00430A40FD1E08007B
:1031F0007C360020074AD2F8E03023F0030343F086
:103200000203C2F8E030D2F8E03043F00403C2F821
:10321000E030704700400A40074AD2F8E03023F01F
:10322000030343F00203C2F8E030D2F8E03043F089
:103230000803C2F8E030704700400A40044AD2F860
:10324000E03023F0030343F00203C2F8E03070479C
:1032500000400A402DE9F0438FB06E464FF001095F
:10326000EC46224FDFF888800FCF0FC60FCF0FC676
:103270000FCF0FC697E8030046F8040B3170C8F86B
:103280000891D8F80031CCF1005423F47F7323F077
:10329000030343F06B03C8F80031C8F80491D8F871
:1032A000E0304FF0000E23F0030343F00203C8F8B0
:1032B000E030D8F8E0300DAD43F0100304F5C01451
:1032C000C8F8E03001E01CF801EFAC4504F80CE070
:1032D000F9D14FF480614FF40062054BC3F8181127
:1032E000C3F814210FB0BDE8F08300BF4CA3080061
:1032F00000400A4003464269920743BFC1F30801F8
:103300000020D961012070474369DB0705D5836937
:103310000020C3F308030B6070470120704700BF13
:10332000013802281AD8DAB12DE9F0410D461446C9
:103330000C4FDFF83480561C01E0013C0BD038689C
:10334000D8F8003015F8011B98470028A6EB0402B6
:10335000F3DA4FF0FF321046BDE8F0814FF0FF3254
:1033600010467047C8360020C436002070B50D4E98
:103370000D4D761BB61006D0002455F8043B0134E1
:103380009847A642F9D1094E094D07F0F9F9761B85
:10339000B61006D0002455F8043B01349847A642E5
:1033A000F9D170BD8CA708008CA7080094A708006D
:1033B0008CA708000FB400B5074A83B004AB1068AF
:1033C00053F8042B8168019301F0C2FF03B05DF84C
:1033D00004EB04B0704700BFAC030020844641EA10
:1033E000000313F0030349D1403A23D30B68036071
:1033F0004B6843608B688360CB68C3600B69036173
:103400004B6943618B698361CB69C3610B6A03625A
:103410004B6A43628B6A8362CB6AC3620B6B036342
:103420004B6B43638B6B8363CB6BC3634030403127
:10343000403ADBD230320BD30B6803604B684360F9
:103440008B688360CB68C36010301031103AF3D2C0
:103450000C3205D351F8043B40F8043B043AF9D24E
:10346000043208D0D2071CBF11F8013B00F8013B21
:1034700001D30B8803806046704700BF082A13D32E
:103480008B07B1D010F00303AED0C3F10403D21AFE
:10349000DB071CBF11F8013B00F8013BA4D331F856
:1034A000023B20F8023B9FE7043AD9D3013A11F8D6
:1034B000013B00F8013BF9D20B7803704B78437065
:1034C0008B78837060467047830730B548D0541EB0
:1034D000002A3FD00346CAB201E0013C3AD303F8C8
:1034E000012B9D07F9D1032C2DD9CDB245EA052535
:1034F0000F2C45EA054536D9A4F1100222F00F0C35
:1035000003F1200EE6444FEA121C03F1100242E9D7
:10351000045542E9025510327245F8D10CF101020E
:1035200014F00C0F03EB021204F00F0C13D0ACF1EB
:10353000040323F003030433134442F8045B93426F
:10354000FBD10CF003042CB1CAB21C4403F8012BCC
:103550009C42FBD130BD64461346002CF4D1F9E700
:1035600003461446BFE71A46A446E0E700294FF495
:1035700080630CBF0222002200F000B82DE9F04366
:10358000694C0E46D4F80080174604461D4683B0A9
:10359000B8F1000F03D0D8F83830002B77D0022FC5
:1035A00005D0012F00F2AC80002DC0F2A980636E1F
:1035B000DA0752D52146404603F0E2FE216B41B1C5
:1035C00004F14003994202D0404604F089F80023F8
:1035D00023630023B4F90CC0A3611CF0800F636067
:1035E00064D12CF44A6C2CF0030C022FA4F80CC00C
:1035F0006AD001AB214640466A4604F08FFBA3899E
:103600001843A081002D2FD0002E2ED0D8F83830AE
:10361000002B38D0009BC4E90465AB42B4F90C30F0
:1036200026601CBF43F40063A381012F04BF43F055
:103630000103A3819AB213F008032CD0D1075DD502
:1036400000216D42A561656EA16015F0010527D0CE
:103650000025284603B0BDE8F083A3899B05A9D4C3
:10366000A06D04F0E7FAA5E7009D284604F086FB6C
:103670000646002847D0A38943F08003A381D8F8E9
:103680003830002BC6D1404603F0AEFEC2E74046BC
:1036900003F0AAFE83E7A360656E15F00105D7D19C
:1036A000930524D5284603B0BDE8F0834046216940
:1036B00004F016F8B4F90CC0022F2CF44A6C2CF06C
:1036C000030CA4F80CC094D100250021012204F1C0
:1036D000430323602361636E4CF0020CD807A4F807
:1036E0000CC0A1606261DDD41CF4007FDAD1A06D52
:1036F00004F0A2FA284603B0BDE8F083A560CBE74A
:103700004FF0FF35CEE7DDF80090A94504D04846DC
:1037100004F034FB064620B94FF0FF35B4F90CC075
:10372000D3E74D46A7E700BFAC0300200EB430B589
:1037300004466FF000459CB00B4A1FAB0B49059245
:1037400053F8042B086802A9CDE9013407950495C4
:10375000069400F06FF80022029B1A701CB0BDE8BE
:10376000304003B0704700BF0802FFFFAC030020E9
:1037700020F0030110F00300C0F1000051F8043BF9
:1037800000F1040C4FEACC0C6FF000021CBF22FACF
:103790000CF213434FF0010C4CEA0C2C4CEA0C4C8D
:1037A000A3EB0C0222EA030212EACC1204BF51F886
:1037B000043B0430F4D0C2F1000102EA0102B2FA83
:1037C00082F2C2F11F0200EBD200704730B540EA2E
:1037D0000104A30722D1032A20D90B4684461946A7
:1037E00053F8045BA5F1013424EA050414F0803F8A
:1037F00015D1043A032A19464CF8045BEFD801F1BD
:10380000FF3E52B163461EF8011F541E03F8011B10
:1038100041B122469C46002AF4D130BD844601F1D4
:10382000FF3EEEE76244002CF7D003F8011B934201
:10383000FBD130BD2DE9F04FD5B00C460C9191462F
:103840000E930A9004F0EEF9036818461793FFF7F9
:103850008FFFA3891690190603D52369002B00F06A
:103860008F8700242BAB224698464D46CDE929444C
:103870002893129400230024CDE914342B78CDE949
:103880001922CDE91B2218920892002B00F0CE815C
:10389000AA4604E01AF8013F002B00F00981252B0D
:1038A000F8D1BAEB050640F007819AF80030002BFA
:1038B00000F0BC8100234FF0FF324FF02B09202491
:1038C0001F469AF8016007920AF1010A8DF88330C9
:1038D00009930AF1010AA6F120035A2B00F2208174
:1038E000DFE813F0CA021E011E01C5021E011E01FF
:1038F0001E01A3021E011E016A00F3021E014702FF
:10390000D9021E01D4025B005B005B005B005B0020
:103910005B005B005B005B001E011E011E011E01BF
:103920001E011E011E01B0011E010B027A00B00132
:10393000B001B0011E011E011E011E019E021E01EA
:103940001E01B6001E011E011E0119021E014C02BD
:103950001E011E013F071E011E011E011E011E0148
:103960001E011E011E01B0011E010B027C00B001F0
:10397000B001B00191027C0075001E0184021E019D
:103980007002B8005E0275001E01190272001C0769
:103990001E011E011F071E0172000022A6F1300346
:1039A0001AF8016B02EB820203EB4202A6F130032C
:1039B000092BF5D909928EE70E9B53F8042B002AA8
:1039C00009920E93C0F2D2819AF8006081E79AF8CA
:1039D000006047F020077CE747F01007BA060E9B0F
:1039E00040F17D81073323F007031A465B6852F8E4
:1039F000084B99460E92002BC0F27F85079B01333E
:103A000001F0398054EA090327F0800B00F00585A6
:103A10000A2C79F1000380F0938701235F4630344C
:103A20008DF84F410B930DF24F15079A0B99002318
:103A30008A42B8BF0A4606929DF883200D930F93E1
:103A400013931093002A7CD0069B0133069378E0F1
:103A500047F0100717F0200900F032810E9B073362
:103A600023F00703D3F8049053F8084B0E93002378
:103A700027F4806B00228DF88320079A511C00F0F8
:103A80002A8254EA09012BF0800740F02382002AA1
:103A900041F02B80002B40F0C5841BF001030B93F9
:103AA00000F0548530230DF24F158DF84F31BCE7EF
:103AB000BAEB050600F0BA802A9BC8E900563344E9
:103AC0002A93299B0133072B299305DC08F1080869
:103AD000089B33440893E8E60C990A9828AA05F055
:103AE00009FB80B90DF1AC08F2E70C990A9828AAF5
:103AF00005F000FB002800F08A800D9B1BB10D999A
:103B00000A9803F0EDFD0C9B9B8913F0400F089B76
:103B100018BF4FF0FF330893089855B0BDE8F08FF9
:103B2000002E00F08380012300228DF8EC600693C4
:103B30003BAD8DF883200B930D9207920F92139259
:103B4000109217F0020302D006990231069117F085
:103B5000840B07D109990698A1EB0009B9F1000F70
:103B600000F336832A9C82B10122C8F80420299AE6
:103B7000013401320DF18301072A2A942992C8F8F1
:103B8000001000F3698308F108087BB10223C8F82C
:103B90000430299B0234013321AA072B2A9429934C
:103BA000C8F8002000F36C8308F10808BBF1800F0F
:103BB00000F02E82079B0B9AA3EB020BBBF1000FC8
:103BC00000F37182FB0500F1C5810B9BC8F8005022
:103BD0001C44C8F80430299B2A940133072B2993ED
:103BE00000F3EA8208F108087B0705D5099B069ACD
:103BF0009D1A002D00F35083DDE9083206998A42B0
:103C0000ACBF9B185B180893002C7FF46EAF0023A9
:103C100029930D9B1BB10D990A9803F061FD554640
:103C20000DF1AC082B78002B7FF432AE2A9B002BD1
:103C30003FF469AF0C9C0A98214628AA05F05AFA6D
:103C4000A38962E70E9B073323F00702F2E80234F0
:103C5000CDE91434DDE9143424F0004499461846C3
:103C60000E9221464FF0FF32B64B06F083F9002842
:103C700040F09684484621464FF0FF32B14B06F0A3
:103C80005BF9002840F08C84DDE914010022002358
:103C900006F048F9002840F0A6879DF8832000210F
:103CA0000320A94DA94B27F080070D910690472EC0
:103CB000C8BF1D4607910B900F9113911091C1E65B
:103CC00017F0100340F0628417F0400200F07B8789
:103CD0000E9A994652F8044B0E92A4B2C7E653F8D6
:103CE000044B0E93FB0600F141847D0640F13B84BA
:103CF00044F3C0394B4624B27DE6012000220E9BDE
:103D0000069053F8041B3BAD8DF883208DF8EC1022
:103D10000E930B9010E74FF000090E9C079B54F890
:103D2000045B8DF88390002D00F0EE865A1C00F0A5
:103D300060851A464946284604F0EAFA0D900028A4
:103D400001F09E800D9B9DF883205B1B0B9323EA63
:103D5000E373CDF81C900E940693CDF83490CDF813
:103D60003C90CDF84C90CDF840906BE6099B5B42BF
:103D700009939AF8006047F00407AAE547F0100B92
:103D80001BF0200900F0AA830E9B073323F00703E2
:103D90001A4652F8084BD3F804900E92012369E6B4
:103DA000302278260E9B8DF8842053F8044B684A05
:103DB0000E934FF00009022347F0020B8DF8856047
:103DC000189257E6BD0600F1D683FC0600F19386F3
:103DD000780600F15D87B90540F18D860E9B089944
:103DE00053F8042B554611700E931BE79AF80060A8
:103DF0006C2E03BF9AF8016047F020070AF1010A10
:103E000047F0100765E59AF80060682E03BF9AF83E
:103E1000016047F400770AF1010A47F0400758E5CE
:103E20009AF8006047F0080753E50A9E304603F011
:103E3000F9FE436818461B93FFF79AFC0346304689
:103E40001C931E4603F0EEFE83681993002E3FF488
:103E5000BBAD199B002B3FF4B7AD199B1B78002B12
:103E60003FF4B2AD9AF8006047F4806731E59AF804
:103E7000006047F001072CE59DF88330002B7FF4AC
:103E8000A3AD9AF800608DF8834022E59AF80060AF
:103E900047F080071DE5524612F8016B2A2E01F00B
:103EA000EB81A6F13003092B924698BF002201F264
:103EB00003801AF8016B02EB820203EB4202A6F1C7
:103EC0003003092BF5D9079205E59AF800608DF8C3
:103ED0008390FEE4BB46012B3FF49AAD022B54AD18
:103EE00012D1189A04F00F03D35C240944EA097430
:103EF0004FEA191905F8013D54EA0903F2D154AB10
:103F00005B1B5F460B9390E504F00703E40844EA6B
:103F100049744FEAD909303354EA09012A4605F8B1
:103F2000013DF1D11BF0010FE9D0302BE7D0302358
:103F3000023A05F8013C54AB9B1A5F4615460B93B9
:103F400073E500BFFFFFEF7F88A308008CA3080084
:103F500098A30800652E40F3E980DDE914010022F2
:103F6000002305F0D5FF002800F0D2810123C8F816
:103F70000430299BBF4A01330134072B2A9429932B
:103F8000C8F8002000F37A8508F10808229B129AED
:103F9000934280F2D782169B179A1C44C8E90023EB
:103FA000299B2A940133072B299300F3DD8308F121
:103FB0000808129B5D1E002D7FF716AE102D41F3F1
:103FC0004181DFF8B492224649461026B946299B22
:103FD0000F46DDF828B00C9C05E008F10808103DFC
:103FE000102D40F3588501331032072BC8E90076B5
:103FF000CDE92932F1DD2146584628AA05F07AF8A4
:1040000000287FF47AADDDE929320DF1AC08E6E74E
:10401000099B069AA3EB020BBBF1000F7FF7CAAD19
:10402000BBF1100F41F30580DFF84C92414620466A
:10403000A8464C461023299A0C9DDDF8289006E0EE
:10404000ABF1100BBBF1100F01F1080119DD0132CA
:104050001030072AC1E90043CDE92920F0DD2946C7
:10406000484628AA05F046F800287FF446ADDDE969
:104070002920ABF1100BBBF1100F4FF010032BA94F
:10408000E5DC4546A1468846044601325C44072AE1
:10409000CDE92924C8F80090C8F804B000F31885C9
:1040A00008F1080886E5BBF1100F40F39785DFF8AB
:1040B000C89141462046A8464C461023299A0C9D9B
:1040C000DDF8289006E0ABF1100BBBF1100F01F109
:1040D000080119DD01321030072AC1E90043CDE99A
:1040E0002920F0DD2946484628AA05F003F80028D3
:1040F0007FF403ADDDE92920ABF1100BBBF1100F0C
:104100004FF010032BA9E5DC4546A146884604463E
:1041100001325C44072ACDE92924C8F80090C8F888
:1041200004B000F3CE8108F108084BE5129B012B87
:1041300040F37E810123299E01341E44072EC8F8D6
:1041400000502A94C8F80430299600F3E18108F160
:104150000808169B0136179A1C44072EC8E900234D
:10416000CDE9296400F3E18108F108080022DDE9C6
:104170001401002305F0CCFE002840F07681129B4C
:104180000136013B01351C44072EC8F80050299622
:10419000C8F804302A9400F35B8108F108081A9BE0
:1041A00001361C44C8F80430072E24ABCDE929643D
:1041B000C8F800307FF716AD0C990A9828AA04F0C9
:1041C00099FF00287FF499AC2A9C0DF1AC080BE50F
:1041D000B9F1100F40F35086DDE929214046CDE9C1
:1041E0001D36B84610244F460C9EA9460A9D04E091
:1041F000103F102F00F1080016DD01321F4B103167
:10420000072AC0E90034CDE92921F1DD31462846ED
:1042100028AA04F06FFF00287FF46FACDDE92921A4
:10422000103F102F2BA8E8DC4D46DDE91D36B946BE
:104230004746804609EB010401321049072ACDE9BF
:104240002924C8F80490C8F8001000F3C3839DF82F
:10425000832008F1080886E40C990A9828AA1D937F
:1042600004F048FF00287FF448AC2A9C1D9B0DF108
:10427000AC088AE4C8A30800DCA30800CCA30800AB
:104280000C990A9828AA04F035FF00287FF435AC71
:104290002A9C0DF1AC0889E4102D40F3C486102649
:1042A000299B0A9FDDF8309004E0103D102D08F1A5
:1042B000080817DD0133B84A1034072BC8E9002677
:1042C000CDE92934F1DD4946384628AA04F012FF29
:1042D00000287FF412ACDDE92934103D102D0DF1DA
:1042E000AC08E7DC0133AC4A2C44072BCDE9293478
:1042F000C8F80450C8F800207FF77EAC0C990A98E3
:1043000028AA04F0F7FE00287FF4F7AB2A9C73E498
:104310002299002940F36F83DDF84090129B994564
:10432000A8BF9946B9F1000F0BDD299B4C4401331E
:10433000072BC8E900592A94299300F31D8508F139
:104340000808109EB9F1000FA8BFA6EB0906002EC1
:1043500000F32582DDF840B07805AB4400F15F82C0
:10436000229B129A934202DBF90740F17684169A57
:1043700017991444C8E90012299A2A940132072A8D
:10438000299200F3138508F10808129AAE18A6EBDB
:104390000B06D51AAE42A8BF2E46002E0DDD299B76
:1043A00034440133072BC8F800B0C8F804602A94DD
:1043B000299300F3718508F10808002EA8BFAD1BF2
:1043C000002D7FF711AC102D40F33C87DFF8CC9126
:1043D000224649461026B946299B0F46DDF828B0EB
:1043E0000C9C05E008F10808103D102D40F35383A4
:1043F00001331032072BC8E90076CDE92932F1DD0F
:104400002146584628AA04F075FE00287FF475ABB3
:10441000DDE929320DF1AC08E6E7079B002B7FF4BC
:10442000FCAA5F46002354AD07930B93FFF7FDBA38
:10443000FA073FF57FAE0123299E01341E44072E63
:10444000C8F800502A94C8F8043029967FF7A5AE22
:104450000C990A9828AA04F04DFE00287FF44DAB71
:10446000DDE929640DF1AC0899E6129B5D1E002D73
:104470007FF795AE102D40F3DF86224607974FF069
:10448000100BDFF818910A9C0C9F05E008F1080852
:10449000103D102D40F37F8301361032072EC8E9FE
:1044A000009BCDE92962F1DD3946204628AA04F0B7
:1044B00021FE00287FF421ABDDE929620DF1AC0873
:1044C000E6E70C990A9828AA04F014FE00287FF465
:1044D00014AB2A9C0DF1AC08FFF774BB1BF0100362
:1044E0000E9A3AD11BF0400133D052F8044B994652
:1044F0000E920123A4B2FFF7BDBA2D2364428DF8BA
:104500008330BB464FF0010369EB4909FFF7B5BAA9
:104510000C990A9828AA04F0EDFD00287FF4EDAA72
:10452000DDE929640DF1AC0813E60C990A9828AA74
:1045300004F0E0FD00287FF4E0AADDE929640DF134
:10454000AC0813E6FD077FF54FAB24E554ADFFF74C
:104550006CBA1BF4007940F08A8352F8044B0123B3
:104560000E92FFF787BAB80500F19B834FEAE47912
:104570004B46FFF740BA0E9B089853F8041BC2172E
:104580005546C1E900020E93FFF74CBB0E9B53F852
:10459000044B0E93FFF76BBACCA30800DCA3080012
:1045A000DDE9140102460B4605F0E4FC002840F06A
:1045B000E985612E00F07D85412E00F08B84079BFC
:1045C000013300F08F8326F02003472B069300F081
:1045D0008F85DDE9141247F480730F931346002B87
:1045E000C0F2B0850B9300238B461D930D93069B61
:1045F000462B00F0E983452B00F0468507990B9B7D
:1046000001910221009126A9049123A9039122A9D5
:104610005A460A98029101F0BBFE069B0546472BBD
:1046200040F03A8617F0010FB9460F9F40F0FE8424
:10463000269B5B1B1293069B472B00F06E83069B09
:10464000462B00F0F083229B1093109B069A013BAF
:10465000412A229300F0BB850021F2B2002B8DF895
:104660009020B6BF2D222B22109B8DF89120B8BF31
:10467000C3F10103092B40F39B850DF19F0C6246AA
:10468000B64F1C46104687FB0312D917C1EBA20197
:1046900001EB8102A3EB42023032632C00F8012CC3
:1046A0000B4600F1FF32ECDC3033811EDBB28C456F
:1046B00002F8013C40F2F9850DF1920101E012F897
:1046C000013B944501F8013BF9D10DF1A1030DF136
:1046D00092021B1A134424AA9B1A1A93129B1A9A29
:1046E000012B1A440B9240F381850B9B169A1344BD
:1046F0000B9300230B9A29F4806722EAE27247F4B5
:1047000080770F930692139310931D9B002B40F01C
:104710002C839DF883200793FFF794B9BB46FFF7DE
:104720002FBB8F4B189317F0200900F0F5800E9BDC
:10473000073323F00703D3F8049053F8084B0E9384
:10474000F80709D554EA090306D030238DF88560AF
:1047500047F002078DF88430022327F4806BFFF7BF
:1047600089B9804B1893DEE70C990A9828AA04F0BF
:10477000C1FC00287FF4C1A92A9C0DF1AC0818E403
:1047800040210A9803F002FB0C9B18601861002876
:1047900000F0978540230C9A5361FFF762B8102E02
:1047A00040F37685DFF8C091424648462146A84648
:1047B000B9464FF0100B0746299B0A9C0C9D04E05C
:1047C0000832103E102E40F3138201331031072BB4
:1047D000C2E9007BCDE92931F2DD2946204628AA2D
:1047E00004F088FC00287FF488A9DDE929312BAA90
:1047F000E7E72846CDF81C900E94FEF7B9FF20EAB3
:10480000E0739DF883200B90CDF83490CDF83C9068
:10481000CDF84C90CDF840900693FFF713B9129B5A
:104820004246DDF84C80EB185E460793CDF82CA08D
:1048300010972146199FDDF87090DDF828A0DDF86B
:1048400030B00F9B1395B8F1000F2ED083BB013F02
:1048500008F1FF381B9B4944C2E90039299B2A9182
:104860000133072B299360DC0832079B38789B1BA8
:104870008342A8BF0346002B1C460BDD2998194430
:1048800001300728C2E900632A91299000F31481BE
:1048900038780832002CB4BF0546051B002D0BDC10
:1048A00006440F9BB8F1000FD0D1002B00F02682F8
:1048B0000F9B013B0F93CDE7102D40F39D841024F7
:1048C000299804E0103D102D02F1080216DD013098
:1048D000254B10310728C2E90034CDE92901F1DD6B
:1048E0005946504628AA04F005FC00287FF405A983
:1048F000DDE92901103D102D2BAAE8DC01301A4B0F
:1049000029440728CDE929015560136000F341824D
:10491000387808320644C4E717F0100300F0A0808E
:104920000E9B53F8044B0E930AE75946504628AAAB
:1049300004F0E0FB00287FF4E0A82A992BAA94E772
:1049400000230BF480620696CDF82CA0CDF83480BD
:1049500092461E46DDF8648054AF14E067666666D2
:1049600098A30800ACA30800DCA30800002320469D
:1049700049460A2205F03CFB0A2C79F100031BD3BF
:10498000044689462F4620460A220023494605F060
:104990002FFB30327D1E013607F8012CBAF1000FD3
:1049A000E4D098F800309E42E0D1FF2EDED00A2CF1
:1049B00079F1000380F0308154AB5B1BDDF82CA053
:1049C000CDF8648012965F46069EDDF834800B9326
:1049D000FFF72BB80C990A9828AA1D9304F08AFBBC
:1049E00000287FF48AA89DF883202A9C1D9B0DF146
:1049F000AC08FFF7B8B80123C8F80430299BBC4ABB
:104A000001330134072B2A942993C8F8002000F3BE
:104A1000178108F10808002940F08680129A07F0F3
:104A2000010313433FF4E0A8169B17991A19C8E92C
:104A30000013299B2A920133072B299300F3378116
:104A400008F10808129901338C18072BCDE9293495
:104A5000C8F80050C8F804107FF7C4A8FFF7ACBB33
:104A600017F0400200F0A5800E9A994652F8044BC8
:104A70000E92A4B264E6BB46FEF7CABF0C990A9830
:104A800028AA04F037FB00287FF437A82A9C0DF1F0
:104A9000AC08FFF77BBA14463A464F4691460133BD
:104AA0002C44072BC8F80090C8F80450CDE92934ED
:104AB0007FF798A8FFF780BB5946504628AA04F014
:104AC00019FB00287FF419A838782A992BAAE1E667
:104AD0000C990A9828AA04F00DFB00287FF40DA871
:104AE0002A9C0DF1AC08FFF765B8012BBB467FF49B
:104AF000F5A9FEF792BF0E9B089953F8042B554673
:104B000011600E93FFF78EB8062B294628BF0623A7
:104B10002A4607950D950693764D0E940B930F91AB
:104B200013911091FEF78EBF169B17981A19C8E9BA
:104B30000003299B2A920133072B299300F3B780A6
:104B400008F108080029BFF67DAF4E42103180F20F
:104B5000A98341461024A846DFF89C91DDF828B0CF
:104B60000C9D04E00831103E102E40F3A782013363
:104B70001032072BC1E90094CDE92932F2DD294634
:104B8000584628AA04F0B6FA00287EF4B6AFDDE94C
:104B900029322BA9E7E71446079F01362C44072E3C
:104BA000CDE92964C8F80090C8F804507FF7F5AA49
:104BB0004EE417F400790E9B66D053F8044B9146EF
:104BC0000E93E4B2BCE517F400790E9B57D053F86E
:104BD000044B91460E93E4B2FEF749BF299ADFF8E1
:104BE0001891FFF795BA2D228DF88320FFF757B85B
:104BF000454690463A460C464F469146013334446A
:104C0000072BCDE92934C8F80090C8F804605CDCB3
:104C100008F10808FFF79EBB1C9B1B99ED1A1A466A
:104C20002846FEF7D3FD98F801300BB108F10108D2
:104C3000204649460A220023002605F0D9F99FE6BE
:104C40000C990A9828AA04F055FA00287EF455AF6A
:104C500022992A9C0DF1AC08DDE6129AAE18A6EB5B
:104C60000B06D51AAE42A8BF2E46FFF7A6BB52F8D8
:104C7000044B894601230E92E4B2FEF7FBBE53F8C3
:104C8000044B0E93FEF7F3BE53F8044B0E9357E517
:104C90000E9B089953F8042B554611800E93FEF78E
:104CA000C1BF44F3C0194B4664B2FEF7A4BE0C99D1
:104CB0000A9828AA04F01EFA00287EF41EAFDDE947
:104CC000293222990DF1AC083CE70C990A9828AAE0
:104CD00004F010FA00287EF410AF2A9C0DF1AC0805
:104CE000FFF738BB0623079326F02003069370E4F2
:104CF000C8A30800C0A30800DCA30800DDE9123542
:104D0000EB189E42B346199790460C4628BF9B4627
:104D1000DDF82CA0109FFFF723BB229BDA1C109319
:104D200002DB079A934204DD023E26F0200306933D
:104D30008BE4109B129A9342C0F2C28019F0010FCB
:104D400000F01D82169A13440B9319F4806F00F043
:104D50001482109B6726002B76DC0B9B23EAE373FF
:104D6000069300230F931393CFE42D2200238DF895
:104D700083200793FEF768BE0C990A9828AA04F0CE
:104D8000B9F900287EF4B9AE2A9C0DF1AC08FFF702
:104D9000D8BA5946504628AA04F0ACF900287EF447
:104DA000ACAE38782A992BAA06447AE50C990A9871
:104DB00028AA04F09FF900287EF49FAE229B2A9C2B
:104DC0000DF1AC08FFF7E1BA07990B9B01910321A4
:104DD000009126A9049123A9039122A95A460A9871
:104DE000029101F0D5FA03780546302B00F01682C7
:104DF000229B079AB94613440F9FEC18584600228D
:104E000000230B9905F084F808B1234611E4269B92
:104E1000A342BFF40EAC30215A1C26921970269B77
:104E20009C42F9D805E4229A002A109240F30E829F
:104E3000079909F001030B4340F07E816626109B21
:104E40000B9319F4806F88D019990B78FF2B00F021
:104E500025820024109A204604E001300131FF2B06
:104E600000F05981934280F25681D21A4B78002B80
:104E7000F3D10B780134F2E7DDE92921FFF7DAB944
:104E8000079B9DF883200E9406930B9307900F9039
:104E900013901090FEF7D6BD0C990A9828AA04F03A
:104EA00029F900287EF429AE229D129B2A9C0DF13F
:104EB000AC085D1BFFF781BA00230793FEF70BBD1B
:104EC000129B169A9A18109B0B92002B40F3858127
:104ED0006726B6E730238DF8843058238DF8853067
:104EE000079B47F00204632B00F3C48000233BAD13
:104EF0000D9347F481730F93DDE914121346002BD1
:104F00002746C0F284800B9300238B461D9326F026
:104F100020030693612E00F01881412E7FF467ABC9
:104F200022AA58460B9904F055F800224FF07F53FF
:104F300004F086FD02460B46CDE910230022002333
:104F400004F0E6FF08B101232293AD4B0B93079BBE
:104F5000CDE912A6CDE91E78DDE91067AB46DDF894
:104F60002CA003F1FF39109506E00022002309F17F
:104F7000FF3904F0CDFFE8B90022A24B3046394694
:104F800004F05EFD0F46064605F00AF8044604F0FC
:104F9000EDFC0B4602463946304604F099FB1AF800
:104FA0000430B9F1FF3FD8464D4606460F460BF890
:104FB000013BDAD1304639460022934BA946DDF851
:104FC00048A0109DCDF84880CDE91001DDF87C8027
:104FD000139E1E9F04F0C4FF80BBDDE91001002278
:104FE000894B04F095FF08B1E10727D44B46002B0D
:104FF00006DB302201335B440BF8012B5B45FBD110
:10500000ABEB0503B94612930F9FFFF714BB26F0D5
:10501000200306932D22DDE914349B4604F100435E
:105020001D920B9376E7299BFFF75CB9079BEC1861
:10503000E4E6299ADFF8D491FFF727B8129B26936C
:105040000B9B1BF8012CD97B5B468A4209D130208F
:1050500003F8010C269B5A1E269213F8012C91424C
:10506000F6D0392A0BBF0B9A0132927AD2B203F8EA
:10507000012CC5E70A98591C02F088FE0546002855
:1050800000F017810D9034E70221009107995A46EC
:105090004C1C26A9049123A9039122A90B9B0A98D1
:1050A0000194029101F074F90546B9462C440F9F12
:1050B000A4E630238DF8843078230FE745468846F0
:1050C00001333244072BCDE92932C8F80090C8F8E3
:1050D00004607FF7B5AC0C990A9828AA04F00AF886
:1050E00000287EF40AADDDE929320DF1AC08A9E40F
:1050F000079B002B08BF0123079347F480730F938E
:10510000159B002BC0F2B680DDF850B00D900B93CC
:105110001D90FFF773BA1991109213900F940F9A84
:10512000139B1C9913440B9A01FB03230B9323EA53
:10513000E3730693FFF7E9BA169B6626D318194462
:105140000B917EE600230D9364E722AA58460B9943
:1051500003F040FF00224FF07F5304F071FC024641
:105160000B46CDE910230022002304F0D1FE08B144
:1051700001232293264B0B93E9E66726EDE5109B6E
:105180000B93E2E5159B0320002BB8BF2D224FF0B7
:105190000003A8BF9DF8832019460D931D4D1E4B9B
:1051A000B8BF8DF8832027F080070690FEF77FBDFB
:1051B000002944D130228DF892200DF19302303332
:1051C00002F8013B24ABD31A1A93FFF787BA06F112
:1051D0000F020121D2B2FFF741BAC3F101031A4411
:1051E00022EAE27367260B920693BAE519F0010FE3
:1051F0003FF47FAAFFF779BA2998FFF77FBB00BF7A
:10520000ACA30800000030400000E03FDCA3080031
:1052100098A3080090A3080094A308005846002211
:1052200000230B9904F074FE00287FF4E1AD079B86
:10523000C3F101032293DCE5DFF89890ADE40DF1B2
:105240009202BCE7299BDFF88C9028E4079A09F0CA
:10525000010959EA020304D10123662606930B9340
:105260007FE5169B662601331A4422EAE2730B920D
:10527000069376E50D90CDE60E9B9AF80160924676
:1052800053F8042B0E9342EAE2730793FEF721BB17
:10529000299BDFF84090B1E4079C06E700230F93B9
:1052A00013933CE7DFF82C900AE702231A93FFF7E9
:1052B00015BA0C998B8943F0400213468A81FEF798
:1052C00024BC4FF0FF320C2308920A9A1360FEF7B9
:1052D00023BC00BFDCA308002DE9F84F4B6E9046BD
:1052E0009C042DD59368126843B38B46064602F1A1
:1052F000080959E9025A5FEA9A0715D00024043DCB
:1053000001E0A7420ED05A46304655F8041F02F07D
:1053100063F9431C04F10104F3D10023C8E901330C
:10532000BDE8F88FD8F808302AF0030AA3EB0A0387
:10533000C8F8083009F10809002BDAD10020ECE7A1
:1053400002F0CEFA0023C8E90133BDE8F88F00BFB0
:105350002DE9F04FBDB01C461746CDE9053002914E
:1053600018B1836B002B00F07782029A536EDE0730
:1053700040F18481B2F90C108AB2900408D441F44F
:10538000005202994B6E8A8123F4005392B24B660D
:10539000110740F1EC80029B1B69002B00F0E780B5
:1053A00002F01A030A2B00F0F08013AB10930023D5
:1053B000CDE91133CDE90933CDE90B330DF14C09BA
:1053C00004933B78002B00F046813C4604E014F83F
:1053D000013F002B00F02181252BF8D1E51B40F087
:1053E0001E812378002B00F036814FF0000300254A
:1053F0004FF0FF3B4FF02B088DF83B30637803955F
:10540000671C0137A3F120025A2A00F24681DFE827
:1054100012F0A102440144019D02440144014401EF
:105420007C02440144016A00530244012902AF0294
:105430004401AB025B005B005B005B005B005B0058
:105440005B005B005B0044014401440144014401F2
:105450004401440144014401130278004401440121
:105460004401440144014401440144014401440114
:10547000D100440144014401F701440141024401C7
:105480004401210544014401440144014401440113
:10549000440144014401440113027A0044014401DF
:1054A000440137027A00740044012D02440169026C
:1054B000D300570274004401F70172004105440112
:1054C00044014305440172000021A3F1300217F8A2
:1054D000013B01EB810102EB4101A3F13002092AFA
:1054E000F5D903918EE7059B53F8042B002A03920C
:1054F0000593C0F2B4813B7883E73B7845F0200503
:105500007FE745F01005AC06059E40F16B8107363C
:1055100026F007063246736852F8086B98460592E3
:10552000002BC0F24984BBF1FF3F00F0318556EA01
:10553000080325F0800A00F025840A2E78F1000384
:1055400080F0E1840123554630368DF8EF600193F9
:105550000DF1EF04DDF804809DF83B30D845B8BF6D
:10556000D846002B00F0A88008F10108A4E0029DB5
:105570000698294600F0FAFD002840F09485AA8993
:1055800002F01A030A2B7FF410AF0299B1F90E3022
:10559000002BFFF60AAF4B6EDE0702D4950540F1F3
:1055A000628523463A46029906983DB0BDE8F04F21
:1055B00000F09ABD45F0100515F0200800F00381B9
:1055C000059E073626F007063346D6F8048053F8C2
:1055D000086B0593002325F4806A4FF000028DF8D4
:1055E0003B20BBF1FF3F00F0DD8156EA08022AF0C4
:1055F000800540F0D681BBF1000F40F0CC84002B39
:1056000040F0C5831AF00103019300F0EC833023CE
:105610000DF1EF048DF8EF309CE7E51B1BD0119BDB
:10562000129A01332A44072BC9E90075129211938B
:1056300005DC09F10809049B2B440493D1E6002AF8
:1056400000F09C830299069810AAFFF745FE40B926
:105650000DF14C09EFE7129B002B40F0158500235C
:105660001193029A536ED90740F1A28093895B0689
:1056700000F1258504983DB0BDE8F08F029BB3F999
:105680000C108D058AB23FF578AE1D46986D02F07C
:10569000D1FAB5F90C108AB26FE6002BDBD04FF0CF
:1056A00001088DF88C304FF0000323AC8DF83B30AF
:1056B000CDF804804FF0000B15F00203079318BFDC
:1056C00008F1020815F08403089305D1039BA3EBAE
:1056D0000806002E00F38A82DDE91112481C9DF8AD
:1056E0003B6076B1012101320DF13B060728CDE97F
:1056F0001102C9E9006100F35882014609F1080965
:105700000130079BD3B102230232C9F804300728C5
:105710000FABCDE91102C9F8003040F36282002AD4
:1057200000F027830299069810AAFFF7D5FD0028FC
:1057300097D1DDE911120DF14C09481C089B802B13
:1057400000F07181019BABEB0306002E00F3CF81CB
:10575000019B07281A44CDE91102C9F80040C9F895
:10576000043040F35D81002A00F09382029906988C
:1057700010AAFFF7B1FD00287FF473AF129A0DF164
:105780004C09680705D5039BA3EB0804002C00F324
:105790008A82DDE903134145ACBF5B18434404939F
:1057A000002A40F0F38100230DF14C09119308E623
:1057B000029B9B899A053FF55AAF029CA06D02F0AF
:1057C0003BFAA38953E715F0100340F0188315F056
:1057D000400200F01083059E984656F8043B05965B
:1057E0009EB2F7E656F8043BE806059600F11083F2
:1057F000690640F10A8343F3C0381EB243468FE680
:105800004FF00003059E8DF83B3056F8044B002CFA
:1058100000F0CF83BBF1FF3F00F041835A460021E7
:10582000204602F075FD002800F02284031B4FF093
:10583000000B059601938DE64FF000034FF0010831
:10584000059E8DF83B3056F8043B23AC8DF88C3028
:105850000596CDF804802DE701F0C6FD85E5039B94
:105860005B4203933B7845F00405CAE53B786C2B1B
:1058700003BF7B7845F02005013745F01005C0E5F2
:105880003B78682B03BF7B7845F40075013745F002
:105890004005B6E545F0100A1AF0200800F07E82B7
:1058A000059E0123073626F007063246D6F8048007
:1058B00052F8086B059290E63B788DF83B80A0E5A6
:1058C00030228DF83C207822059B8DF83D2053F83E
:1058D000046BBE4A05934FF00008022345F0020A0C
:1058E00009927AE6AE0600F1A482EC0600F1598333
:1058F000680600F1B083A90540F15383059E049A20
:1059000056F8043B1A7005965BE5069C204602F0AB
:1059100089F9436818460B93FDF72AFF0346204692
:105920000C931C4602F07EF983680A93002C3FF426
:10593000E2AD0A9B002B3FF4DEAD0A9B1B78002BE7
:105940003FF4D9AD3B7845F480655AE53B7845F0A6
:10595000010556E59DF83B30002B7FF4CCAD2023AC
:105960008DF83B303B784CE53B7845F0800548E5C9
:10597000394611F8013B2A2B00F0A683A3F130022F
:10598000092A0F464FF0000B3FF63CAD17F8013BDC
:105990000BEB8B0B02EB4B0BA3F13002092AF5D971
:1059A00030E5AA46012B3FF4C8AD022B3CAC12D126
:1059B000099A06F00F03D35C360946EA08764FEAE7
:1059C000181804F8013D56EA0803F2D13CAB1B1B42
:1059D00055460193BEE506F00703F60846EA487609
:1059E0004FEAD808303356EA0801224604F8013D50
:1059F000F1D11AF0010FE9D0302BE7D03023023A71
:105A000004F8013C3CAB9B1A554614460193A1E5B2
:105A10000123019A13941193149212920DF14C09DF
:105A200009F10809ADE6039BA3EB0806002E7FF7FA
:105A300089AE102EDFF898A138DD5346CC46BA4621
:105A4000C1460794A8461F46069C029D07E001F147
:105A5000020E01460CF1080C103E102E1EDD102324
:105A6000481C10320728CDE91102CCF80070CCF8A0
:105A70000430ECDD002A00F092802946204610AA6E
:105A8000FFF72AFC00287FF4ECADDDE91112103E8F
:105A9000102E0DF14C0C01F1010EE0DC3B464546A9
:105AA0005746C8467046E1469A46079C3244072846
:105AB000CDE91102C9F800A0C9F8046040F396814D
:105AC000002A00F09A820299069810AAFFF704FCB7
:105AD00000287FF4C6ADDDE91112019B0DF14C09E0
