:0200000280007C
:1000000000400820BD2E0800A9340800A9340800CB
:10001000A9340800A9340800A93408000000000031
:10002000000000000000000000000000A9340800EB
:10003000A934080000000000A9340800A934080011
:10004000A9340800A9340800A9340800A93408001C
:10005000A9340800A9340800A9340800A93408000C
:10006000A9340800A934080005160800D1160800B4
:100070009D170800A9340800A9340800A934080015
:10008000A9340800A9340800A9340800A9340800DC
:10009000A9340800A9340800A9340800A9340800CC
:1000A000A9340800A9340800A9340800A9340800BC
:1000B000A9340800D51B0800A934080010B5054C68
:1000C000237833B9044B13B10448AFF30080012304
:1000D000237010BDA80D0020000000001CAD08001A
:1000E00008B5034B1BB103490348AFF3008008BDBB
:1000F00000000000AC0D00201CAD08000022F0B58F
:100100001E4B83B0984204460F46019223D01C4BED
:1001100098420DD01B4B984212D11B4E01AD29467F
:100120002046B0470028FAD1019B3B7003B0F0BDD8
:10013000154E01AD29462046B0470028FAD1F3E715
:10014000124B98420FD1104E01AD29462046B047C0
:100150000028FAD1E8E70E4D39462046A847002886
:10016000FAD103B0F0BD0B4B9842DFD1064E01AD82
:1001700029462046B0470028FAD1D5E700060E40B0
:100180000000094000400940B915080000800940FE
:100190008135080000C009401D4B70B598420446E7
:1001A0000E4615D01B4B98421AD01B4B98421FD0BD
:1001B0001A4B984204D01A4B984221D0002070BDAF
:1001C000184D31462046A8470028FAD1012070BDBD
:1001D000154D31462046A8470028FAD10120F6E700
:1001E000104D31462046A8470028FAD10120EEE7FD
:1001F0000C4D31462046A8470028FAD10120E6E7F9
:10020000084D31462046A8470028FAD1DEE700BF56
:1002100000060E40000009400040094000800940EF
:1002200000C00940A51508007135080010212DE90E
:10023000F04788B00DEB01007B4B9847DFF8EC816D
:100240000820C0477A4A7B497B4C11607B4A7C4935
:100250007C4B11604FF4E1311C604FF400637A482D
:100260007A4DCDE9000108200293C0476946204637
:10027000774B98472B68774C98680021A0472B68EC
:1002800000215868A0470121734B1970BFF35F8F9D
:1002900062B60022714BDFF8C89159711A601A7169
:1002A00070498847704B4D46704F714E04AC0DF14C
:1002B000200A984754F8042B28463146B847A245EF
:1002C00005F10805F6D100256A4A6B4E6B496C486A
:1002D00089F82050B04762496A48B04709206A4C03
:1002E000C0476A492920A04768492A20A047674992
:1002F0002B20A04765492C20A04764492D20A0470A
:1003000062492E20A04761492F20A0475F49302035
:10031000A0475E493920A0475C493A20A0475B4985
:100320003B20A04759493C20A04758493D20A047C1
:1003300056493E20A04755493F20A0475449262012
:10034000A04752493320A04750493720A0474F4982
:100350003420A0474E492720A0474C494F20A047B2
:100360004B492820A04749494020A0474749412000
:10037000A04746494220A04744494320A04743495B
:100380004420A04741494520A04740494620A04776
:100390003E494720A0473D494820A0473B494920C6
:1003A000A0473A494A20A04738494B20A04737493F
:1003B0005420A04735495520A04734495620A0472E
:1003C00032495720A04731495820A0472F4959208A
:1003D000A0472E495A20A0472C493520A0472D4838
:1003E000B04729462C4A2D482D4B98474FF00C32E8
:1003F00029462A482B4B98474FF010122946274888
:10040000294B984741F2030229462448274B984735
:10041000274B9847274B98472748B047274B984783
:10042000274B9847FEE700BF591508004D310800DB
:10043000F83600209901080000060E401037002011
:10044000FD000800FC36002000D8B805FC030020A1
:1004500039350800493A08006803002014370020A5
:10046000EC0100207D2F080091350800093C0800B0
:10047000D0A70800D8A7080091380800E4A7080012
:10048000F0A7080030A80800ED32080001000008BD
:100490000100001044A808000004040400000E40FD
:1004A000D1150800DD150800E9150800F51508004C
:1004B00095370800450D080064A80800950B080052
:1004C000F10808002DE9F84F3E4A3F4B15681B68BC
:1004D00054685B1BA34203D342F227339D4201D9E8
:1004E000BDE8F88F4C20394B9847002C5CD0384E33
:1004F000738801339BB20022AD08738032804CD0E8
:10050000344B35491A68C86822440B68D1E901A701
:100510004FF00108314902EB850501E05746CA4614
:1005200080EAC02080EAD3445C4092F800B099464B
:1005300084EA1023D8B280EA0B04584518BFA6F805
:1005400000800C705478C3F3072EA6458EEA040B86
:1005500018BFA6F8008081F801B09478C3F3074C67
:10056000A4458CEA040E18BFA6F8008081F802E0CA
:10057000D4780432B4EB136F84EA136C18BFA6F876
:100580000080AA4281F803C0384601F10401C5D1B8
:10059000114AC2E902A7C2E9003904221049114BED
:1005A0000E601A60BDE8F88F0F490B4AD1E901606F
:1005B000C2E90160C86809680123054E1160D06076
:1005C00099E700BF1C31002010020020A52E080072
:1005D000F8300020500300200C310020C40D002012
:1005E000F0300020F4300020FC30002070B5084BC3
:1005F000084A5C6805201D689047074B074A04F1CC
:10060000C0441D6014604C20BDE87040044B184786
:100610001C31002011150800F4300020F0300020BB
:10062000A52E08002DE9F0410E4F01203C680E4E2A
:100630007D68B04710200D4B984774B107EB040C50
:10064000EC1F0B4DFB1DE41B0CF1070CE21813F81B
:10065000010F296863458854F8D13346BDE8F0415D
:10066000002018471C31002011150800A52E080095
:100670005003002010B5064A064B042054689847E2
:10068000054A10201460054BBDE81040184700BF14
:100690001C31002011150800EC300020A52E0800A8
:1006A00070B5084B0220D3E90054074B98474C2003
:1006B000064B9847294604F1C040054A054BBDE862
:1006C000704018471C31002011150800A52E0800A5
:1006D0005D0708002132080042F2273310B5074AAF
:1006E00014689C4200D910BD4C20054B9847214608
:1006F000BDE81040034A0448044B18471C31002051
:10070000A52E08005D070800C40D00202132080056
:100710000D4A5378122B03D0152B01D000207047BF
:1007200010B50024094B0A481968006891810949ED
:1007300090601C608847052801D0012010BD20462C
:10074000054B9847012010BDE0360020F430002012
:10075000F03000204D1508001115080000B1704759
:1007600010B5054B04469847022800D010BD20461E
:10077000BDE81040014B18474D1508001115080041
:1007800010B5A8B981B11048104A03461268104C40
:100790000144A2EB000E0EEB030213F801CB20681C
:1007A000994200F802C0F6D10A4B9847042807D0B6
:1007B000BDE810404FF48061074A0348074B1847D3
:1007C000074B00209847F3E75C310020EC30002015
:1007D000500300204D150800810708004132080031
:1007E00011150800F8B51F4E102074681E4B3768AD
:1007F00098474CB91D4DDFF878C0083696E80F00D1
:1008000085E80F008CE80F00BF0829D0174D194E5E
:1008100004EB870C2968EA6881EAD14082EAC222A7
:1008200080EA020383EA122368683268AF685FFADD
:1008300083FEC5E90031C5E9020702F804E031682A
:10084000621CC3F3072088543168A21CC3F307401D
:1008500088543168E21C04341B0EA4458B54D9D152
:10086000F8BD00BF1C310020A52E08000C3100206F
:10087000FC3000205003002008B5154A5378103B87
:10088000082B0AD8DFE803F00B0F13171B1F090909
:100890000500104B0120136108BD002008BD0E4B60
:1008A0000120136108BD0D4B0120136108BD0C4BE5
:1008B0000120136108BD0B4B0120136108BD0A4BD9
:1008C0009847012008BD094B0120136108BD00BFF6
:1008D000E0360020D9060800A106080075060800C9
:1008E000ED05080025060800E5070800C504080016
:1008F00010B5044B04489847BDE810400348044B2A
:10090000184700BF150908001107080079080800FA
:100910003D09080007490A780F2A01D900207047CD
:10092000034610B4501C044C087044F822300120D7
:1009300010BC70479C3500205C35002007490A78C0
:100940000F2A01D900207047034610B4501C044CF4
:10095000087044F82230012010BC70479D350020FB
:10096000A0350020004B1847B1370800004B18474E
:10097000D5370800054B1B7803B9704710B5044BF9
:100980009847BDE81040034B184700BF14020020F1
:1009900051260800F137080038B50124044D4FF402
:1009A0008061044A044B05482C709847204638BDA6
:1009B0001402002081070800413208005C31002049
:1009C0000022014B1A7070471402002038B50F4BFB
:1009D0000F4AD9880F48402928BF402112789860D3
:1009E00099818AB10C4C551EEDB2531B251F05EBA6
:1009F000830504EB820401E0AC4205D054F8043DC9
:100A000098470028F8D038BD002038BDE0360020D7
:100A10009D3500201C310020A035002038B50B4B3F
:100A20001A788AB10A4C551EEDB2531B251F05EBEF
:100A3000830504EB820401E0AC4205D054F8043D88
:100A400098470028F8D038BD002038BD9C350020DC
:100A50005C350020044B5A78222A03BF034A012048
:100A60001A610020704700BFE0360020710A0800BC
:100A700010B5224B9B78013B102B0AD8DFE803F01E
:100A80000A161B0909090909090909090909092D92
:100A90003A0010BD3E201A4B98471A4CA047002838
:100AA000FCD0BDE810401020174B18471020BDE8BF
:100AB0001040164B184701220C21154B154898473A
:100AC000154B9847154A53689903FCD4136843F0B3
:100AD000254343F005031360FEE70F4B98470F4A89
:100AE00053689B03FCD4136843F0254343F005038C
:100AF0001360FEE70A4BBDE810401847E0360020BF
:100B0000B1300800D5300800F92F08005530080032
:100B10006132080000080E409525080000120E40C2
:100B20004115080038B5154C6378172B1BD0402BA6
:100B300017D14FF0200C124D124B372293E80300CF
:100B400085F808C085E803000F4B104905F109003E
:100B5000984728460E4BA560984703460120A3817D
:100B600038BD002038BD40F2011500210322044B9E
:100B700001201D809970A360A28138BDE03600205D
:100B8000E035002090A80800A93C080084A80800CF
:100B90004D3C080010B5044B04489847BDE8104090
:100BA0000348044B184700BF15090800250B08002F
:100BB000550A08003D090800024A034B508800F01E
:100BC0007F001847E036002019260800154B1B68E7
:100BD0001B681A79824222D930B4134C2360B3F8CF
:100BE00002C09C44634517D2002504E01A78012511
:100BF00013449C450CD95A78042AF7D19A7882423A
:100C0000F4D1DA788A42F1D105B12360012001E004
:100C10000020236030BC7047002030BC70470020AB
:100C2000704700BF283600202C3600202DE9F04107
:100C30000746124B124D1C68124E296823780A6829
:100C40001C4453881A44A24206D808E0052B0DD054
:100C500023781C44A24202D96378042BF6D14B6856
:100C600053F82730BDE8F0411B681847A288E178A7
:100C7000A078B0470028E0D1BDE8F0812C360020F4
:100C800028360020712908002DE9F041264F8046C2
:100C90003B685B6853F82050EB689847234B1B7800
:100CA00083B33B681B681A7942452BD9DFF880C0B3
:100CB000CCF800305A881A44934223D21C460026AE
:100CC00004E0217801260C44A24225D96178042948
:100CD000F7D1A1784145F4D1E1788142F1D106B351
:100CE000CCF80040134E04E06378042B05D0052BAC
:100CF0000BD023781C44A242F6D86B689847012099
:100D0000BDE8F0810020BDE8F081A078B0473B68E5
:100D10001B685A881A44ECE7CCF800400020BDE874
:100D2000F0811C46DEE700BF283600202536002073
:100D30002C3600206D260800014B1868704700BF54
:100D40002C360020004B1847D52408002DE9F0412F
:100D50001F4E3278002A2ED0DFF87880D8F8003085
:100D60001B68197939B3002528461B4FEAB13B604F
:100D700059881944994288BF002405D811E01A788F
:100D80000124134499421CD95A78042AF7D19A783D
:100D90008242F4D1DA78002AF1D104B13B600F4BE2
:100DA0009847D8F800301B6819790135E8B28842B5
:100DB00001D23278DAE70023094A33701380BDE8A4
:100DC000F081D8F800203B6013681979EDE700BF87
:100DD00025360020283600202C360020890C0800FB
:100DE0002036002038B5114B1B78EBB1104D2A6826
:100DF00013681979C1B100242346526852F8233090
:100E00001B696BB198472A6801341168E3B209790C
:100E10008B4209D2526852F823301B69002BF1D162
:100E20000134E3B29942E9D838BD00BF253600202D
:100E30002836002000232DE9F047A44C2288C4E97D
:100E40000433B2F5E07FA38100F0158194F90030FE
:100E50002278002B0FDB12F0600F00F0968012F06A
:100E60001E0F41D002F01F02022A00F0238100254C
:100E70002846BDE8F087E588002DF8D012F0600F15
:100E8000EDD112F01F0300F0C981012B40F02E813B
:100E900063780A2B25D1012D23D18D4B1B7803B309
:100EA0008C4B26791F683B681B79B34219D9002106
:100EB0003046894B98470546002800F09B817B68A7
:100EC00053F82630DB689847024684480121844B5A
:100ED00002709847CCE7012B00F0B181022B00F0A3
:100EE000D88012F01E0FC2D1A788022F02D1012391
:100EF0001F46A380764D2B78002BB8D0754EFFB2DD
:100F00003068036893F804C067455BD302F01F02A2
:100F1000022AACD1BCF1000FA9D00027B846714C11
:100F2000436853F82890D9F80C3098472B788446BA
:100F3000002B9CD033681B681A79424597D92360EF
:100F4000598819448B4292D2002005E01A7801207A
:100F50001344994240F297805A78042AF6D19A783D
:100F60004245F3D1DA786245F0D100B12360D9F877
:100F70000830984700287CD13068013703685FFA51
:100F800087F81B794345CBD871E712F01F03A2D134
:100F90006378013B082BA4D801A151F823F000BFCE
:100FA000F9110800E30E0800D5110800E30E08004F
:100FB000C5110800E30E0800E30E0800E30E080068
:100FC00013110800DFF81C81C8F80030B3F802E004
:100FD0009E4473459AD24FF0000905E019784FF00E
:100FE00001090B449E4551D959780429F6D19978C5
:100FF000B942F3D1D9780029F0D1B9F1000F01D06D
:10100000C8F80030436853F82790D9F80C30984757
:101010002B788246002B3FF42AAF3068036893F8A0
:1010200004C0674580F0F880C8F80030598819443A
:101030008B4238BF4FF0000E07D3EDE01A784FF027
:10104000010E1344994240F2E5805A78042AF5D102
:101050009A78BA42F2D1DA785245EFD1BEF1000F58
:1010600001D0C8F80030D9F808309847002800F0BF
:10107000DD810125FCE601259E211B48184B984780
:101080002846BDE8F08700252360F1E6C8F8003067
:101090003CE76378012B00F0FC80032B06D1E3884A
:1010A00061880B439BB2002B00F0C88112F01E0F29
:1010B0003FF41AAF064D2B78002B3FF4D8AE054E07
:1010C0003068036893F804C024E700BFE0360020CE
:1010D0002536002028360020CD0B080024360020BD
:1010E000612608002C3600203C020020022B7FF4F1
:1010F000F8AE6378002BD9D1022DD7D120799B4B44
:10110000984702469A4829469A4B012502809847FB
:10111000AEE6E388002B7FF4E4AE974B98470028B7
:1011200068D0964FB847964EA378002800F080818B
:10113000B268527C9A425DD3924B9847924DA37805
:101140002B70002B95D0B8472B78002800F0BB817E
:10115000326903F10051013902EBC1028B4E106874
:1011600032600279002A84D04FF00008C446884FCC
:10117000002B3FD038604288024482423AD9002195
:1011800005E0037801211844824240F24C81437803
:10119000042BF6D183786345F3D1C378002BF0D1CB
:1011A00001B1386060467B4B984718B3336808F14B
:1011B000010818685FFA88FC037963457FF659AF28
:1011C0002B78D5E7E388002B7FF48BAE724B01259B
:1011D00023614DE6E388002B7FF483AE6388022B06
:1011E0007FF47FAE654B9847054618B12379002BF5
:1011F00000F05181227832E6E388002B7FF471AE53
:101200006588012D7FF46DAE644A138823F00203D4
:1012100013802DE6C8F80030227877E66378062B35
:101220004DD0082B43D0002B7FF45BAE022D7FF412
:1012300058AE294659484F4B9847012518E6637820
:101240000B2B7FF44EAEE18800297FF44AAE4E4F5F
:101250003B78002B3FF445AE2579514E2846B4F833
:101260000280B0470028C5D028464E4B984700283A
:10127000C0D03B78002BBDD028465FFA88F1B0473C
:101280000028B7D02846434B984700287FF4F1AE9A
:10129000B0E7E38861880B439BB2002B7FF406AF75
:1012A0002079414B984700287FF4E3AEA2E7012D57
:1012B0007FF417AE294634482E4B9847D8E561880D
:1012C0000B0A013BCDB20E2B3FF6C9AD01A151F87F
:1012D00023F000BFD9130800B11308005F13080002
:1012E0005F0E08005F0E0800531308002913080062
:1012F0005F0E08005F0E08005F0E08005F0E08001A
:101300005F0E08005F0E08005F0E08001113080052
:1013100021212648174B9847E388A2899A427FF6F5
:10132000A8AE0125A381A3E5144B9847144B0028D0
:1013300040F08E809A68527CAA427FF65BAF1A69B1
:101340000C4B52F83500418898470722A3685A7021
:10135000E2E70B4A074BD06801789847DCE7032D9A
:101360003FF67DADDFE805F057545C42F1260800FA
:1013700022360020612608004126080009260800C0
:101380006C0300204D0D0800253600202836002073
:101390002C3600202D0C0800B90B08002036002048
:1013A000CD0B0800890C0800CD270800180200208A
:1013B000484B9847484B002856D09A68527CAA421E
:1013C0007FF618AF1A69454B52F8350041889847A7
:1013D0000222A3685A709FE73E4B984700284FD1DE
:1013E0003D4A3E4B90680178984795E720223C4B58
:1013F0003C4E9D18314613F8010B9D4221F8020F17
:10140000F9D15200911C3748344B3170984783E72B
:101410001522354BECE704213448304B98477BE7E5
:101420001322334BE4E72278386018E5227819E577
:101430003268527C9A42BFF47FAEDBE620792D4BB6
:10144000984720792C4B984700287FF412AED1E6BC
:101450001A68527CAA427FF6CDAE5A681F4B52F8EA
:1014600035004188984770E71A68527CAA427FF697
:10147000C1AE5A68194B52F8350041889847A7E722
:1014800010200221144B154D1A689070D170186805
:101490000178A84740E7194B9847A3881B0A013BEE
:1014A000032B3FF6A7AEDFE803F00B080502144B51
:1014B0002361DDE4134B2361DAE4134B2361D7E4AA
:1014C000124B2361D4E4726803F10051013902EB3D
:1014D000C10243E6092608006C03002061260800CB
:1014E000EC010020DC020020240300202003002067
:1014F0003C0300209D2C0800252708004D0D080006
:10150000A52D08008D2D0800692D0800452D080027
:1015100038B5084B04469847074B1A782AB9012575
:101520001C70064B9847284638BD0025034B98474A
:10153000284638BDFD350800303600203D3608000D
:101540000022014B1A70704730360020014B18788A
:10155000704700BF30360020F0B5042687B004463F
:101560000D460F220E210C480C4F02AB0096B847D7
:1015700070B9042D26462A46044628BF042225B108
:101580003046074B02A992009847204607B0F0BDAD
:101590001024204607B0F0BD00080E4001000020D6
:1015A000B938080003464269920743BFC1F30801F6
:1015B0000020D961012070474369DB0705D58369A5
:1015C0000020C3F308030B6070470120704700BF81
:1015D00001EB810100EB81010A67704701EB81019A
:1015E00000EB81014A67704701EB810100EB81014B
:1015F0008A67704701EB810100EB8101C1F880200F
:10160000704700BF70B52E4B2E4898472E4B0446AE
:101610002C489847044015D02C4D28680A2812D031
:1016200028690A281FD0286A0A2825D0286B0A288A
:101630002BD0286C0A2831D0286D0A2837D0286E84
:101640000A2809D070BD69680C42E9D0EB68984758
:101650006B689C43E4D1F5E7696E2142F2D0EB6EF2
:10166000BDE87040184769692142DCD0EB699847B2
:101670006B699C43D7D1E5E7696A2142D6D0EB6A12
:1016800098476B6A9C43D1D1DCE7696B0C42D0D0A0
:10169000EB6B98476B6B9C43CBD1D3E7696C0C42E7
:1016A000CAD0EB6C98476B6C9C43C5D1CAE7696D97
:1016B0000C42C4D0EB6D98476B6D9C43BFD170BD9D
:1016C000AD320800000C0E40B13208003436002064
:1016D00070B52E4B2E4898472E4B04462C48984701
:1016E000044015D02C4D28680B2812D028690B28EF
:1016F0001FD0286A0B2825D0286B0B282BD0286CEC
:101700000B2831D0286D0B2837D0286E0B2809D034
:1017100070BD69680C42E9D0EB6898476B689C43E0
:10172000E4D1F5E7696E2142F2D0EB6EBDE870407E
:10173000184769692142DCD0EB6998476B699C4383
:10174000D7D1E5E7696A2142D6D0EB6A98476B6A40
:101750009C43D1D1DCE7696B0C42D0D0EB6B98474E
:101760006B6B9C43CBD1D3E7696C0C42CAD0EB6C5A
:1017700098476B6C9C43C5D1CAE7696D0C42C4D0D5
:10178000EB6D98476B6D9C43BFD170BDAD320800C7
:10179000000E0E40B13208003436002070B52E4BDA
:1017A0002E4898472E4B04462C489847044015D0A5
:1017B0002C4D28680C2812D028690C281FD0286AC4
:1017C0000C2825D0286B0C282BD0286C0C2831D065
:1017D000286D0C2837D0286E0C2809D070BD696898
:1017E0000C42E9D0EB6898476B689C43E4D1F5E77D
:1017F000696E2142F2D0EB6EBDE87040184769690E
:101800002142DCD0EB6998476B699C43D7D1E5E76F
:10181000696A2142D6D0EB6A98476B6A9C43D1D162
:10182000DCE7696B0C42D0D0EB6B98476B6B9C4349
:10183000CBD1D3E7696C0C42CAD0EB6C98476B6C88
:101840009C43C5D1CAE7696D0C42C4D0EB6D984783
:101850006B6D9C43BFD170BDAD32080000100E40CF
:10186000B1320800343600202DE9F041411E6D4CA4
:1018700001EB410304EBC3031A7DD70768D5D3E915
:101880000256AE424FEA410C64D0AD1BB5F5803F25
:101890001DD8420102F1402202F52022D2F800E1D7
:1018A0002F041EF0080F00F08880D2F8002102F00B
:1018B000070E082202FA0EF2013A2A4200F0AE8028
:1018C0001A7D47F029076FF341021A750DE04301B5
:1018D00003F1402303F52023D3F80021170775D522
:1018E00021274FF48035D3F800310CEB010204EBD3
:1018F000C20253681E444C4B03EB00135E60EFF3CF
:10190000108E72B6BFF35F8F4FF00008474E86F817
:101910000080D3F80C8018F0100F61D0BEF1000FDA
:1019200004D101233370BFF35F8F62B60CEB010269
:1019300004EBC202D3683E4E936000F108035D01E0
:101940007559127D2E0701D5950729D4D20708D4E1
:10195000BDE8F081364E00F108035D0175592D0791
:101960001CD40CEB010504EBC50254F83560157D61
:101970006FF300051575002EEAD02D4A5B01D35890
:1019800061441B0748BF40F0800004EBC1040246DD
:101990003346A1680020BDE8F04118479207E0D522
:1019A0004FF400644FF480722149824001EB4313ED
:1019B0005C600B691A430A61CAE7D2F80031C3F3CD
:1019C0000113012B22D047F035078EE7D3F8002111
:1019D000C2F30112012A83D035274FF4803584E702
:1019E0009F604FF0007303FA01F1D36815611D4445
:1019F0000F4BD5601A6911431961BEF1000FA7D1D1
:101A000001233370BFF35F8F62B6A1E70823D2F8DA
:101A1000002102F007029340AB42D4D247F02107E5
:101A200063E700BFAC36002000430A406803002093
:101A300000400A402DE9F047EFF3108372B6BFF380
:101A40005F8F00204FF480615A4D5B4A2870C2F8C6
:101A5000081123B901232B70BFF35F8F62B6DFF843
:101A60005C8198F80030032B63D0554F554E3A886F
:101A7000B489A41AA4B2002C38D01346DFF84891D8
:101A80003F2C86BF00224024012289F80020B26842
:101A9000EFF3108672B6BFF35F8F002129704649BD
:101AA000D1F81C11890539D454B11A44474B184652
:101AB000013312F801CBD9B2A14280F800C0F6D3AD
:101AC0004FF480624FF400613B881C443A4B3C80E9
:101AD000C3F81821C3F81411C3F8042126B901234F
:101AE0002B70BFF35F8F62B6BDE8F0873849F0888E
:101AF0000B8813449BB298420B8042D0DFF8C89009
:101B000099F800A0BAF1000F3BD17369002B35D0D2
:101B10009847002849D101223B88B6E726B901231E
:101B20002B70BFF35F8F62B6042388F80030BDE8E6
:101B3000F087244E336903B19847EFF3108372B6F0
:101B4000BFF35F8F00204FF480611B4A2870C2F8FA
:101B5000081123B901232B70BFF35F8F62B64FF4D6
:101B60000071154A0020C2F8181100210023C6E9AF
:101B70000401B38188F80030BDE8F08713460122E4
:101B800083E7042388F80030EFF3108172B6BFF3C7
:101B90005F8F4FF480420020074B2870C3F8182154
:101BA000C3F8042100299FD199E73C805346B489AA
:101BB00066E700BF6803002000400A40AA36002004
:101BC000A6360020E0360020A436002000001820B1
:101BD000A83600202DE9F041854B1D209847854B04
:101BE000984728B9844B5B6913F0020300F08180A9
:101BF000814B5A6912076DD45A69570773D4D3F8C9
:101C00001C215969CE0521D54FF480404FF4004185
:101C1000D504C3F80801C3F8081100F1FF8054058A
:101C200004D5D3F80C31580500F17C82910500F100
:101C3000A281930404D54FF400516F4BC3F81811DF
:101C4000170400F18581550400F170826A4B1A690E
:101C5000940103D55B69980100F15483664B1A69BE
:101C6000910556D5D3F82C2112054CD5D3F83C312B
:101C700013F4006347D1012211464FF4006CDFF8E2
:101C800078E15E4C0EEB411603EB430004EBC0071A
:101C9000C6F808C1C6F814C13E7DC000F6074FEA79
:101CA00043052BD52658387D6FF3000038752EB3C9
:101CB000083149015EF801102B440F0704EBC304FF
:101CC000A1683346BDE8F0414FF0000048BF42F044
:101CD0008002184708229A615B69DB0710D5BDE8CE
:101CE000F041474B184704219961464ABDE8F0414D
:101CF000104772B6BFF35F8F434A1370BDE8F0819F
:101D0000404B9847EBE73C4BD3F82C21570300F1AD
:101D1000F380394B1A69560103D55B695D0100F107
:101D20001183354B1A6951051AD5D3F84C21120588
:101D300007D5D3F85C311F0503D4022201231146D5
:101D40009BE72D4BD3F84C21560309D5D3F85C31D2
:101D500013F4402F04D14FF4806601220223D6E011
:101D600025494C6914F0100440F054810B69980720
:101D70001BD54B699A0718D5202302258B610B6967
:101D8000224A23F002030B610B691D2043F020035C
:101D90000B618D6190471E4B98471E4A1378002BAC
:101DA00040F0858200231370A8E7134B5B699B0604
:101DB000A4D5184A1378002B00F00C8202240125C8
:101DC00020200D4B15709C6198611A69124922F010
:101DD00020021A611A6922431A611A6942F0080244
:101DE0001A611A6942F004021A61BDE8F04108471D
:101DF0004D310800AD34080000400A40AC360020E8
:101E000075090800E50D080068030020713108001D
:101E100065090800A53600206D090800744C237878
:101E200013B3744F3B6903B19847EFF3108272B656
:101E3000BFF35F8F00214FF480606F4B19706F49C3
:101E4000C1F8080122B901221A70BFF35F8F62B690
:101E50004FF40072694B00200021C3F818210023C1
:101E6000C7E90401BB812370644ED6F81C31C3F36B
:101E70000A53082B40F0B180614B5E4D1A782A70EE
:101E80005A786A709A78AA70DA78EA701A792A71A0
:101E90005A796A719979DA795A4BA971EA71984736
:101EA000002800F09A804FF48053C6F8183195F955
:101EB0000030002BC0F2F081EB88002B00F047824D
:101EC000002301204FF480424F4920700B804F497E
:101ED0000B80C6F81821EFF3108472B6BFF35F8F42
:101EE00045490B70C6F80421002C7FF407AF087039
:101EF000BFF35F8F62B601E7D3F83C3113F4402F94
:101F0000C3F381427FF405AF4FF4007601234FF411
:101F1000802020254024394902EB420201EB431383
:101F2000C3F80801086920EA06000861384901EB96
:101F3000C202117D6FF382011175D3F8082122F0DE
:101F40000202C3F80821C3F81451C3F81841D5E6BA
:101F50004FF40042294BC3F81821D3F81C21560531
:101F60003FF5CCAE224A1278032A7FF4C7AE202276
:101F7000C3F81421C2E61E4C2378012B00F0ED803B
:101F8000022B00F02081042B00F01D81052120226E
:101F90001A4B184F2170C3F81421EFF3108272B658
:101FA000BFF35F8F00214FF48060134B197013490A
:101FB000C1F8080122B901221A70BFF35F8F62B61F
:101FC0004FF400710D4A0023C2F8181100200021BF
:101FD000BB81C7E90401237090E6052120224FF45C
:101FE00080532170C6F81421C6F8183186E600BF68
:101FF000AA360020E03600206803002000400A4096
:1020000000001820350E0800A8360020A636002053
:10201000AC3600201023B04C8B61237D13F00102FD
:102020000DD025686FF30003237545B1D1F8203139
:10203000012013F0080F18BF8122A168A84794F867
:102040002C30DD0710D5A5696FF3000384F82C3020
:1020500055B1A24B0120D3F84031216A13F0080F8B
:1020600014BF82220222A8479D4B984701209B4B18
:102070001A6822F07F021A601A6842F080021A6021
:10208000D3F8002122F47F7222F0030242F04302CF
:10209000C3F80021C3F80401EFF3108472B6BFF354
:1020A0005F8F4FF4805200258E490D70C3F80421D4
:1020B0004FF40072C3F804211A6942F480721A6165
:1020C0001CB90870BFF35F8F62B6EFF3108372B66E
:1020D000BFF35F8F00244FF48060804A0C70C2F819
:1020E000080123B901230B70BFF35F8F62B600268E
:1020F000002700214FF400747B4A784BC2E9046743
:102100007A48C3F81841017091811A6942F00802B7
:102110001A611A6942F004021A611A6942F0020255
:102120001A61EBE5724BBDE8F04118474FF480436C
:102130006A4AC2F81831D2F81C3113F400737FF4E4
:10214000DDAD6A480178012900F01E8104297FF481
:10215000D5AD2023C2F81431D0E5604B654ED3F8DD
:102160001C51614F3388B7F80CC0C5F30A555A1992
:102170009445ACBF1FFA82FCACEB0305BA68B8BF4C
:10218000ADB21A44002D00F020815B4B184601339C
:102190000078D9B2A94202F8010BF7D3402DA6F876
:1021A00000C053D07B69A7F80CC03BB3984728BB4D
:1021B000052020214FF40072484B2070C3F8141101
:1021C000C3F818219AE5484F3B69002B3FF4E5AE70
:1021D0009847E2E6EFF3108472B6BFF35F8F414891
:1021E000464903708B7801338B70002C7FF4E6AD89
:1021F00001230370BFF35F8F62B6DFE54FF4007118
:102200000322364BC3F818112270EFF3108472B614
:10221000BFF35F8F002533484FF4806105704FF4A2
:1022200000424FF40065C3F81811C3F81451C3F805
:102230000411C3F81821C3F80421002C7FF45EAD0B
:1022400001230370BFF35F8F62B657E52C4DFA8808
:102250002B8863449A42A5DDBB89634500F0B880B2
:102260004FF400714FF480421C4BC3F81811C3F8AF
:102270001821EFF3108072B6BFF35F8F0024194965
:102280000C70C3F8042100287FF438AD01230B70D3
:10229000BFF35F8F62B631E500230221184D154868
:1022A0002B8003802170124ABDE8F0411047EFF304
:1022B000108572B6BFF35F8F0A48104904708B789F
:1022C000013B8B70002D7FF46DAD01230370BFF3D4
:1022D0005F8F62B666E500BFAC36002000400A4062
:1022E0004D0D080068030020E0360020AA360020CB
:1022F000351A0800A63600200000182014370020E8
:10230000A836002001204FF000750022384B03EB67
:102310000013D968CC073FF5F1AC364C216921EAAE
:1023200005012161DB681B0C08D0334902EB420236
:1023300001EBC202D168CB1AC2E90233BDE8F04119
:102340002E4B184702204FF080650122DEE7032262
:102350002270EFF3108072B6BFF35F8F28494FF4FD
:1023600080620B704FF400644FF40043C6F81821EC
:10237000C6F81441C6F80421C6F81831C6F804316D
:1023800000287FF4BBAC81E703240470EFF31085D1
:1023900072B6BFF35F8F1A4C4FF4806023704FF416
:1023A00000664FF40043C2F81801C2F81461C2F885
:1023B0000401C2F81831C2F80431002D7FF49EAC3C
:1023C0002170BFF35F8F62B698E4A6F800C0E9E61B
:1023D0007B69002B3FF4ECAE984700283FF4E8AE51
:1023E00000222B88318832800B442B8038E700BFD5
:1023F00000430A4000400A40AC360020691808003B
:10240000680300202DE9F041EFF3108672B6BFF3A8
:102410005F8F0021294B2A4C1A782170002A3BD06B
:102420000125284A1D201D704FF0080890470227FB
:102430004FF0040E4FF0100C2021234B1D201A6882
:1024400042F400621A601A6822F400721A601A6973
:1024500042F010021A611A6942F002021A611A6906
:1024600042F020021A611A6942F008021A611A69E0
:1024700042F004021A61C3F81880144AC3F818E045
:10248000C3F818C09F61996190471EB92570BFF3CA
:102490005F8F62B6BDE8F081EFF3108072B6BFF3D4
:1024A0005F8F0B4922708A7801328A700028B7D179
:1024B00001222270BFF35F8F62B6B1E7A53600201C
:1024C000680300204D31080000400A4071310800C7
:1024D00014370020F8B5254B9847254B1D20984709
:1024E000EFF3108672B6BFF35F8F00244FF0500EEB
:1024F0004FF0005C1F4A204D117D204B21F005015B
:10250000117592F82C102C7021F0050182F82C1016
:102510001A681B4F42F480721A6087F81DE3C7F8EF
:1025200000C0D3F8E0204FF4802022F00302C3F86B
:10253000E020144B9847144B1C70EFF3108172B6D7
:10254000BFF35F8F114A2C70D3780133D37021B958
:1025500001232B70BFF35F8F62B60D4B984726B9EE
:1025600001232B70BFF35F8F62B6F8BD492F0800BF
:102570004D310800AC3600206803002000400A40BE
:1025800000E100E095310800A53600201437002056
:102590000524080010B5164B1D209847154B1D202B
:1025A0001A68154942F400721A601A6822F400622F
:1025B0001A608847114B1A7812B900221A7010BDA0
:1025C000EFF3108472B6BFF35F8F4FF0000C0C492D
:1025D0000C488A78013A8A7080F800C0002CECD14F
:1025E00001220270BFF35F8F62B600221A7010BD25
:1025F0004D31080000400A4071310800A536002026
:102600001437002068030020024B586900F00100D5
:10261000704700BF00400A40084B00F07F001A6876
:1026200022F080021A601A6822F07F0202431A60C8
:102630001A6842F080021A60704700BF00400A40EA
:10264000024B186800F07F00704700BF00400A404E
:10265000024B5868C0F3CA00704700BF00400A40F0
:10266000014B986099817047E036002000F00F021E
:10267000022A00D97047F8B50127530103F1402021
:1026800000F520200346C0F80871D0F80001551E5F
:10269000164C05EB450120F0C00004EBC10CC3F85B
:1026A00000019CF8140005FA07F6C7074FEAC101BC
:1026B00013D5675801466FF300018CF8141067B109
:1026C000D3F8003101201B0706EB050304EBC3031D
:1026D000996848BF42F08002B847731904EBC303FE
:1026E0001A7D6FF382021A75F8BD00BFAC36002068
:1026F00000F00F00430103F1402303F52023D3F83A
:102700001C319B0609D4064B013800EB400003EB5B
:10271000C000007DC0F3800070470120704700BFFB
:10272000AC36002000F00F03022B2CD830B5254D1D
:10273000590105EB431EDEF81C21920621D4224CE0
:102740005A1E02EB420204EBC20C9CF8144014F037
:10275000040216D1E40718D4020618D44FF4005529
:10276000202401F1402303F52023D3F80821012080
:1027700022F00202C3F80821C3F81851C3F814412B
:1027800030BD012030BD00207047104630BDDEF85E
:102790001C2112F4402FE1D04FF480244FF48072BA
:1027A0009CF81410012041F004018CF8141003F17E
:1027B000080105EB41114C60296902FA03F30B4350
:1027C0002B6130BD00400A40AC36002000F00F0005
:1027D00002285AD870B500F1FF3C2D4C0CEB4C018F
:1027E00004EBC1010B7D4FEA4C025D0726D54FF487
:1027F00080264FF4807E0B7D0EFA00FE6FF382037D
:102800000B752449430101EB4015C5F808610869BF
:1028100020EA0E000861D5F81C118D0617D402EBD2
:102820000C0304EBC302117DDB00C80704D56FF372
:102830000001E35811759847012070BD430103F171
:10284000402101F52021D1F81C118906F4D503F1AE
:10285000402101F52021D1F81C01860406D54FF452
:102860000050C1F818014020C1F81801202003F1E0
:10287000402101F520210B46C1F81801D1F80411BF
:1028800041F00201C3F80411C9E70020704700BFFE
:10289000AC36002000400A4000F00F00022857D854
:1028A0002DE9F0414FEA401C0CF1402C0CF5202C96
:1028B000DCF80C41E50748D5DCF81C41A40644D4FB
:1028C000451E284E05EB450C06EBCC0C9CF814403D
:1028D0006F0014F0040E38D1EFF3108472B6BFF31A
:1028E0005F8FDFF8848088F800E09CF814E01EF029
:1028F000010F29D19CF814E04EF0010E8CF814E081
:102900002CB9012488F80040BFF35F8F62B64FF006
:10291000000CDDF818E07C1946F834E006EBC4043E
:10292000C4E90123C4E903CC11B9B3FA83F149091D
:102930007B1906EBC3031A7D61F341021A750B493B
:1029400088470120BDE8F08124B10020BDE8F08176
:1029500000207047012388F80030BFF35F8F62B614
:102960002046F3E7AC360020680300206918080011
:102970002DE9F04F00F00F04022C83B000F23581F6
:102980004FEA441C0CF1402303F520238046D3F882
:102990000C01A64610F0010040F0278101F003056C
:1029A000022D00F02E81032D00F02381012D40F037
:1029B0001D81002C00F01D8102F4C053B3F5006F9F
:1029C00000F02181B3F5805F08BF03254027012671
:1029D00022F4C05292B20CF1402C09010CF5202CCB
:1029E00001F03003DCF8001118F0800F21F47F7142
:1029F00014BF4FF008084FF0000821F00301B2F5B2
:102A0000806F41EA030180F0FA80082A38BF08226B
:102A10005300013BB3FA83F3C3F11C03394341EA8A
:102A2000080806B1280243EA08031843CCF800015D
:102A3000DCF80031002B80F2D8800127022300252A
:102A4000934ECCF8047106EB4318D8F80C11581EBD
:102A5000C9074FEA431214D502F1402202F52022A1
:102A6000D2F800115B00C1F3811101FA03F3C8F839
:102A700008712B439DB2D2F8003123F0C003C2F895
:102A80000031C3B29C42DED9630045FA03F313F070
:102A900003022AD0631E7F4E03EB43084FF0010A66
:102AA00006EBC800077DDCF80011B94621F0C00133
:102AB00041EA8212CCF80021CCF804A1DCF8002114
:102AC0006FF30009002A4FEAC80807EA0A0780F8EE
:102AD000149003FA0AF171DADCF8043143F00203CE
:102AE000CCF80431002F40F0A480601CC0B2032851
:102AF0005FD0430045FA03F313F00301864631D05B
:102B0000431E644E03EB43094FF0010A06EBC9076D
:102B100097F814C04201E04602F1402202F520225B
:102B2000D2F800B10CEA0A0C2BF0C00B4BEA811171
:102B3000C2F80011C2F804A1D2F800A16FF3000896
:102B4000BAF1000F4FEAC90987F814804FEA430130
:102B500033DAD2F8043143F00203C2F80431BCF195
:102B6000000F52D12CBB15F0300FC5F3011020D04F
:102B7000484E474A96F82C3003F0010564F30003F1
:102B800086F82C300123D2F8401121F0C00141EA2F
:102B90008011C2F84011C2F84431D2F84011002926
:102BA00072DAD2F8443143F00203C2F84431002D06
:102BB00055D1012003B0BDE8F08F0446CA1856F87D
:102BC000325095B1324A0EF1080E4FEA4E1E52F8BD
:102BD0000E200B44120744BF64F07F04E4B206EBFE
:102BE000C30622460120F168A847002003B0BDE8D3
:102BF000F08F402712F4C056F7D13546EBE6072395
:102C00000CE78027F6E70225E0E656F80930224E69
:102C10000093B968D7E9033211449A1ACB1A79683C
:102C2000FA600A44397DC1F34001B047002899D1C8
:102C3000DBE756F80830184E00938168D0E903327C
:102C400011449A1ACB1A4168C2600A44017D204699
:102C5000C1F34001B04700287FF447AFC5E7D6E98C
:102C60000931D6E90724581A21447062CB1A02446C
:102C700096F82C10B069084C0090C1F34001022076
:102C8000A047002895D1B0E70224A646214695E743
:102C900000400A40AC360020992808000021264B4D
:102CA00000F00F0203EB0213000630B5996028D440
:102CB000511E224801EB410300EBC30494F814E0D9
:102CC0004FEA410C1EF0010F4FEAC30318D0C5585C
:102CD00073466FF30003237595B1194C02F1080395
:102CE0005B01E35861441B0700EBC1012B46BDE8C3
:102CF00030404FF00100896848BF42F08002184719
:102D000030BD530103F1402303F52023D3F81C11F8
:102D100011F4402FCCD04FF4007403F58A7CCCF82A
:102D20000040D3F81C118905FBD4D3F81C1111F411
:102D3000402FF4D1BCE700BF00430A40AC3600206E
:102D400000400A40074AD2F8E03023F0030343F082
:102D50000203C2F8E030D2F8E03043F00403C2F8D6
:102D6000E030704700400A40074AD2F8E03023F0D4
:102D7000030343F00203C2F8E030D2F8E03043F03E
:102D80000803C2F8E030704700400A40044AD2F815
:102D9000E03023F0030343F00203C2F8E030704751
:102DA00000400A402DE9F0418EB06D464FF0010819
:102DB000EC46214E214F0FCE0FC50FCE0FC50FCEC3
:102DC0000FC596E8030045F8040B2970C7F8088181
:102DD000D7F80031CCF1005E23F47F7323F00303B6
:102DE00043F06B03C7F80031C7F80481D7F8E0302F
:102DF0000DF1350423F0030343F00203C7F8E0307C
:102E0000D7F8E0300EF5C01E43F01003C7F8E030ED
:102E10000CEB0E031CF8012BA4451A70F8D14FF4EB
:102E200080614FF40062054BC3F81811C3F81421F8
:102E30000EB0BDE8F08100BF9CA8080000400A4029
:102E4000013802281AD8DAB12DE9F0410D461446AE
:102E50000C4FDFF83480561C01E0013C0BD0386881
:102E6000D8F8003015F8011B98470028A6EB04029B
:102E7000F3DA4FF0FF321046BDE8F0814FF0FF3239
:102E800010467047FC360020F8360020112804D088
:102E9000102802D04C2800D07047014B184700BFC3
:102EA000D1320800112804D0102802D04C2800D0BC
:102EB0007047014B184700BFB53208001749184842
:102EC00008B5814209D0174A904206D2013A121A37
:102ED00022F00302144B043298471448144A9042DB
:102EE00007D2013A121A22F003020021114B0432D8
:102EF0009847114B114923F0604203F1604322F0DF
:102F00007F02B3F5404F8A6003D28B6843F00053D1
:102F10008B600B4B98470B4B9847FEE71CAD0800A6
:102F200000000020A80D0020B9380800A80D0020DE
:102F300064370020A53908000000080000ED00E01B
:102F4000493808002D02080010B53E20074B98476D
:102F5000074CA0470028FCD04FF47102054B064CEB
:102F6000DA61A0470028FCD010BD00BFB1300800D6
:102F7000D530080000040E403D31080070B51248FD
:102F8000124DA8473E20124B9847124CA0470028EC
:102F9000FCD04FF08070104B9847104CA047002891
:102FA000FCD00F4B98470F4B0F4A104C9A62A0472A
:102FB0000028FCD00E4B102098470E4B98472B460C
:102FC000BDE870400048184700D8B80581010020CE
:102FD000B1300800D5300800F5300800E5300800B1
:102FE0001D31080000040E40013F0F202D31080064
:102FF00055300800A936080015490B6B23F0030370
:1030000043F001030B638B6E1B0758BF4FF4006343
:1030100002D504E0013B16D08A6E1207FAD50C499E
:103020000B6B23F0700303430B63886E10F00800F2
:1030300008BF4FF4006302D007E0013B03D08A6E63
:103040001207FAD57047012070470020704700BF73
:1030500000040E4015490B6B23F0700303430B6310
:103060008B6E1B0758BF4FF4006302D504E0013B91
:1030700017D08A6E1007FAD50C490B6B23F00303A7
:1030800043F002030B63886E10F0080008BF4FF492
:10309000006302D007E0013B03D08A6E1207FAD525
:1030A0007047012070470020704700BF00040E40A9
:1030B000074A0302116A9BB221F003010B4343F458
:1030C0005C1343F001031362936EDB07FCD570477A
:1030D00000040E40024B986E00F00100704700BFE4
:1030E00000040E40024B986E00F48030704700BF21
:1030F00000040E40084B1B6A30B1074A43F080734E
:1031000043F45C1313627047034A23F0807343F463
:103110005C131362704700BF00040E404FF0005272
:10312000014B9A62704700BF00040E40024B986E3C
:1031300000F00200704700BF00040E40024B986E82
:1031400000F04000704700BF00040E401D280AD860
:103150000123064A83409169002033EA010101D02E
:103160001361704770470120704700BF00040E4094
:103170001D280AD80123064A83409169002033EABA
:10318000010100D07047536170470120704700BFB4
:1031900000040E40034BC0F312001A6F104318676F
:1031A000704700BF00040E40014B1878704700BF05
:1031B00000370020024B1B7803B17047014B1847C2
:1031C00000370020C1090800084B93F900201B7844
:1031D000002A03F0600303DB402B05D0002070477A
:1031E000402BFBD1024B1847024B1847E03600201A
:1031F0001D0A0800CD090800064B10B59847064A7D
:10320000C37813700BB1012010BD044BBDE8104012
:10321000184700BF390D0800003700209909080041
:1032200030B58446154683B00B4662460021034CF8
:1032300000958120A04703B030BD00BF9928080049
:1032400030B58446154683B00B4662460021034CD8
:1032500000950220A04703B030BD00BF99280800A8
:1032600038B5A1F10E03012B17D9EFF3108572B613
:10327000BFF35F8F00230A4CC9B22370094B03EAE6
:1032800002221143084B41F0B441984725B901236C
:103290002370BFF35F8F62B638BD4FF0FF3038BD8B
:1032A0006803002000FFFF00DD000020C06C7047B5
:1032B000806C70470122430903F5001303F2067383
:1032C00000F01F005B0202FA00F01863704700BFB5
:1032D0000122430903F5001303F2067300F01F00F7
:1032E0005B0202FA00F05863704700BF430903F520
:1032F000001301F0F04203F20673B2F1205F4FEACF
:10330000432335D010B416D8B2F1006F1BD0B2F100
:10331000805F15D14FF0010C00F01F000CFA00F295
:103320005A64186F1043186711EA0C005A601BD0DA
:103330005A6610BC704701F0E042B2F1405F2FD0F6
:10334000002010BC70474FF0010C00F01F000CFA79
:1033500000F25A64186F1C6F204020EA02001867C0
:1033600011EA0C005A60E3D11A66604610BC70473F
:10337000012200F01F008240C8075A644CBF5A6601
:103380001A6611F00A0F14BF1A625A62880722D413
:10339000080748BFC3F8842001205A611A607047AB
:1033A000012200F01F00824001F0605CC1F3800444
:1033B000C9075A644CBF5A661A6654B95A65BCF1BB
:1033C000605F0CBF1A635A631A611A60012010BC57
:1033D00070471A65F3E7C3F8802001205A611A602C
:1033E000704700BF034602F0F040B0F1205F29D0E3
:1033F00010B410D8B0F1006F15D0B0F1805F0FD1CC
:103400005964186F0843186712F00100596015D00D
:10341000596610BC704702F0E040B0F1405F25D023
:10342000002010BC70475964186F1C6F204020EAC0
:103430000100186712F001005960E9D119660120F6
:1034400010BC7047D00759644CBF5966196612F01A
:103450000A0F14BF1962596290071ED4100748BFA3
:10346000C3F88410012059611960704702F0605060
:10347000C2F38004D20759644CBF5966196654B927
:103480005965B0F1605F0CBF196359631961196028
:10349000012010BC70471965F3E7C3F880100120C4
:1034A00059611960704700BFFEE700BF024B1878F2
:1034B00080F00100704700BF013700200C4A03462E
:1034C00010680C4930B103448B42CCBF4FF0FF3041
:1034D0001360704710B4084C23448B421460D8BF6B
:1034E00013602046C8BF4FF0FF3010BC704700BFCC
:1034F00004370020FC3F0820004008204FF0FF3038
:10350000704700BF4FF4005300204B60704700BF6E
:103510000120704700207047014608B50148024B62
:103520009847FEE7D4A8080091380800704700BF0C
:103530004FF0FF30704700BFAC2303600246D1E973
:103540000030B3FBF0F34FF6FE7C1B09581E6045BC
:103550000CD830B440F20225502413628B6800204E
:103560005360C2F82051146030BC7047012070478E
:1035700003464269920746BF0020D9610120704787
:103580004369DB0743BF836900200B70012070474C
:103590004FF40042134B70B50A205A65124DA847EC
:1035A0000B20A8470C20A847104C4FF06051112069
:1035B000A0474FF060511020A0474FF060514C20C1
:1035C000A0474FF040515320A0475320084B984745
:1035D000BDE870404FF000624FF4C0510548064B03
:1035E000184700BF00120E404D310800ED320800B0
:1035F000D1320800000C0E40E53308000C4B1A686D
:1036000022B9EFF3108129B10A490A701A68013210
:103610001A60704710B472B6BFF35F8F0120064C7A
:10362000044A217010701A6801321A6010BC704789
:10363000083700200C37002068030020074B1A6869
:10364000013A1A601B6843B9054B1B782BB1012264
:10365000044B1A70BFF35F8F62B6704708370020C3
:103660000C370020680300202DE9F041A0B9002AA2
:1036700090460DDD0C460A4F0A4E8D1821463868DB
:10368000336801349847AC42F8D14046BDE8F08138
:1036900080464046BDE8F0814FF0FF38F5E700BFB7
:1036A000FC36002010370020324A136B03F003036E
:1036B000012B4AD0023B012B3DD8136AD9011DD4FE
:1036C000126A02F07002102A4FD02B492B4B202A8D
:1036D00018BF0B4627490A6B02F00302022A14D0D6
:1036E000274B24490A6B02F07002702A1CD00A6B27
:1036F000C2F30212D340234A136070471F4B1D4987
:103700000A6B02F00302022AEAD1886A8A6AC0F3CD
:103710000A4101FB03331749D2B2B3FBF2F30A6B40
:1037200002F07002702AE2D1174AA2FB0323154A65
:103730005B0813607047154B5B6A13F0800F0CBF7A
:103740004FF4FA434FF40043CBE7136ADB010AD48A
:10375000126A02F07002102A09D0084B0649202A8A
:1037600018BF0B46BDE7054BBBE7094BC7E7084B46
:10377000B7E700BF00040E4000093D00001BB70082
:10378000001C4E0EF8030020ABAAAAAA00120E409D
:1037900000127A0010B51120044CA0471020A04759
:1037A0002346BDE810404C20184700BF8D2E08006E
:1037B00010B51120054CA0471020A0474C20A04771
:1037C000BDE810405320024B184700BF8D2E080063
:1037D000B532080010B51120034B9847BDE81040E2
:1037E0005320024B184700BFA52E0800D132080015
:1037F0004FF47A71114B10B5A3FB00239B0901FB19
:1038000013039BB20446ABB1B3F5FA7F03D0C4F304
:1038100008043CB110BD1120094BC4F308049847BB
:10382000002CF7D1064C1020A0472346BDE81040DD
:103830004C2018471120034B9847E8E7D34D6210FE
:103840008D2E0800A52E080070B50D4E0D4D761B6F
:10385000B61006D0002455F8043B01349847A64220
:10386000F9D1094E094D07F043FA761BB61006D080
:10387000002455F8043B01349847A642F9D170BDA5
:10388000FCAC0800FCAC080004AD0800FCAC08006F
:103890000FB400B5074A83B004AB106853F8042B8B
:1038A0008168019301F0C2FF03B05DF804EB04B03E
:1038B000704700BFFC030020844641EA000313F078
:1038C000030349D1403A23D30B6803604B6843603C
:1038D0008B688360CB68C3600B6903614B6943618C
:1038E0008B698361CB69C3610B6A03624B6A436274
:1038F0008B6A8362CB6AC3620B6B03634B6B43635C
:103900008B6B8363CB6BC36340304031403ADBD277
:1039100030320BD30B6803604B6843608B68836065
:10392000CB68C36010301031103AF3D20C3205D39B
:1039300051F8043B40F8043B043AF9D2043208D071
:10394000D2071CBF11F8013B00F8013B01D30B88E3
:1039500003806046704700BF082A13D38B07B1D09D
:1039600010F00303AED0C3F10403D21ADB071CBF6F
:1039700011F8013B00F8013BA4D331F8023B20F8D9
:10398000023B9FE7043AD9D3013A11F8013B00F812
:10399000013BF9D20B7803704B7843708B788370BE
:1039A00060467047830730B548D0541E002A3FD088
:1039B0000346CAB201E0013C3AD303F8012B9D074C
:1039C000F9D1032C2DD9CDB245EA05250F2C45EAB6
:1039D000054536D9A4F1100222F00F0C03F1200E98
:1039E000E6444FEA121C03F1100242E9045542E991
:1039F000025510327245F8D10CF1010214F00C0F8F
:103A000003EB021204F00F0C13D0ACF1040323F00B
:103A100003030433134442F8045B9342FBD10CF0DC
:103A200003042CB1CAB21C4403F8012B9C42FBD105
:103A300030BD64461346002CF4D1F9E70346144622
:103A4000BFE71A46A446E0E700294FF480630CBFA5
:103A50000222002200F000B82DE9F043694C0E4626
:103A6000D4F80080174604461D4683B0B8F1000F15
:103A700003D0D8F83830002B77D0022F05D0012F93
:103A800000F2AC80002DC0F2A980636EDA0752D537
:103A90002146404603F0E0FE216B41B104F14003B2
:103AA000994202D0404604F087F8002323630023A4
:103AB000B4F90CC0A3611CF0800F636064D12CF4D6
:103AC0004A6C2CF0030C022FA4F80CC06AD001AB96
:103AD000214640466A4604F08DFBA3891843A08125
:103AE000002D2FD0002E2ED0D8F83830002B38D013
:103AF000009BC4E90465AB42B4F90C3026601CBFDE
:103B000043F40063A381012F04BF43F00103A381A9
:103B10009AB213F008032CD0D1075DD500216D4275
:103B2000A561656EA16015F0010527D00025284626
:103B300003B0BDE8F083A3899B05A9D4A06D04F070
:103B4000E5FAA5E7009D284604F084FB0646002818
:103B500047D0A38943F08003A381D8F83830002BE5
:103B6000C6D1404603F0ACFEC2E7404603F0A8FED3
:103B700083E7A360656E15F00105D7D1930524D5C1
:103B8000284603B0BDE8F0834046216904F014F8EC
:103B9000B4F90CC0022F2CF44A6C2CF0030CA4F8DE
:103BA0000CC094D100250021012204F143032360BD
:103BB0002361636E4CF0020CD807A4F80CC0A1601E
:103BC0006261DDD41CF4007FDAD1A06D04F0A0FAAC
:103BD000284603B0BDE8F083A560CBE74FF0FF3582
:103BE000CEE7DDF80090A94504D0484604F032FB4A
:103BF000064620B94FF0FF35B4F90CC0D3E74D4667
:103C0000A7E700BFFC0300200EB430B504466FF0F8
:103C100000459CB00B4A1FAB0B49059253F8042B8F
:103C2000086802A9CDE9013407950495069400F0CF
:103C30006FF80022029B1A701CB0BDE8304003B040
:103C4000704700BF0802FFFFFC03002020F00301C3
:103C500010F00300C0F1000051F8043B00F1040C27
:103C60004FEACC0C6FF000021CBF22FA0CF2134397
:103C70004FF0010C4CEA0C2C4CEA0C4CA3EB0C0260
:103C800022EA030212EACC1204BF51F8043B0430CA
:103C9000F4D0C2F1000102EA0102B2FA82F2C2F1EA
:103CA0001F0200EBD200704730B540EA0104A307C1
:103CB00022D1032A20D90B468446194653F8045BC7
:103CC000A5F1013424EA050414F0803F15D1043A2B
:103CD000032A19464CF8045BEFD801F1FF3E52B1BC
:103CE00063461EF8011F541E03F8011B41B1224612
:103CF0009C46002AF4D130BD844601F1FF3EEEE738
:103D00006244002CF7D003F8011B9342FBD130BD75
:103D10002DE9F04FD5B00C460C9191460E930A90C8
:103D200004F0ECF9036818461793FFF78FFFA38997
:103D30001690190603D52369002B00F08F87002405
:103D40002BAB224698464D46CDE929442893129440
:103D500000230024CDE914342B78CDE91922CDE9D4
:103D60001B2218920892002B00F0CE81AA4604E094
:103D70001AF8013F002B00F00981252BF8D1BAEB8E
:103D8000050640F007819AF80030002B00F0BC8156
:103D900000234FF0FF324FF02B0920241F469AF8E2
:103DA000016007920AF1010A8DF8833009930AF144
:103DB000010AA6F120035A2B00F22081DFE813F05C
:103DC000CA021E011E01C5021E011E011E01A30220
:103DD0001E011E016A00F3021E014702D9021E01E4
:103DE000D4025B005B005B005B005B005B005B0080
:103DF0005B005B001E011E011E011E011E011E0153
:103E00001E01B0011E010B027A00B001B001B00129
:103E10001E011E011E011E019E021E011E01B60092
:103E20001E011E011E0119021E014C021E011E016F
:103E30003F071E011E011E011E011E011E011E0163
:103E40001E01B0011E010B027C00B001B001B001E7
:103E500091027C0075001E0184021E017002B800F0
:103E60005E0275001E01190272001C071E011E0170
:103E70001F071E0172000022A6F130031AF8016B21
:103E800002EB820203EB4202A6F13003092BF5D9C3
:103E900009928EE70E9B53F8042B002A09920E9389
:103EA000C0F2D2819AF8006081E79AF8006047F08A
:103EB00020077CE747F01007BA060E9B40F17D8192
:103EC000073323F007031A465B6852F8084B9946FC
:103ED0000E92002BC0F27F85079B013301F03980E1
:103EE00054EA090327F0800B00F005850A2C79F1CC
:103EF000000380F0938701235F4630348DF84F41F3
:103F00000B930DF24F15079A0B9900238A42B8BF05
:103F10000A4606929DF883200D930F9313931093F6
:103F2000002A7CD0069B0133069378E047F0100707
:103F300017F0200900F032810E9B073323F00703AE
:103F4000D3F8049053F8084B0E93002327F4806BAA
:103F500000228DF88320079A511C00F02A8254EA2F
:103F600009012BF0800740F02382002A41F02B80CA
:103F7000002B40F0C5841BF001030B9300F0548527
:103F800030230DF24F158DF84F31BCE7BAEB050623
:103F900000F0BA802A9BC8E9005633442A93299B33
:103FA0000133072B299305DC08F10808089B3344EB
:103FB0000893E8E60C990A9828AA05F007FB80B94F
:103FC0000DF1AC08F2E70C990A9828AA05F0FEFA60
:103FD000002800F08A800D9B1BB10D990A9803F010
:103FE000EBFD0C9B9B8913F0400F089B18BF4FF013
:103FF000FF330893089855B0BDE8F08F002E00F00D
:104000008380012300228DF8EC6006933BAD8DF890
:1040100083200B930D9207920F921392109217F038
:10402000020302D006990231069117F0840B07D1E2
:1040300009990698A1EB0009B9F1000F00F3368346
:104040002A9C82B10122C8F80420299A0134013245
:104050000DF18301072A2A942992C8F8001000F371
:10406000698308F108087BB10223C8F80430299B52
:104070000234013321AA072B2A942993C8F800207F
:1040800000F36C8308F10808BBF1800F00F02E826A
:10409000079B0B9AA3EB020BBBF1000F00F371829D
:1040A000FB0500F1C5810B9BC8F800501C44C8F803
:1040B0000430299B2A940133072B299300F3EA82C9
:1040C00008F108087B0705D5099B069A9D1A002D63
:1040D00000F35083DDE9083206998A42ACBF9B1891
:1040E0005B180893002C7FF46EAF002329930D9B7F
:1040F0001BB10D990A9803F05FFD55460DF1AC0810
:104100002B78002B7FF432AE2A9B002B3FF469AF53
:104110000C9C0A98214628AA05F058FAA38962E760
:104120000E9B073323F00702F2E80234CDE9143482
:10413000DDE9143424F00044994618460E922146D5
:104140004FF0FF32B64B06F081F9002840F096841C
:10415000484621464FF0FF32B14B06F059F900288E
:1041600040F08C84DDE914010022002306F046F9BA
:10417000002840F0A6879DF8832000210320A94D48
:10418000A94B27F080070D910690472EC8BF1D460A
:1041900007910B900F9113911091C1E617F0100346
:1041A00040F0628417F0400200F07B870E9A994637
:1041B00052F8044B0E92A4B2C7E653F8044B0E9388
:1041C000FB0600F141847D0640F13B8444F3C03995
:1041D0004B4624B27DE6012000220E9B069053F848
:1041E000041B3BAD8DF883208DF8EC100E930B90E3
:1041F00010E74FF000090E9C079B54F8045B8DF804
:104200008390002D00F0EE865A1C00F060851A465F
:104210004946284604F0E8FA0D90002801F09E80F7
:104220000D9B9DF883205B1B0B9323EAE373CDF872
:104230001C900E940693CDF83490CDF83C90CDF8B8
:104240004C90CDF840906BE6099B5B4209939AF83D
:10425000006047F00407AAE547F0100B1BF02009A7
:1042600000F0AA830E9B073323F007031A4652F887
:10427000084BD3F804900E92012369E63022782689
:104280000E9B8DF8842053F8044B684A0E934FF030
:104290000009022347F0020B8DF88560189257E65B
:1042A000BD0600F1D683FC0600F19386780600F186
:1042B0005D87B90540F18D860E9B089953F8042B54
:1042C000554611700E931BE79AF800606C2E03BFE1
:1042D0009AF8016047F020070AF1010A47F0100739
:1042E00065E59AF80060682E03BF9AF8016047F40C
:1042F00000770AF1010A47F0400758E59AF8006094
:1043000047F0080753E50A9E304603F0F7FE43687E
:1043100018461B93FFF79AFC034630461C931E4633
:1043200003F0ECFE83681993002E3FF4BBAD199B9C
:10433000002B3FF4B7AD199B1B78002B3FF4B2ADB7
:104340009AF8006047F4806731E59AF8006047F01A
:1043500001072CE59DF88330002B7FF4A3AD9AF87C
:1043600000608DF8834022E59AF8006047F08007EE
:104370001DE5524612F8016B2A2E01F0EB81A6F1E1
:104380003003092B924698BF002201F203801AF8ED
:10439000016B02EB820203EB4202A6F13003092B10
:1043A000F5D9079205E59AF800608DF88390FEE450
:1043B000BB46012B3FF49AAD022B54AD12D1189A93
:1043C00004F00F03D35C240944EA09744FEA191975
:1043D00005F8013D54EA0903F2D154AB5B1B5F467B
:1043E0000B9390E504F00703E40844EA49744FEAAC
:1043F000D909303354EA09012A4605F8013DF1D1C3
:104400001BF0010FE9D0302BE7D03023023A05F83A
:10441000013C54AB9B1A5F4615460B9373E500BFF6
:10442000FFFFEF7FF4A80800F8A8080004A908001F
:10443000652E40F3E980DDE914010022002305F038
:10444000D3FF002800F0D2810123C8F80430299B53
:10445000BF4A01330134072B2A942993C8F800205E
:1044600000F37A8508F10808229B129A934280F2A1
:10447000D782169B179A1C44C8E90023299B2A94CB
:104480000133072B299300F3DD8308F10808129B01
:104490005D1E002D7FF716AE102D41F34181DFF830
:1044A000B492224649461026B946299B0F46DDF8AC
:1044B00028B00C9C05E008F10808103D102D40F3D1
:1044C000588501331032072BC8E90076CDE929322F
:1044D000F1DD2146584628AA05F078F800287FF437
:1044E0007AADDDE929320DF1AC08E6E7099B069AC1
:1044F000A3EB020BBBF1000F7FF7CAADBBF1100FAE
:1045000041F30580DFF84C9241462046A8464C46D0
:104510001023299A0C9DDDF8289006E0ABF1100BD2
:10452000BBF1100F01F1080119DD01321030072A2B
:10453000C1E90043CDE92920F0DD2946484628AAF3
:1045400005F044F800287FF446ADDDE92920ABF101
:10455000100BBBF1100F4FF010032BA9E5DC454603
:10456000A1468846044601325C44072ACDE9292445
:10457000C8F80090C8F804B000F3188508F10808DE
:1045800086E5BBF1100F40F39785DFF8C8914146EF
:104590002046A8464C461023299A0C9DDDF8289009
:1045A00006E0ABF1100BBBF1100F01F1080119DDB2
:1045B00001321030072AC1E90043CDE92920F0DD9E
:1045C0002946484628AA05F001F800287FF403ADE3
:1045D000DDE92920ABF1100BBBF1100F4FF01003F8
:1045E0002BA9E5DC4546A1468846044601325C44D9
:1045F000072ACDE92924C8F80090C8F804B000F3D0
:10460000CE8108F108084BE5129B012B40F37E8117
:104610000123299E01341E44072EC8F800502A9415
:10462000C8F80430299600F3E18108F10808169BC8
:104630000136179A1C44072EC8E90023CDE92964E6
:1046400000F3E18108F108080022DDE914010023EC
:1046500005F0CAFE002840F07681129B0136013B2E
:1046600001351C44072EC8F800502996C8F80430BC
:104670002A9400F35B8108F108081A9B01361C4458
:10468000C8F80430072E24ABCDE92964C8F80030FF
:104690007FF716AD0C990A9828AA04F097FF002816
:1046A0007FF499AC2A9C0DF1AC080BE5B9F1100F21
:1046B00040F35086DDE929214046CDE91D36B84654
:1046C00010244F460C9EA9460A9D04E0103F102F6F
:1046D00000F1080016DD01321F4B1031072AC0E936
:1046E0000034CDE92921F1DD3146284628AA04F01D
:1046F0006DFF00287FF46FACDDE92921103F102FFA
:104700002BA8E8DC4D46DDE91D36B9464746804614
:1047100009EB010401321049072ACDE92924C8F820
:104720000490C8F8001000F3C3839DF8832008F1BB
:10473000080886E40C990A9828AA1D9304F046FFFD
:1047400000287FF448AC2A9C1D9B0DF1AC088AE43C
:1047500034A9080048A9080038A908000C990A984B
:1047600028AA04F033FF00287FF435AC2A9C0DF111
:10477000AC0889E4102D40F3C4861026299B0A9FBB
:10478000DDF8309004E0103D102D08F1080817DD29
:104790000133B84A1034072BC8E90026CDE9293483
:1047A000F1DD4946384628AA04F010FF00287FF4BE
:1047B00012ACDDE92934103D102D0DF1AC08E7DC19
:1047C0000133AC4A2C44072BCDE92934C8F80450F6
:1047D000C8F800207FF77EAC0C990A9828AA04F04C
:1047E000F5FE00287FF4F7AB2A9C73E42299002998
:1047F00040F36F83DDF84090129B9945A8BF99461E
:10480000B9F1000F0BDD299B4C440133072BC8E99C
:1048100000592A94299300F31D8508F10808109E79
:10482000B9F1000FA8BFA6EB0906002E00F3258200
:10483000DDF840B07805AB4400F15F82229B129A0C
:10484000934202DBF90740F17684169A17991444D3
:10485000C8E90012299A2A940132072A299200F302
:10486000138508F10808129AAE18A6EB0B06D51AA4
:10487000AE42A8BF2E46002E0DDD299B34440133E5
:10488000072BC8F800B0C8F804602A94299300F3F5
:10489000718508F10808002EA8BFAD1B002D7FF719
:1048A00011AC102D40F33C87DFF8CC9122464946ED
:1048B0001026B946299B0F46DDF828B00C9C05E070
:1048C00008F10808103D102D40F3538301331032D6
:1048D000072BC8E90076CDE92932F1DD214658469B
:1048E00028AA04F073FE00287FF475ABDDE92932B5
:1048F0000DF1AC08E6E7079B002B7FF4FCAA5F46AE
:10490000002354AD07930B93FFF7FDBAFA073FF569
:104910007FAE0123299E01341E44072EC8F80050A3
:104920002A94C8F8043029967FF7A5AE0C990A9806
:1049300028AA04F04BFE00287FF44DABDDE9296482
:104940000DF1AC0899E6129B5D1E002D7FF795AE28
:10495000102D40F3DF86224607974FF0100BDFF84B
:1049600018910A9C0C9F05E008F10808103D102DD5
:1049700040F37F8301361032072EC8E9009BCDE952
:104980002962F1DD3946204628AA04F01FFE0028DE
:104990007FF421ABDDE929620DF1AC08E6E70C9963
:1049A0000A9828AA04F012FE00287FF414AB2A9C6F
:1049B0000DF1AC08FFF774BB1BF010030E9A3AD14F
:1049C0001BF0400133D052F8044B99460E9201235C
:1049D000A4B2FFF7BDBA2D2364428DF88330BB46E5
:1049E0004FF0010369EB4909FFF7B5BA0C990A9832
:1049F00028AA04F0EBFD00287FF4EDAADDE9296484
:104A00000DF1AC0813E60C990A9828AA04F0DEFD13
:104A100000287FF4E0AADDE929640DF1AC0813E673
:104A2000FD077FF54FAB24E554ADFFF76CBA1BF4DF
:104A3000007940F08A8352F8044B01230E92FFF76D
:104A400087BAB80500F19B834FEAE4794B46FFF73C
:104A500040BA0E9B089853F8041BC2175546C1E98B
:104A600000020E93FFF74CBB0E9B53F8044B0E93C2
:104A7000FFF76BBA38A9080048A90800DDE914015E
:104A800002460B4605F0E2FC002840F0E985612E65
:104A900000F07D85412E00F08B84079B013300F0F0
:104AA0008F8326F02003472B069300F08F85DDE9E6
:104AB000141247F480730F931346002BC0F2B08595
:104AC0000B9300238B461D930D93069B462B00F002
:104AD000E983452B00F0468507990B9B0191022144
:104AE000009126A9049123A9039122A95A460A9864
:104AF000029101F0B9FE069B0546472B40F03A862D
:104B000017F0010FB9460F9F40F0FE84269B5B1BF8
:104B10001293069B472B00F06E83069B462B00F0FA
:104B2000F083229B1093109B069A013B412A22930B
:104B300000F0BB850021F2B2002B8DF89020B6BFAB
:104B40002D222B22109B8DF89120B8BFC3F10103B9
:104B5000092B40F39B850DF19F0C6246B64F1C4616
:104B6000104687FB0312D917C1EBA20101EB8102AA
:104B7000A3EB42023032632C00F8012C0B4600F10B
:104B8000FF32ECDC3033811EDBB28C4502F8013C95
:104B900040F2F9850DF1920101E012F8013B9445D4
:104BA00001F8013BF9D10DF1A1030DF192021B1A9D
:104BB000134424AA9B1A1A93129B1A9A012B1A4483
:104BC0000B9240F381850B9B169A13440B930023A1
:104BD0000B9A29F4806722EAE27247F480770F93F8
:104BE0000692139310931D9B002B40F02C839DF88D
:104BF00083200793FFF794B9BB46FFF72FBB8F4B7A
:104C0000189317F0200900F0F5800E9B073323F06E
:104C10000703D3F8049053F8084B0E93F80709D50F
:104C200054EA090306D030238DF8856047F0020767
:104C30008DF88430022327F4806BFFF789B9804B0D
:104C40001893DEE70C990A9828AA04F0BFFC002804
:104C50007FF4C1A92A9C0DF1AC0818E440210A9800
:104C600003F000FB0C9B18601861002800F097858A
:104C700040230C9A5361FFF762B8102E40F37685FB
:104C8000DFF8C091424648462146A846B9464FF053
:104C9000100B0746299B0A9C0C9D04E00832103E2D
:104CA000102E40F3138201331031072BC2E9007B31
:104CB000CDE92931F2DD2946204628AA04F086FCF8
:104CC00000287FF488A9DDE929312BAAE7E72846E7
:104CD000CDF81C900E94FEF7B9FF20EAE0739DF822
:104CE00083200B90CDF83490CDF83C90CDF84C90CB
:104CF000CDF840900693FFF713B9129B4246DDF8BA
:104D00004C80EB185E460793CDF82CA010972146F7
:104D1000199FDDF87090DDF828A0DDF830B00F9B0A
:104D20001395B8F1000F2ED083BB013F08F1FF3877
:104D30001B9B4944C2E90039299B2A910133072B67
:104D4000299360DC0832079B38789B1B8342A8BFFD
:104D50000346002B1C460BDD299819440130072817
:104D6000C2E900632A91299000F31481387808324F
:104D7000002CB4BF0546051B002D0BDC06440F9B21
:104D8000B8F1000FD0D1002B00F026820F9B013B21
:104D90000F93CDE7102D40F39D841024299804E053
:104DA000103D102D02F1080216DD0130254B1031A7
:104DB0000728C2E90034CDE92901F1DD5946504602
:104DC00028AA04F003FC00287FF405A9DDE92901E5
:104DD000103D102D2BAAE8DC01301A4B294407287E
:104DE000CDE929015560136000F34182387808321B
:104DF0000644C4E717F0100300F0A0800E9B53F8A0
:104E0000044B0E930AE75946504628AA04F0DEFBED
:104E100000287FF4E0A82A992BAA94E700230BF43A
:104E200080620696CDF82CA0CDF8348092461E46BE
:104E3000DDF8648054AF14E06766666604A9080074
:104E400018A9080048A908000023204649460A225C
:104E500005F03AFB0A2C79F100031BD3044689467E
:104E60002F4620460A220023494605F02DFB30320A
:104E70007D1E013607F8012CBAF1000FE4D098F836
:104E800000309E42E0D1FF2EDED00A2C79F10003E3
:104E900080F0308154AB5B1BDDF82CA0CDF8648032
:104EA00012965F46069EDDF834800B93FFF72BB811
:104EB0000C990A9828AA1D9304F088FB00287FF417
:104EC0008AA89DF883202A9C1D9B0DF1AC08FFF752
:104ED000B8B80123C8F80430299BBC4A0133013417
:104EE000072B2A942993C8F8002000F3178108F1B2
:104EF0000808002940F08680129A07F00103134346
:104F00003FF4E0A8169B17991A19C8E90013299BCA
:104F10002A920133072B299300F3378108F10808FF
:104F2000129901338C18072BCDE92934C8F80050A9
:104F3000C8F804107FF7C4A8FFF7ACBB17F0400215
:104F400000F0A5800E9A994652F8044B0E92A4B236
:104F500064E6BB46FEF7CABF0C990A9828AA04F07B
:104F600035FB00287FF437A82A9C0DF1AC08FFF729
:104F70007BBA14463A464F46914601332C44072BE0
:104F8000C8F80090C8F80450CDE929347FF798A8F4
:104F9000FFF780BB5946504628AA04F017FB0028AB
:104FA0007FF419A838782A992BAAE1E60C990A9877
:104FB00028AA04F00BFB00287FF40DA82A9C0DF111
:104FC000AC08FFF765B8012BBB467FF4F5A9FEF7E7
:104FD00092BF0E9B089953F8042B554611600E930F
:104FE000FFF78EB8062B294628BF06232A460795C9
:104FF0000D950693764D0E940B930F91139110918E
:10500000FEF78EBF169B17981A19C8E90003299B53
:105010002A920133072B299300F3B78008F108087F
:105020000029BFF67DAF4E42103180F2A983414680
:105030001024A846DFF89C91DDF828B00C9D04E010
:105040000831103E102E40F3A78201331032072B97
:10505000C1E90094CDE92932F2DD2946584628AA53
:1050600004F0B4FA00287EF4B6AFDDE929322BA9AA
:10507000E7E71446079F01362C44072ECDE9296443
:10508000C8F80090C8F804507FF7F5AA4EE417F46A
:1050900000790E9B66D053F8044B91460E93E4B210
:1050A000BCE517F400790E9B57D053F8044B91469A
:1050B0000E93E4B2FEF749BF299ADFF81891FFF783
:1050C00095BA2D228DF88320FFF757B845469046B4
:1050D0003A460C464F46914601333444072BCDE9FE
:1050E0002934C8F80090C8F804605CDC08F10808AE
:1050F000FFF79EBB1C9B1B99ED1A1A462846FEF72C
:10510000D3FD98F801300BB108F10108204649465B
:105110000A220023002605F0D7F99FE60C990A9889
:1051200028AA04F053FA00287EF455AF22992A9C4D
:105130000DF1AC08DDE6129AAE18A6EB0B06D51AF7
:10514000AE42A8BF2E46FFF7A6BB52F8044B8946D5
:1051500001230E92E4B2FEF7FBBE53F8044B0E930C
:10516000FEF7F3BE53F8044B0E9357E50E9B0899D8
:1051700053F8042B554611800E93FEF7C1BF44F33C
:10518000C0194B4664B2FEF7A4BE0C990A9828AA2F
:1051900004F01CFA00287EF41EAFDDE929322299C2
:1051A0000DF1AC083CE70C990A9828AA04F00EFA15
:1051B00000287EF410AF2A9C0DF1AC08FFF738BB35
:1051C0000623079326F02003069370E434A9080011
:1051D0002CA9080048A90800DDE91235EB189E4209
:1051E000B346199790460C4628BF9B46DDF82CA085
:1051F000109FFFF723BB229BDA1C109302DB079A58
:10520000934204DD023E26F0200306938BE4109BBC
:10521000129A9342C0F2C28019F0010F00F01D8271
:10522000169A13440B9319F4806F00F01482109BAC
:105230006726002B76DC0B9B23EAE373069300239F
:105240000F931393CFE42D2200238DF8832007932F
:10525000FEF768BE0C990A9828AA04F0B7F900284E
:105260007EF4B9AE2A9C0DF1AC08FFF7D8BA5946C6
:10527000504628AA04F0AAF900287EF4ACAE38788B
:105280002A992BAA06447AE50C990A9828AA04F0D0
:105290009DF900287EF49FAE229B2A9C0DF1AC085C
:1052A000FFF7E1BA07990B9B01910321009126A911
:1052B000049123A9039122A95A460A98029101F068
:1052C000D3FA03780546302B00F01682229B079A0A
:1052D000B94613440F9FEC185846002200230B993F
:1052E00005F082F808B1234611E4269BA342BFF4DF
:1052F0000EAC30215A1C26921970269B9C42F9D87C
:1053000005E4229A002A109240F30E82079909F0D0
:1053100001030B4340F07E816626109B0B9319F42A
:10532000806F88D019990B78FF2B00F0258200241C
:10533000109A204604E001300131FF2B00F0598122
:10534000934280F25681D21A4B78002BF3D10B781E
:105350000134F2E7DDE92921FFF7DAB9079B9DF86F
:1053600083200E9406930B9307900F901390109048
:10537000FEF7D6BD0C990A9828AA04F027F9002850
:105380007EF429AE229D129B2A9C0DF1AC085D1B78
:10539000FFF781BA00230793FEF70BBD129B169A05
:1053A0009A18109B0B92002B40F385816726B6E775
:1053B00030238DF8843058238DF88530079B47F0D3
:1053C0000204632B00F3C48000233BAD0D9347F42C
:1053D00081730F93DDE914121346002B2746C0F2A8
:1053E00084800B9300238B461D9326F020030693A5
:1053F000612E00F01881412E7FF467AB22AA584637
:105400000B9904F053F800224FF07F5304F084FD11
:1054100002460B46CDE910230022002304F0E4FFEE
:1054200008B101232293AD4B0B93079BCDE912A644
:10543000CDE91E78DDE91067AB46DDF82CA003F15D
:10544000FF39109506E00022002309F1FF3904F02E
:10545000CBFFE8B90022A24B3046394604F05CFD90
:105460000F46064605F008F8044604F0EBFC0B4630
:1054700002463946304604F097FB1AF80430B9F179
:10548000FF3FD8464D4606460F460BF8013BDAD1A2
:10549000304639460022934BA946DDF848A0109DBE
:1054A000CDF84880CDE91001DDF87C80139E1E9F69
:1054B00004F0C2FF80BBDDE910010022894B04F03B
:1054C00093FF08B1E10727D44B46002B06DB3022BF
:1054D00001335B440BF8012B5B45FBD1ABEB0503C0
:1054E000B94612930F9FFFF714BB26F020030693D3
:1054F0002D22DDE914349B4604F100431D920B93E9
:1055000076E7299BFFF75CB9079BEC18E4E6299A3C
:10551000DFF8D491FFF727B8129B26930B9B1BF85B
:10552000012CD97B5B468A4209D1302003F8010C5B
:10553000269B5A1E269213F8012C9142F6D0392A46
:105540000BBF0B9A0132927AD2B203F8012CC5E755
:105550000A98591C02F086FE0546002800F01781C3
:105560000D9034E70221009107995A464C1C26A958
:10557000049123A9039122A90B9B0A9801940291FB
:1055800001F072F90546B9462C440F9FA4E630237A
:105590008DF8843078230FE745468846013332443E
:1055A000072BCDE92932C8F80090C8F804607FF7CE
:1055B000B5AC0C990A9828AA04F008F800287EF4E3
:1055C0000AADDDE929320DF1AC08A9E4079B002BF7
:1055D00008BF0123079347F480730F93159B002B9B
:1055E000C0F2B680DDF850B00D900B931D90FFF720
:1055F00073BA1991109213900F940F9A139B1C99E0
:1056000013440B9A01FB03230B9323EAE3730693E2
:10561000FFF7E9BA169B6626D31819440B917EE66C
:1056200000230D9364E722AA58460B9903F03EFF2E
:1056300000224FF07F5304F06FFC02460B46CDE989
:1056400010230022002304F0CFFE08B1012322938F
:10565000264B0B93E9E66726EDE5109B0B93E2E5FD
:10566000159B0320002BB8BF2D224FF00003A8BFCD
:105670009DF8832019460D931D4D1E4BB8BF8DF824
:10568000832027F080070690FEF77FBD002944D1D4
:1056900030228DF892200DF19302303302F8013B55
:1056A00024ABD31A1A93FFF787BA06F10F02012130
:1056B000D2B2FFF741BAC3F101031A4422EAE273FE
:1056C00067260B920693BAE519F0010F3FF47FAA03
:1056D000FFF779BA2998FFF77FBB00BF18A9080028
:1056E000000030400000E03F48A9080004A908007D
:1056F000FCA8080000A908005846002200230B99C6
:1057000004F072FE00287FF4E1AD079BC3F10103B2
:105710002293DCE5DFF89890ADE40DF19202BCE74E
:10572000299BDFF88C9028E4079A09F0010959EACF
:10573000020304D10123662606930B937FE5169B93
:10574000662601331A4422EAE2730B92069376E549
:105750000D90CDE60E9B9AF80160924653F8042B0B
:105760000E9342EAE2730793FEF721BB299BDFF811
:105770004090B1E4079C06E700230F9313933CE7A6
:10578000DFF82C900AE702231A93FFF715BA0C9959
:105790008B8943F0400213468A81FEF724BC4FF008
:1057A000FF320C2308920A9A1360FEF723BC00BF55
:1057B00048A908002DE9F84F4B6E90469C042DD562
:1057C0009368126843B38B46064602F1080959E90B
:1057D000025A5FEA9A0715D00024043D01E0A7426F
:1057E0000ED05A46304655F8041F02F061F9431CAA
:1057F00004F10104F3D10023C8E90133BDE8F88FB7
:10580000D8F808302AF0030AA3EB0A03C8F80830D6
:1058100009F10809002BDAD10020ECE702F0CCFAFC
:105820000023C8E90133BDE8F88F00BF2DE9F04F30
:10583000BDB01C461746CDE90530029118B1836B07
:10584000002B00F07782029A536EDE0740F18481CC
:10585000B2F90C108AB2900408D441F400520299B3
:105860004B6E8A8123F4005392B24B66110740F1CC
:10587000EC80029B1B69002B00F0E78002F01A030A
:105880000A2B00F0F08013AB10930023CDE9113305
:10589000CDE90933CDE90B330DF14C0904933B7885
:1058A000002B00F046813C4604E014F8013F002B39
:1058B00000F02181252BF8D1E51B40F01E812378D3
:1058C000002B00F036814FF0000300254FF0FF3B26
:1058D0004FF02B088DF83B3063780395671C013738
:1058E000A3F120025A2A00F24681DFE812F0A10259
:1058F000440144019D024401440144017C024401ED
:1059000044016A00530244012902AF024401AB0280
:105910005B005B005B005B005B005B005B005B00AF
:105920005B00440144014401440144014401440139
:10593000440144011302780044014401440144013C
:10594000440144014401440144014401D1004401A3
:1059500044014401F701440141024401440121058D
:10596000440144014401440144014401440144010F
:105970004401440113027A00440144014401370206
:105980007A00740044012D0244016902D3005702D9
:1059900074004401F70172004105440144014305CC
:1059A000440172000021A3F1300217F8013B01EB22
:1059B000810102EB4101A3F13002092AF5D90391DB
:1059C0008EE7059B53F8042B002A03920593C0F23F
:1059D000B4813B7883E73B7845F020057FE745F0CD
:1059E0001005AC06059E40F16B81073626F00706D0
:1059F0003246736852F8086B98460592002BC0F245
:105A00004984BBF1FF3F00F0318556EA080325F0D9
:105A1000800A00F025840A2E78F1000380F0E184EA
:105A20000123554630368DF8EF6001930DF1EF04F8
:105A3000DDF804809DF83B30D845B8BFD846002B30
:105A400000F0A88008F10108A4E0029D069829460C
:105A500000F0FAFD002840F09485AA8902F01A03AC
:105A60000A2B7FF410AF0299B1F90E30002BFFF62C
:105A70000AAF4B6EDE0702D4950540F162852346DE
:105A80003A46029906983DB0BDE8F04F00F09ABD45
:105A900045F0100515F0200800F00381059E07363B
:105AA00026F007063346D6F8048053F8086B0593B2
:105AB000002325F4806A4FF000028DF83B20BBF1F3
:105AC000FF3F00F0DD8156EA08022AF0800540F031
:105AD000D681BBF1000F40F0CC84002B40F0C58391
