:0200000280007C
:10000000004008201D440800095308000953080057
:1000100009530800095308000953080000000000B4
:10002000000000000000000000000000095308006C
:100030000953080000000000095308000953080094
:100040000953080009530800095308000953080020
:100050000953080009530800095308000953080010
:1000600009530800095308003126080049260800F2
:1000700061260800095308000953080009530800C5
:1000800009530800095308000953080009530800E0
:1000900009530800095308000953080009530800D0
:1000A00009530800095308000953080009530800C0
:1000B00009530800552808000953080010B5054CDD
:1000C000237833B9044B13B10448AFF30080012304
:1000D000237010BD300E002000000000E4CD0800A9
:1000E00008B5034B1BB103490348AFF3008008BDBB
:1000F00000000000340E0020E4CD080080B483B07E
:1001000000AF78607B68072B23D801A252F823F058
:1001100031010800370108003B0108003F010800D9
:1001200043010800470108004B0108004F01080087
:100130004FF4FA430EE000230CE000230AE0084BE2
:1001400008E0084B06E0084B04E0074B02E0064BD2
:1001500000E0002318460C37BD4680BC704700BF46
:1001600000093D0000127A00001BB70080B500AF07
:100170000620034B984703461B01184680BD00BF6D
:10018000FD00080080B500AF024B984703465B08AE
:10019000184680BD6D01080080B582B000AF786060
:1001A0007868034B984700BF0837BD4680BD00BF45
:1001B000B54B080080B483B000AF0023FB7106E0AC
:1001C000FB79084A0021D154FB790133FB71FB799B
:1001D000042BF5D9034B01225A7100BF0C37BD46E1
:1001E00080BC7047B037002080B58CB000AF78601D
:1001F0003960404B984703467B623B681B68BB6293
:100200003B689B68FB623B681B68FB603B685B6804
:100210003B613B689B687B613B681B7BBB61002348
:10022000FB617B68344A934208D10820334B9847DE
:1002300007F1240319467868314B98477B68314AA7
:10024000934211D10D202D4B98472A4B98470246D7
:1002500007F10C03194678682B4B984778682B4BAD
:10026000984778682A4B98477B682A4A934211D16D
:100270000E20224B98471F4B9847024607F10C036C
:1002800019467868204B98477868204B98477868DB
:100290001F4B98477B68204A934211D10F20174B80
:1002A0009847144B9847024607F10C0319467868A3
:1002B000154B98477868154B98477868144B9847C2
:1002C0007B68164A934211D110200C4B9847094B7A
:1002D0009847024607F10C03194678680A4B98477D
:1002E00078680A4B98477868094B984700BF3037C1
:1002F000BD4680BD8501080000060E40990108003A
:10030000355408000000094021230800A5230800F7
:10031000D5230800004009400080094000C0094082
:1003200080B582B000AF78600B46FB707B68274ACF
:1003300093420AD100BFFB7819467868244B98474E
:100340000346002BF7D101233CE07B68214A93420E
:100350000AD100BFFB78194678681F4B98470346BF
:10036000002BF7D101232DE07B681C4A93420AD170
:1003700000BFFB7819467868174B98470346002B57
:10038000F7D101231EE07B68154A93420AD100BFD2
:10039000FB7819467868104B98470346002BF7D135
:1003A00001230FE07B680F4A93420AD100BFFB781C
:1003B00019467868084B98470346002BF7D101236C
:1003C00000E0002318460837BD4680BD00060E40F9
:1003D00095540800000009405324080000400940DB
:1003E0000080094000C0094080B584B000AF78604B
:1003F00039600023FB607B682B4A934207D100BF22
:1004000039687868294B98470346002BF8D17B68F8
:10041000274A93420DD100BF07F10C0319467868B3
:10042000244B98470346002BF6D1FB68DAB23B68B1
:100430001A707B68204A93420DD100BF07F10C036C
:10044000194678681B4B98470346002BF6D1FB688A
:10045000DAB23B681A707B68184A93420DD100BF2C
:1004600007F10C0319467868124B98470346002B96
:10047000F6D1FB68DAB23B681A707B68104A934287
:100480000DD100BF07F10C0319467868094B984756
:100490000346002BF6D1FB68DAB23B681A7000BF46
:1004A0001037BD4680BD00BF00060E40C354080093
:1004B00000000940832408000040094000800940F2
:1004C00000C0094080B582B000AF786039600F4A43
:1004D0007B6813600E4B0F4A1A600F4B0F4A1A606D
:1004E000396878680E4B98470E4B1B689B68002153
:1004F00018460D4B98470B4B1B685B68002118464C
:10050000094B984700BF0837BD4680BD943700208F
:100510009837002021030800AC370020E9030800C9
:10052000E901080080040020F95A080080B586B06F
:1005300000AF3B1D10211846834B9847834B9847CB
:10054000834B01221A70BFF35F8F00BF62B600BFFA
:10055000804B9847804B9847804B984700237B619E
:1005600010E07B69DB007E4A98187B699B0018339A
:100570003B4453F8143C1A467A497B4B98477B69B5
:1005800001337B617B69032BEBD9754B002283F828
:100590002020764A76497748774B984770497748C4
:1005A000754B98470920764B984776492920764B1A
:1005B000984774492A20744B984772492B20724BF4
:1005C000984770492C20704B98476E492D206E4BF0
:1005D00098476C492E206C4B98476A492F206A4BEC
:1005E000984768493020684B984766493920664BE0
:1005F000984764493A20644B984762493B20624BD4
:10060000984760493C20604B98475E493D205E4BCF
:1006100098475C493E205C4B98475A493F205A4BCB
:1006200098475A492620584B984756493320564BED
:10063000984754493720544B984752493420524BDD
:10064000984752492720504B98474E494F204E4BD0
:1006500098474E4928204C4B98474A4940204A4BDE
:10066000984748494120484B984746494220464BC5
:10067000984744494320444B984742494420424BC1
:10068000984740494520404B98473E4946203E4BBD
:1006900098473C4947203C4B98473A4948203A4BB9
:1006A000984738494920384B984736494A20364BB5
:1006B000984734494B20344B984732495420324BA9
:1006C000984730495520304B98472E4956202E4B9D
:1006D00098472C4957202C4B98472A4958202A4B99
:1006E000984728495920284B984726495A20264B95
:1006F000984724493520244B984725481E4B984756
:10070000244A00212448254B98474FF00C32002101
:100710002148234B98474FF0101200211E48214BCF
:10072000984741F2030200211B481F4B98471F4B7B
:1007300098471F4B98471F480F4B98471E4B9847A9
:100740001E4B9847FEE700BFCD210800C1070800F7
:10075000EC030020B50108000D480800855508008D
:100760007002002080C80800B95C080088C8080032
:1007700094C80800A0C8080041590800E0C8080053
:10078000B54B080001000008D95008000100001016
:10079000F4C808000004040400000E40D52408003A
:1007A000FF24080029250800532508001D580800CB
:1007B000C515080014C9080025130800ED0D080030
:1007C00080B584B000AF3B4600221A605A609A6040
:1007D000DA604FF4E1333B604FF40063BB60082004
:1007E000054B98473B4619460448054B984700BFC0
:1007F0001037BD4680BD00BF9901080000060E40BD
:10080000C504080080B586B000AF424B1B68FB6092
:10081000404B5B68BB60404B1A68FB68D31ABA68F0
:100820009A4271D800237B61FB6842F227329342DF
:100830006CD84C20394B9847BB68002B16D100234D
:100840007B610AE0364A7B6952F8232035497B698F
:1008500041F823207B6901337B617B69032BF1DD48
:10086000314B00225A80314B00221A702E4B00224D
:100870001A802D4B5B8801339AB22B4B5A80002390
:100880007B6135E000233B61294B9847786000236A
:100890003B6127E0274B1A687B6999003B690B4451
:1008A0001946BB680B4413441B78D9B23B69DB0083
:1008B0007A6822FA03F3DAB27B6998003B69034451
:1008C0004A40D1B21C4AD1547B699A003B69134417
:1008D000194AD35C002B02D0134B01221A803B69CA
:1008E00001333B613B69032BD4DD7B6901337B61C1
:1008F000FB689A087B699A42C4D8104B0A4A1A606E
:100900000F4B04221A6002E000BF00E000BF18375E
:10091000BD4680BD3832002094020020C14308004B
:100920005C0E00204C0E00209C310020710E002037
:10093000210A0800D4030020740E0020A0310020FA
:10094000A431002080B582B000AF0C4B1B687B60E7
:100950000A4B5B683B600220094B98474C20094BCF
:1009600098473B6803F1C043074A79681846074B2C
:10097000984700BF0837BD4680BD00BF3832002011
:100980005D210800C1430800190D08003D4D080015
:1009900080B582B000AF0A4B1B687B607B6842F277
:1009A0002732934208D84C20064B9847064A79686C
:1009B0000648074B984700E000BF0837BD4680BD9A
:1009C00038320020C1430800190D0800740E0020C1
:1009D0003D4D080080B582B000AF0C4B1B687B60BA
:1009E0000A4B5B683B600520094B98473B6803F165
:1009F000C043084A1360084A7B6813604C20074BC9
:100A0000984700BF0837BD4680BD00BF3832002080
:100A10005D210800A0310020A4310020C14308005E
:100A200080B483B000AF174BDB687B607B68DB0270
:100A30007A6853407B607B681B0A7A6853407B600E
:100A4000104B9B680F4AD3600E4B5B680D4A936056
:100A50000C4B1B683B600B4B1B680A4A53607A685F
:100A60003B6853407B603B68DB0C7A6853407B609B
:100A7000044A7B6813607B6818460C37BD4680BC0F
:100A8000704700BF4C0E002080B586B000AF2E4BE3
:100A90001B68FB602C4B5B68BB6000237B611020F4
:100AA0002A4B9847BB68002B1AD100237B6114E0C6
:100AB0007B6902339B00244A13441A6824497B69EA
:100AC00041F82320224A7B6952F8232021497B697F
:100AD00041F823207B6901337B617B69032BE7DDD0
:100AE000FB689B087B6000237B6121E01A4B9847E1
:100AF000386000233B6100233B6113E03B69DB006E
:100B00003A6822FA03F0154B1A687B6999003B6931
:100B10000B441946BB680B441344C2B21A703B69BC
:100B200001333B613B69032BE8DD7B6901337B616A
:100B30007B697A689A42D9D8094B01221A6000BFB2
:100B40001837BD4680BD00BF38320020C1430800C1
:100B50004C0E00205C0E0020210A0800D403002067
:100B60006C0E002080B584B000AF154B1B68BB60D5
:100B7000134B5B687B60134B3B600120124B984723
:100B80001020124B98470023FB600DE03A68FB6889
:100B90001A440F4B1968F8687B6803440B441278B9
:100BA0001A70FB680133FB60FA68BB689A42EDD3A8
:100BB0000020054B984700BF1037BD4680BD00BFE1
:100BC00038320020403200205D210800C143080077
:100BD000D403002080B582B000AF0B4B1B687B6054
:100BE000094B5B683B600420084B9847084A3B6808
:100BF0001360084A7B6813601020074B984700BFBA
:100C00000837BD4680BD00BF383200205D21080096
:100C1000A8310020AC310020C143080080B500AFEE
:100C20001F4B5B78103B082B36D801A252F823F0FB
:100C3000550C0800690C08005F0C0800730C0800D4
:100C4000870C08008F0C0800990C0800990C08000C
:100C50007D0C0800124B134A1A6101231DE0104B52
:100C6000114A1A61012318E00D4B104A1A61012341
:100C700013E00B4B0E4A1A6101230EE0084B0D4A9C
:100C80001A61012309E00C4B9847012305E0044B4E
:100C90000A4A1A61012300E00023184680BD00BF04
:100CA0004037002045090800D5090800D50B080089
:100CB000650B080091090800890A0800050808006A
:100CC00080B500AF0F4B5B78122B01D0152B15D1DF
:100CD0000D4B1B680B4A93600C4B1B689AB2094B77
:100CE0009A810A4B00221A60094B98470346052B4C
:100CF00002D10020074B9847012300E0002318464B
:100D000080BD00BF40370020A0310020A43100206A
:100D1000B52108005D21080080B582B000AF034610
:100D20003960FB711346BB71FB79002B08D1064B70
:100D300098470346022B04D10020044B984700E05B
:100D400000BF0837BD4680BDB52108005D21080001
:100D500080B584B000AF03463960FB711346BB71A8
:100D6000FB79002B06D0194A4FF480611848194BC3
:100D7000984728E0184B1B78002B1ED10023FB60FE
:100D80000FE0164B1A68164B1B68591C144801607B
:100D900013440F49FA680A4412781A70FB68013349
:100DA000FB60FA683B689A42EBD30E4B98470346C8
:100DB000042B02D100200C4B9847044A4FF4806169
:100DC0000348044B98471037BD4680BD510D0800BD
:100DD000B8320020694D0800700E0020D4030020B6
:100DE000A8310020B52108005D21080080B500AFC2
:100DF0000348044B98470448044B984700BF80BD04
:100E0000C10C0800110E08001D0C0800510E08004E
:100E100080B483B000AF78600B4B1B780F2B0CD8DD
:100E2000094B1B785A1CD1B2074A11701946074A60
:100E30007B6842F82130012300E0002318460C377C
:100E4000BD4680BC704700BFF0310020B0310020AB
:100E500080B483B000AF78600B4B1B780F2B0CD89D
:100E6000094B1B785A1CD1B2074A11701946074A20
:100E70007B6842F82130012300E0002318460C373C
:100E8000BD4680BC704700BF34320020F4310020E2
:100E900080B500AF034B00221A70034B984700BF88
:100EA00080BD00BF353200203D58080080B500AF3E
:100EB000014B984700BF80BD6558080080B500AF62
:100EC000084B1B78DBB283F00103DBB2002B06D1A9
:100ED000054B984703461846044B984700E000BF6F
:100EE00080BD00BF98020020352C08008158080002
:100EF00080B500AF074B01221A70074B01221A7010
:100F0000064A4FF480610648064B9847012318466D
:100F100080BD00BF3532002098020020510D08002E
:100F2000B8320020694D080080B400AF034B0022A6
:100F30001A7000BFBD4680BC704700BF98020020F9
:100F400080B582B000AF0023BB71134B134A9A6087
:100F5000114BDB88402B28BF40239AB20E4B9A815D
:100F60000F4B1B78FB710FE0FB79013B0D4A52F8E8
:100F7000233098470346BB71BB79002B01D0012376
:100F800006E0FB79013BFB71FB79002BECD10023E0
:100F900018460837BD4680BD403700203832002053
:100FA00034320020F431002080B582B000AF00233D
:100FB000BB710E4B1B78FB710FE0FB79013B0C4AB8
:100FC00052F8233098470346BB71BB79002B01D000
:100FD000012306E0FB79013BFB71FB79002BECD18F
:100FE000002318460837BD4680BD00BFF031002001
:100FF000B031002080B582B000AF78607B68072BED
:101000002ED801A252F823F05F1008002910080022
:10101000311008003910080041100800491008007C
:10102000511008005910080000200F4B984717E096
:1010300001200D4B984713E000200C4B98470FE020
:1010400010200A4B98470BE02020084B984707E0F8
:101050003E20074B984703E0064B984700E000BF4F
:1010600000BF0837BD4680BD99490800054A080001
:10107000794A0800C94A080080B582B000AF78609C
:101080007B68072B2FD801A252F823F0AD1008007F
:10109000B1100800B1100800C3100800C310080008
:1010A000C3100800D5100800D510080001231BE06C
:1010B0000F4B98470346002B14BF01230023DBB2DC
:1010C00012E00C4B98470346002B14BF012300236A
:1010D000DBB209E0084B98470346002B14BF0123FD
:1010E0000023DBB200E0002318460837BD4680BD70
:1010F000D1490800614A0800FD4A080080B582B065
:1011000000AF0346FB7100BFFB791846064B9847BA
:10111000034683F00103DBB2002BF5D100BF00BF13
:101120000837BD4680BD00BF7910080080B500AF0C
:10113000014B984700BF80BD6D2B080080B500AF04
:10114000344B5B88DBB2013B102B5FD801A252F815
:1011500023F000BF99110800AD110800B511080077
:101160000D1208000D1208000D1208000D120800E3
:101170000D1208000D1208000D1208000D120800D3
:101180000D1208000D1208000D1208000D120800C3
:10119000E31108000712080006201F4B984706209D
:1011A0001E4B984710201E4B984730E010201D4BD7
:1011B00098472CE001220C211B481C4B98471C4BE4
:1011C000984700BF1B4B5B6803F40033002BF9D139
:1011D000184B1B68174A43F0254343F0050313607F
:1011E000FEE7134B984700BF124B5B6803F40033D4
:1011F000002BF9D10F4B1B680E4A43F0254343F0F7
:1012000005031360FEE70C4B984700E000BF00BFEA
:1012100080BD00BF40370020F50F0800FD1008001A
:10122000994808001949080000080E40254E08009A
:101230002D11080000120E409D21080080B400AF5F
:10124000094B01221A70084B01225A70064B0022EA
:101250009A70064B044A9A60044B03229A81012338
:101260001846BD4680BC70477832002040370020C9
:1012700080B500AF40220D490D480E4B98470C4BEE
:1012800020221A720C4B37220C491846094B9847FA
:101290000B4B074A9A6006480A4B984703469AB296
:1012A000074B9A810123184680BD00BF40C9080042
:1012B00078320020595D08008132002034C90800CE
:1012C00040370020FD5C080080B400AF064B5B781F
:1012D000222B04D1044B054A1A61012300E00023AC
:1012E0001846BD4680BC7047403700203D110800BD
:1012F00080B500AF084B5B78172B02D0402B04D091
:1013000007E0064B9847034604E0054B9847034621
:1013100000E00023184680BD403700203D12080041
:101320007112080080B500AF0348044B9847044889
:10133000044B984700BF80BDF1120800110E080051
:10134000C9120800510E080080B400AF024B1846C5
:10135000BD4680BC704700BF7002002080B400AF63
:10136000024B1B681846BD4680BC7047C036002043
:1013700080B400AF064B1B681B68054A12681268F0
:10138000528892B213441846BD4680BC704700BFD5
:10139000BC36002080B584B000AF78600B46FB708F
:1013A000124B9847F8607B681B781A467B68134499
:1013B0007B6010E07B685B78042B11D07B685B78E6
:1013C000FA789A4201D17B680CE07B681B781A4658
:1013D0007B6813447B60FA687B689A42EAD800E035
:1013E00000BF002318461037BD4680BD71130800AA
:1013F00080B584B000AF03460A46FB711346BB714B
:101400001E4B1B78002B01D1002332E01C4B1B68C4
:101410001B681B79FA799A4201D3002329E0184B03
:101420001B681B68174A1360174B9847F8601AE04F
:10143000144B1B685B78042B0DD1124B1B689B78F7
:10144000FA799A4207D10F4B1B68DB78BA799A4236
:1014500001D101230DE00B4B1B680A4A1268127878
:101460001344084A1360074B1B68FA689A42DFD896
:10147000002318461037BD4680BD00BFBA36002095
:10148000BC360020C03600207113080080B584B03F
:1014900000AF0346FB71FB79002118461E4B9847AD
:1014A000034683F00103DBB2002B01D000232FE0C1
:1014B0001A4B1B685A68FB799B0013441B68BB607E
:1014C000BB68DB68984703461A46FB791146184605
:1014D000114B9847034683F00103DBB2002B01D088
:1014E000002315E00E4B1B68FB600521F8680D4BCF
:1014F0009847F860FB68002B05D0FB689B7818467E
:10150000094B9847F1E700BFBB685B689847012328
:1015100018461037BD4680BDF1130800BC360020C8
:10152000C0360020951308003530080080B584B01F
:1015300000AF03460A46FB711346BB71BA79FB79CB
:10154000114618461A4B9847034683F00103DBB255
:10155000002B01D0002327E0164B1B68FB60052100
:10156000F868154B9847F860FB68002B11D0FB68B2
:101570009878FB68D978FB689B889BB21A460F4B1A
:101580009847034683F00103DBB2002BE7D000232A
:101590000AE000BF0A4B1B685A68FB799B001344A2
:1015A0001B681B689847034618461037BD4680BD28
:1015B000F1130800C0360020951308007D2C0800A8
:1015C000BC36002080B500AF014B984700BF80BDFE
:1015D000192A080080B582B000AF0F4B1B78002B92
:1015E00010D00023FB7106E0FB7918460B4B98479F
:1015F000FB790133FB710A4B1B681B681B79FA7975
:101600009A42F1D3044B00221A70064B00221A8032
:1016100000BF0837BD4680BDBA3600208D140800D3
:10162000BC360020B836002080B582B000AF144B25
:101630001B78002B1FD00023FB7115E0114B1B689A
:101640005A68FB799B0013441B681B69002B08D068
:101650000C4B1B685A68FB799B0013441B681B6981
:101660009847FB790133FB71064B1B681B681B799C
:10167000FA799A42E2D300BF0837BD4680BD00BF69
:10168000BA360020BC36002080B500AF064BDB88A0
:10169000022B01D0002304E002210448044B9847A8
:1016A0000123184680BD00BF40370020B836002017
:1016B000552C080080B500AF0B4BDB88022B01D006
:1016C00000230EE0084B9B88DBB21846074B984777
:1016D00003469AB2064B1A8002210548054B9847EB
:1016E0000123184680BD00BF40370020B5300800F8
:1016F000C4360020552C080080B400AF0B4BDB88AB
:10170000002B01D000230DE0084B5B88012B08D192
:10171000074B1B8823F002039AB2054B1A80012362
:1017200000E000231846BD4680BC704740370020CB
:10173000B836002080B500AF0A4BDB88002B01D003
:1017400000230CE0074B5B88002B07D1054B9B88DF
:10175000DBB21846044B9847034600E000231846C6
:1017600080BD00BF403700203132080080B500AF97
:10177000264BDB88002B01D0002345E0234B5B8800
:10178000012B02D0022B02D03DE000233CE0204B95
:101790009847034683F00103DBB2002B30D11B4B8B
:1017A0009B88DBB2002B2DD11A4B9847174B9B8897
:1017B0001B0A9BB2DBB2013B032B1FD801A252F8DC
:1017C00023F000BFD5170800DF170800E91708004D
:1017D000F31708000D4B104A1A61012314E00B4B5C
:1017E0000E4A1A6101230FE0084B0D4A1A610123CA
:1017F0000AE0064B0B4A1A61012305E000BF02E034
:1018000000BF00E000BF0023184680BD4037002025
:10181000B12B0800D5150800F13408002535080063
:10182000593508007D35080080B500AF0D4BDB88C9
:10183000002B01D0002312E00A4B5B88002B0DD156
:10184000084B9B88DBB21846074B9847054B9B8893
:10185000DBB21846054B9847034600E000231846C4
:1018600080BD00BF40370020693408001D310800EA
:1018700080B500AF054B5B88DBB203F07F03DBB2C2
:101880001846034B984700BF80BD00BF403700207B
:10189000D52B080080B400AF064BDB88002B01D0AD
:1018A000002303E0034B044A1A6101231846BD4696
:1018B00080BC7047403700207118080080B584B0A4
:1018C00000AF0023FB71294B5B88DBB2032B20D8D0
:1018D00001A252F823F000BFE9180800F31808002D
:1018E000FD1808000719080004212148214B9847DA
:1018F00011E01523FB71204BBB600CE01323FB713F
:101900001E4BBB6007E02023FB711D4B9847B8605E
:1019100001E0002326E0FB79002B22D00023FB739B
:101920000DE0FB7BBA6813441A78FB7B91B2154A31
:101930005B0013440A465A80FB7B0133FB73FA7B3E
:10194000FB799A42EDD3FB790133DBB25B00DAB26B
:101950000C4B1A700B4B1B789BB219460948054B70
:101960009847012318461037BD4680BD40370020F8
:1019700060030020552C0800640300207C03002035
:10198000491308009003002080B582B000AF7F4B60
:101990005B88FB717D4B5B881B0A9BB2DBB2013B12
:1019A0000E2B00F2E08001A252F823F0E9190800A2
:1019B000391A0800531B0800671B0800671B080042
:1019C000B31A0800C91A0800671B0800671B080043
:1019D000671B0800671B0800671B0800671B0800DF
:1019E000671B0800491B0800694B9847034683F0B2
:1019F0000103DBB2002B0AD0664B9A68654B9B68EB
:101A00001B789BB219461046634B9847AEE0614B7A
:101A10001B68002242F010029A70002242F002027B
:101A2000DA705C4B1A685B4B1B681B789BB21946DB
:101A30001046594B984799E0554B98470346002B61
:101A400019D0544B9B685B7CFA799A4201D30023EE
:101A500097E0504B1A69FB79DB00134418684D4B33
:101A60001A69FB79DB0013441B685B889BB219463B
:101A7000494B984718E0474B1B685B7CFA799A42C0
:101A800001D300237DE0434B5A68FB79DB0013440C
:101A90001868404B5A68FB79DB0013441B685B886D
:101AA0009BB219463C4B9847384B9B6802225A70B0
:101AB0005CE0384BDA68374BDB681B789BB2194621
:101AC0001046354B984751E0314B9847034683F019
:101AD0000103DBB2002B19D02E4B9B685B7CFA799B
:101AE0009A4201D300234CE02A4B1A69FB79DB00B0
:101AF00013441868274B1A69FB79DB0013441B68F1
:101B00005B889BB21946244B984718E0214B1B6811
:101B10005B7CFA799A4201D3002332E01D4B5A686C
:101B2000FB79DB00134418681A4B5A68FB79DB0019
:101B300013441B685B889BB21946174B9847134B9D
:101B40009B6807225A7011E021211448124B9847D4
:101B50000CE0134B9847034683F00103DBB2002BE4
:101B600003D000230DE000230BE000BF074BDA8811
:101B7000064B9B899A4203D2044BDA88034B9A8125
:101B8000012318460837BD4680BD00BF40370020FE
:101B9000B12B080064040020552C08003C030020F1
:101BA000BD18080080B500AF064BDB88012B01D0C3
:101BB000002304E001210448044B98470123184600
:101BC00080BD00BF40370020BA360020552C0800E9
:101BD00080B582B000AF374BDB88002B01D00023EB
:101BE00063E0354B98470346002B01D100235CE0AE
:101BF000324B98470346002B09D02E4B5B88DBB253
:101C00002F4A9268527C93420BDD00234DE0294B12
:101C10005B88DBB22A4A1268527C934201DD0023C2
:101C200043E0284B9847234B5B88DAB2264B1A7067
:101C3000254B1B78002B01D1012336E01F4B984721
:101C40000346002B0BD01E4B1A691F4B1B7803F168
:101C50000053013BDB0013441C4A13600AE0184B9D
:101C60005A68194B1B7803F10053013BDB00134406
:101C7000164A13600023FB710FE0FB790021184620
:101C8000134B9847034683F00103DBB2002B01D0CE
:101C900000230AE0FB790133FB710C4B1B681B68C6
:101CA0001B79FA799A42E8D3012318460837BD46D2
:101CB00080BD00BF40370020192C0800B12B080060
:101CC00064040020D5150800BA360020BC36002078
:101CD0002D15080080B582B000AF1E4BDB88012BAC
:101CE00001D0002332E01C4B1B78002B01D10023D4
:101CF0002CE0184B9B88FB71184B1B681B681B79E9
:101D0000FA799A4201D3002320E0FB79002118469A
:101D1000134B9847034683F00103DBB2002B01D03D
:101D2000002313E00D4B1B685A68FB799B0013449A
:101D30001B683B603B68DB68984703461A46094BC3
:101D40001A7001210748084B9847012318460837A5
:101D5000BD4680BD40370020BA360020BC3600208A
:101D6000F1130800C6360020552C080080B582B05B
:101D700000AF144BDB88002B01D000231EE0124B78
:101D80001B78002B01D1002318E00E4B9B88FB71C0
:101D90000C4B5B88BB71FB7918460C4B984703468C
:101DA00083F00103DBB2002B01D0002306E0BA79F7
:101DB000FB7911461846064B9847034618460837E4
:101DC000BD4680BD40370020BA3600208D14080083
:101DD0002D15080080B500AF554B1B785BB2002B6A
:101DE00044DA534BDB88002B01D100239DE0504B9C
:101DF0001B7803F01F03002B16D14D4B5B78082B8B
:101E00000ED0082B12DC002B02D0062B04D00DE0E4
:101E1000484B9847034688E0474B9847034684E081
:101E2000464B9847034680E000BF00E000BF404BB0
:101E30001B7803F01F03012B07D13D4B5B780A2B66
:101E400005D13F4B984703466FE000BF00E000BF5D
:101E5000374B1B7803F01F03022B60D1344B5B78A8
:101E6000002B5ED1374B984703465EE0304B1B7822
:101E700003F01F03002B29D12D4B5B78013B082B6E
:101E800026D801A252F823F0B51E0800D11E080082
:101E9000BD1E0800D11E0800AD1E0800D11E08009E
:101EA000D11E0800D11E0800C51E0800264B984709
:101EB00003463AE0254B9847034636E0244B9847C3
:101EC000034632E0234B984703462EE000BF00E074
:101ED00000BF174B1B7803F01F03012B07D1144BD6
:101EE0005B780B2B05D11C4B984703461DE000BFC8
:101EF00000E000BF0E4B1B7803F01F03022B12D132
:101F00000B4B5B78012B02D0032B04D00CE0134B5E
:101F10009847034609E0124B9847034605E000BF87
:101F200002E000BF00E000BF0023184680BD00BFF4
:101F3000403700208916080089190800A51B0800F1
:101F4000D51C0800B516080095180800F9160800F9
:101F50006D170800D11B08006D1D0800351708001B
:101F60002918080080B582B000AF204B1B78002BE9
:101F700001D1002336E01E4B9B88FB711D4B1B6873
:101F80001B681B79FA799A4201D300232AE0FB7976
:101F900000211846184B9847034683F00103DBB233
:101FA000002B01D000231DE0124B1B685A68FB79FF
:101FB0009B0013441B683B603B68DB689847034603
:101FC0001A46FB79114618460B4B9847034683F097
:101FD0000103DBB2002B01D0002303E03B689B68C8
:101FE0009847034618460837BD4680BDBA360020DC
:101FF00040370020BC360020F113080080B582B0C5
:1020000000AF1E4B1B78002B01D1002332E01C4B8C
:102010009B88FB710023FB7124E01A4B1B685A68F4
:10202000FB799B0013441B683B603B68DB68984767
:1020300003461A46FB7911461846134B9847034648
:1020400083F00103DBB2002B01D0002312E03B68D8
:102050009B6898470346002B01D001230AE0FB79D7
:102060000133FB71074B1B681B681B79FA799A4295
:10207000D3D3002318460837BD4680BDBA360020AA
:1020800040370020BC360020F113080080B500AFB7
:102090002C4B00229A812B4B00221A61294B0022E3
:1020A0005A61284B1B78C02B09D1264B5B78012B3A
:1020B00005D19E212448254B984701233FE0214B21
:1020C0001B785BB2002B05DA1E4BDB88002B01D19D
:1020D000002334E01B4B1B7803F06003002B06D178
:1020E0001B4B98470346002B01D0012327E0154BDB
:1020F0001B7803F01F03012B05D0124B1B7803F054
:102100001F03002B0DD10F4B9B88022B02D10D4BCF
:1021100001229A800F4B98470346002B01D00123E0
:102120000DE0084B1B7803F01F03022B06D10A4B6E
:1021300098470346002B01D0012300E000231846F6
:1021400080BD00BF403700209C020020552C0800B5
:10215000D51D0800651F0800FD1F080080B584B06C
:1021600000AF0346FB710023FB60094B9847094B06
:102170001B78DBB2002B04D10123FB60054AFB79FD
:102180001370054B9847FB6818461037BD4680BD55
:10219000A9550800C73600200156080080B400AFDA
:1021A000034B00221A7000BFBD4680BC704700BFC1
:1021B000C736002080B400AF034B1B78DBB2184653
:1021C000BD4680BC704700BFC736002090B58BB0BD
:1021D00002AF7860396007F10C03042200920F22ED
:1021E0000E211348134CA0470346002B01D01023A7
:1021F0001AE03B68042B01D904233B600023FB61F8
:102200000DE0FB699B007A681A44FB699B00203350
:102210003B4453F8143C1360FB690133FB61FA69DA
:102220003B689A42EDD3002318462437BD4690BD43
:1022300000080E400100002080B489B000AFF860B3
:10224000B9607A60BB681B017A689A4202D3102396
:10225000FB6101E00823FB617B68DA00FB69B96878
:1022600001FB03F35B081A44FB69B96801FB03F344
:10227000B2FBF3F3BB61BB69DB087B61BB6903F0B5
:1022800007033B617B69002B03D07B69B3F5803F7B
:1022900001D301230FE0FB69082B05D1FB685B68C4
:1022A00043F40022FB685A603B691A047B691A43B5
:1022B000FB681A62002318462437BD4680BC70476D
:1022C00080B582B000AF786078680F4B98477B6824
:1022D00000225A607B6800225A627B6800229A6260
:1022E00078680A4B98477868094B98477868094B93
:1022F00098477868084B98477868084B984700BF1C
:102300000837BD4680BD00BFB5240800BD230800C6
:10231000ED23080005240800392408001F240800C4
:1023200080B584B000AFF860B9607A60F8681A4B85
:1023300098471A4B00221A60BB68002B09D0BB6873
:102340001B687A681946F868154B98470346002BB6
:1023500001D001231BE0BB685A68BB689B681A4325
:10236000BB681B691A43BB68DB681A430B4B1B68CD
:1023700013430A4A1360094B1B68084A1360FB6841
:102380005A68064B1B681A43FB685A6000231846BC
:102390001037BD4680BD00BFC1220800C8360020EE
:1023A0003922080080B483B000AF78607B68402297
:1023B0001A6000BF0C37BD4680BC704780B483B044
:1023C00000AF78607B6888221A6000BF0C37BD467A
:1023D00080BC704780B483B000AF78607B68102207
:1023E0001A6000BF0C37BD4680BC704780B483B014
:1023F00000AF78607B6824221A6000BF0C37BD46AE
:1024000080BC704780B483B000AF78607B684FF4C5
:1024100080721A6000BF0C37BD4680BC704780B424
:1024200083B000AF78607B684FF400321A6000BF61
:102430000C37BD4680BC704780B483B000AF786075
:102440007B684FF400221A6000BF0C37BD4680BC89
:10245000704780B483B000AF786039607B685B6997
:1024600003F00203002B01D1012305E03B68C3F315
:1024700008027B68DA61002318460C37BD4680BC31
:10248000704780B483B000AF786039607B685B6967
:1024900003F00103002B01D1012306E07B689B6957
:1024A000C3F308023B681A60002318460C37BD4688
:1024B00080BC704780B483B000AF78607B68044A0A
:1024C000C3F8E42000BF0C37BD4680BC704700BF96
:1024D0000041535580B485B000AFF860B9607A60B0
:1024E000F968BA6813469B0013449B000B44703391
:1024F0007A681A6000BF1437BD4680BC704780B44C
:1025000085B000AFF860B9607A60F968BA681346C0
:102510009B0013449B000B4474337A681A6000BF1D
:102520001437BD4680BC704780B485B000AFF860FA
:10253000B9607A60F968BA6813469B0013449B003F
:102540000B4478337A681A6000BF1437BD4680BCEC
:10255000704780B485B000AFF860B9607A60F96800
:10256000BA6813469B0013449B000B4480337A687F
:102570001A6000BF1437BD4680BC704780B584B078
:1025800000AF786039607868264B9847F8607868C3
:10259000254B98470246FB681340FB60FB68002B05
:1025A0003CD00023BB6034E0204ABB681B011344CD
:1025B0001B683A689A4226D11C4ABB681B01134427
:1025C00004331A68FB681340002B1CD0174ABB6801
:1025D0001B0113440C331B681449BA6812010A44E6
:1025E00010681249BA6812010A440432126811468E
:1025F00098470E4ABB681B01134404331B68DB4336
:10260000FA681340FB60BB680133BB60BB68062BF4
:1026100003D8FB68002BC7D100E000BF00BF103714
:10262000BD4680BD4B50080061500800CC360020EC
:1026300080B500AF0A210248024B984700BF80BD19
:10264000000C0E407D25080080B500AF0B2102482C
:10265000024B984700BF80BD000E0E407D2508004C
:1026600080B500AF0C210248024B984700BF80BDE7
:1026700000100E407D25080080B483B000AF0346F3
:10268000FB71FB7903F01F03012202FA03F1054AF3
:1026900097F907305B0942F8231000BF0C37BD469D
:1026A00080BC704700E100E080B483B000AF034617
:1026B0003960FB7197F90730002B0BDA3B68DAB20F
:1026C0000C49FB7903F00F03043B1201D2B20B4417
:1026D0001A7609E03B68DAB2074997F90730120128
:1026E000D2B20B4483F8002300BF0C37BD4680BC38
:1026F000704700BF00ED00E000E100E080B483B06F
:1027000000AFEFF310833B603B68002B0CBF01234D
:102710000023DBB27B6072B600BFBFF35F8F00BFE8
:10272000044B00221A707B6818460C37BD4680BCEB
:10273000704700BFEC03002080B483B000AF786026
:102740007B68002B14BF01230023DBB218460C3733
:10275000BD4680BC7047000080B582B000AF786095
:102760007868084B98470346002B07D0064B012298
:102770001A70BFF35F8F00BF62B600BF00BF08379B
:10278000BD4680BD39270800EC03002080B584B029
:1027900000AF0346FB71084B9847F860FB79074A86
:1027A000D25C0132D1B2054AD154F868044B984743
:1027B00000BF1037BD4680BDFD260800B0370020A1
:1027C0005927080080B584B000AF0346FB71084B61
:1027D0009847F860FB79074AD25C013AD1B2054AC2
:1027E000D154F868044B984700BF1037BD4680BDF0
:1027F000FD260800B03700205927080080B582B0B8
:1028000000AF0346FB71FB7983F00103DBB2002BC1
:1028100006D00D4B1B78002B02D002200B4B9847A3
:10282000FB79002B09D0084B1B7883F00103DBB246
:10283000002B02D00220064B9847034AFB79137005
:1028400000BF0837BD4680BD3C370020C5270800C3
:102850008D27080080B500AF1D205F4B98475F4B68
:102860009847034683F00103DBB2002B0ED05C4B8C
:102870005B6903F00203002B08D172B600BFBFF3FF
:102880005F8F00BF574B00221A70A4E0544B5B6966
:1028900003F00803002B0DD0514B08229A61504BD6
:1028A0005B6903F00103002B01D14F4B98474F4B5D
:1028B00098478FE04A4B5B6903F00403002B05D077
:1028C000474B04229A61484B984783E0484B98470E
:1028D0000346002B79D1474B98470346002B76D10E
:1028E0003F4B5B6903F01003002B1DD03C4B1022C3
:1028F0009A61414B9847414B9847414B9847414B10
:102900009847374B1B69364A43F008031361344B31
:102910001B69334A43F004031361314B1B69304A8E
:1029200043F00203136155E02D4B1B6903F00203D2
:10293000002B20D02A4B5B6903F00203002B1AD036
:10294000274B20229A61264B1B69254A23F002035C
:102950001361234B1B69224A43F020031361204B70
:1029600002229A611D20284B9847284B9847002047
:10297000274B98472EE01A4B5B6903F02003002B8E
:1029800027D00120224B9847154B02229A61144B05
:1029900020229A61124B1B69114A23F02003136114
:1029A0000F4B1B690E4A43F0020313610C4B1B696A
:1029B0000B4A43F008031361094B1B69084A43F0B3
:1029C00004031361134B984704E000BF02E000BF0B
:1029D00000E000BF00BF80BDB54B080011530800E8
:1029E00000400A40EC03002029160800BD0E080034
:1029F000E93C080005410800293E0800D5150800FB
:102A000049360800C9360800014C0800910E08003C
:102A1000FD270800AD0E080080B582B000AF194B4D
:102A200098471D20184B9847184B98477860184BCB
:102A30001B68174A43F48073136005211D20154B52
:102A400098471D20144B9847144B9847104BD3F8C8
:102A5000E0300F4A23F00303C2F8E0304FF4802047
:102A60000F4B98470F4B00221A7003200E4B9847CC
:102A70000E4B984778680E4B984700BF0837BD4605
:102A800080BD00BFCD470800B54B0800FD260800FB
:102A900000400A40A926080079260800CD3D08001C
:102AA0004D4C08003C3700208D270800B52A08004F
:102AB0005927080080B582B000AF264B9847786050
:102AC0000120254B98471D20244B9847244B1B6819
:102AD000234A43F400631360214B1B68204A23F40C
:102AE000007313601E4B1B691D4A43F010031361F2
:102AF0001B4B1B691A4A43F002031361184B1B69F5
:102B0000174A43F020031361154B1B69144A43F025
:102B100008031361124B1B69114A43F0040313614C
:102B20000F4B08229A610E4B04229A610C4B102223
:102B30009A610B4B02229A61094B20229A611D2057
:102B4000084B98477868084B984700BF0837BD4640
:102B500080BD00BFFD260800FD270800B54B08001A
:102B600000400A40014C08005927080080B500AF1A
:102B70001D200B4B98470B4B1B680A4A43F400730C
:102B80001360084B1B68074A23F4006313601D2081
:102B9000054B98470020054B984700BF80BD00BFFC
:102BA000B54B080000400A40014C0800FD27080012
:102BB00080B400AF064B5B6903F00103002B14BF28
:102BC00001230023DBB21846BD4680BC704700BF1E
:102BD00000400A4080B483B000AF0346FB710D4B48
:102BE0001B680C4A23F0800313600A4B1B6823F018
:102BF0007F02FB7903F07F03064913430B60054B0B
:102C00001B68044A43F08003136000BF0C37BD46C5
:102C100080BC704700400A4080B400AF044B1B6882
:102C2000DBB203F07F03DBB21846BD4680BC7047C1
:102C300000400A4080B400AF054B5B68DB089BB2E4
:102C4000C3F30A039BB21846BD4680BC704700BF61
:102C500000400A4080B483B000AF78600B467B80B0
:102C6000054A7B689360044A7B88938100BF0C37D8
:102C7000BD4680BC704700BF4037002090B589B08A
:102C800002AF0346FB710B46BB711346BB800023AA
:102C9000FB7400237B74FB7903F08003002B14BFCB
:102CA000012300233B74FB7903F00F03FB71FB79D5
:102CB000022B01D90023B5E1A84AFB795B0113443B
:102CC00003F586731B6803F00103002B01D000237A
:102CD000A8E1BB7903F00303032B1AD0032B1EDCFE
:102CE000012B02D0022B17D019E0FB79002B07D063
:102CF000FB79032B04D0FB79042B01D0012300E0E6
:102D000000237B747B7C03F001037B7401237B75C0
:102D100007E001237B7504E002237B7501E00023BB
:102D200080E17B7D032B0CD0032B0DDC012B02D02B
:102D3000022B03D008E001233B7507E002233B751B
:102D400004E003233B7501E000236BE17B7C002B57
:102D500017D0BB8803F4C053B3F5006F03D0B3F5AD
:102D6000805F03D005E00223FB7405E00323FB74BE
:102D700002E00123FB7400BFBB8823F4C053BB8077
:102D800006E0BB8803F4C053002B01D0002349E1C7
:102D9000724AFB7908335B0113441B6823F47F7389
:102DA00023F00303BA79120102F03002397C0029C2
:102DB00001D0082100E000211143BA88B2F5806FEC
:102DC00007D2BA88082A38BF082292B25200013AC4
:102DD00001E040F2FF72B2FA82F2C2F11C0211432A
:102DE0003A7D9201D2B211437A7C002A04D0FA7C57
:102DF000120202F4407200E000220A43C2F3090208
:102E00005648F9791A4301F108035B0103441A603B
:102E1000524AFB7908335B0113441B68002B01DB2A
:102E20000023FFE04D4AFB7908335B011344043370
:102E300001221A600023FB820223BB7439E0474A57
:102E4000BB7C5B01134403F586731B6803F001032D
:102E5000002B2BD0414ABB7C08335B0113441B6819
:102E60009B09DBB203F003033B753A7DBB7C5B003F
:102E700002FA03F31AB2B7F9163013431BB2FB82FE
:102E8000364ABB7C5B01134403F5847301221A604C
:102E9000324ABB7C08335B0113441A682F49BB7C60
:102EA00022F0C00208335B010B441A60BB7C013B7B
:102EB000BB74BA7CFB799A42C1D2FB79BB74ACE09B
:102EC000BB7C5A1E13465B001344DB00244A1344A8
:102ED000FB60FB681B7DC3F30003DBB2002B14BF58
:102EE00001230023FB72FA8ABB7C5B0042FA03F3E6
:102EF000DBB203F003033B753B7D002B00F08980C0
:102F0000FA68137D6FF300031375144ABB7C083312
:102F10005B0113441B6823F0C0013B7D9B01DAB2C7
:102F20000E48BB7C0A4308335B0103441A600B4A1A
:102F3000BB7C08335B011344043301221A60074A47
:102F4000BB7C08335B0113441B68002B21DBFB684F
:102F50001B68002B06D1002364E000BF00400A403C
:102F600060370020314ABB7C08335B0113441B6887
:102F700003F00803002B03D0BB7C63F07F03BB741A
:102F8000FB681B68FA68D168BA7C01209847002367
:102F900048E0264ABB7C08335B01134404331A68BB
:102FA0002249BB7C42F0020208335B010B4404332C
:102FB0001A60FB7A002B2DD0FB68DA68FB681B696E
:102FC000D21AFB68DA60FB681B7DC3F34003DBB2F7
:102FD000002B14BF01230023D9B2FB685A68FB6899
:102FE000DB68D418FB689A68FB68DB68D21AFB6858
:102FF0001B68B87C0093134622460D4CA04703463D
:10300000FB72FB7A83F00103DBB2002B02D00023BA
:1030100008E000BFBB7C0133BB74BB7C022B7FF696
:103020004FAF012318461C37BD4690BD00400A40F3
:103030006133080080B584B000AF0346FB71FB79B3
:1030400003F00F03FB73FB7B022B28D8164AFB7B94
:103050005B01134403F5847301221A60124AFB7B5F
:1030600008335B0113441A680F49FB7B22F0C0024E
:1030700008335B010B441A60FB7918460B4B9847E9
:10308000FB7B5A1E0A4913465B001344DB000B44CA
:1030900003F1100213796FF38203137100E000BF94
:1030A0001037BD4680BD00BF00400A40713E080099
:1030B0006037002080B485B000AF0346FB71FB7918
:1030C00003F00F03FB73FB7B5A1E13465B00134494
:1030D000DB00104A1344BB600F4AFB7B5B011344C7
:1030E00003F58E731B6803F02003002B06D1BB6829
:1030F0001B7D03F00403DBB2002B01D0012300E0B1
:10310000002303F00103DBB218461437BD4680BC30
:10311000704700BF6037002000400A4080B485B08F
:1031200000AF0346FB71FB7903F00F03FB73FB7BDE
:10313000022B01D9002371E0FB7B5A1E13465B0072
:103140001344DB00384A1344BB60384AFB7B5B0105
:10315000134403F58E731B6803F02003002B06D184
:10316000BB681B7D03F00403DBB2002B01D00123FD
:1031700054E0BB681B7D03F00103DBB2002B01D0E0
:1031800000234BE097F90730002B25DA274AFB7B19
:103190005B01134403F58E731B689B0C03F0030360
:1031A000002B19D0BA68137D43F0040313751F4A2E
:1031B000FB7B08335B01134404334FF480221A6015
:1031C0001A4B1A69FB7B4FF4807101FA03F317491C
:1031D00013430B61012321E0144AFB7B5B01134481
:1031E00003F584731A681149FB7B22F002025B012C
:1031F0000B4403F584731A600C4AFB7B5B01134498
:1032000003F58C734FF400521A60084AFB7B5B0194
:10321000134403F58A7320221A60012318461437D9
:10322000BD4680BC704700BF6037002000400A40A8
:1032300080B584B000AF0346FB710023FB73FB79BC
:1032400003F00F03FB71FB79022B01D900237EE011
:10325000FB795A1E13465B001344DB003E4A1344BD
:10326000BB60BB681B7D03F00403DBB2002B1AD0EC
:10327000BA68137D6FF382031375384AFB795B01DB
:10328000134403F584734FF480221A60334B1A6998
:10329000FB794FF4807101FA03F3DB432F491340AC
:1032A0000B610123FB732D4AFB795B01134403F58A
:1032B0008E731B6803F02003002B35D0274AFB795F
:1032C0005B01134403F58E731B6803F40053002B5A
:1032D00010D0224AFB795B01134403F58C734FF441
:1032E00000521A601D4AFB795B01134403F58C738D
:1032F00040221A60194AFB795B01134403F58C7371
:1033000020221A60154AFB7908335B011344043309
:103310001A681249FB7942F0020208335B010B4440
:1033200004331A600123FB73FB7B002B0ED0BB68B8
:103330001B7D03F00103DBB2002B07D0BA68137DBD
:103340006FF300031375BB681B6898470123184689
:103350001037BD4680BD00BF6037002000400A40E6
:1033600080B586B000AFBA607B600346FB730B4646
:10337000BB73FB7B03F00F03FB73FB7B022B01D9B9
:10338000002363E0FB7B5A1E13465B001344DB0003
:10339000304A13447B61304AFB7B5B01134403F5E5
:1033A00086731B6803F00103002B11D02A4AFB7BB4
:1033B0005B01134403F58E731B6803F02003002B9D
:1033C00006D17B691B7D03F00403DBB2002B01D027
:1033D00000233BE0214B984738617B691B7D03F05C
:1033E0000103DBB2002B04D038691D4B9847002342
:1033F0002CE07A69137D43F0010313753869184B8B
:1034000098477B69BA685A607B697A689A607B6979
:103410000022DA607B6900221A617B693A6A1A60CD
:10342000BB7B002B02D17B68002B01D1012300E084
:10343000002303F00103D9B27A69137D61F34103DC
:103440001375FB7B1846074B98470123184618371E
:10345000BD4680BD6037002000400A40FD260800C0
:10346000592708001D3F080080B584B000AF03460F
:10347000FB71FB7903F00F03FB73FB7B1A01194B04
:10348000134400229A6097F90730002B21DA14E0E8
:10349000154AFB7B5B01134403F58A734FF40072FA
:1034A0001A6000BF104AFB7B5B01134403F58E7367
:1034B0001B6803F40073002BF4D10B4AFB7B5B0108
:1034C000134403F58E731B689B0C03F00303002B5E
:1034D000DED1FB791846054B984700BF1037BD4633
:1034E00080BD00BF00430A4000400A40713E080012
:1034F00080B400AF0A4BD3F8E03023F00303084A4E
:1035000043F00203C2F8E030054BD3F8E030044A40
:1035100043F00403C2F8E03000BFBD4680BC7047F2
:1035200000400A4080B400AF0A4BD3F8E03023F0EB
:103530000303084A43F00203C2F8E030054BD3F816
:10354000E030044A43F00803C2F8E03000BFBD4653
:1035500080BC704700400A4080B400AF064BD3F8EF
:10356000E03023F00303044A43F00203C2F8E030E2
:1035700000BFBD4680BC704700400A40B0B493B065
:1035800000AF2E4B3C1D1D460FCD0FC40FCD0FC4F9
:103590000FCD0FC495E80300206004342170284B40
:1035A0000122C3F80821264BD3F8003123F47F739E
:1035B00023F00303224A43F06B03C2F80031204B8F
:1035C0000122C3F804211E4BD3F8E03023F003039B
:1035D0001B4A43F00203C2F8E030194BD3F8E03045
:1035E000174A43F01003C2F8E030164B3B643B1D12
:1035F000FB63002387F847300CE0FA6B531CFB6336
:103600003B6C591C396412781A7097F847300133B3
:1036100087F8473097F84730342BEED9084B4FF4F2
:103620008062C3F81821064B4FF40062C3F81421DE
:1036300000BF4C37BD46B0BC704700BF4CC9080046
:1036400000400A400000182080B582B000AF1B4B3C
:103650001B681A4A23F07F031360184B1B68174A34
:1036600043F080031360154BD3F8003123F47F73CC
:1036700023F00303114A43F04303C2F800310F4B18
:103680000122C3F804210E4B984778600B4B4FF48E
:103690008052C3F80421094B4FF40072C3F804218F
:1036A000064B1B69054A43F4807313617868054B28
:1036B000984700BF0837BD4680BD00BF00400A40A4
:1036C000FD2608005927080080B582B000AF104BD6
:1036D000984778600F4B4FF48062C3F808217868F0
:1036E0000D4B98470B4B4FF40072C3F818210B4B4E
:1036F00000221A61094B00225A61084B00229A816C
:10370000074B00221A7000BF0837BD4680BD00BFBE
:10371000FD26080000400A405927080040370020D5
:103720005837002080B584B000AF404B1B78002B89
:1037300003D03F4B98473F4B98473F4BD3F81C3142
:103740001B0DC3F30A03082B07D03C4B98473A4B99
:103750004FF48052C3F8182164E0394BBB6000235A
:10376000FB730AE0BB685A1CBA60FA7B35490A440D
:103770001B781370FB7B0133FB73FB7B072BF1D9A9
:10378000304B5A882F4B5A802E4B9A882D4B9A805B
:103790002C4BDA882B4BDA802B4B9847034683F06F
:1037A0000103DBB2002B07D0244B9847224B4FF488
:1037B0008052C3F8182135E01F4B4FF48052C3F8F4
:1037C0001821204B1B785BB2002B0BDA1F4B002219
:1037D0001A801F4B00221A80144B02221A701D4BB4
:1037E00098471FE0174BDB88002B02D11A4B9847F4
:1037F00018E0164B00221A80154B00221A800B4B42
:1038000001221A700C4B4FF48042C3F81821134B5D
:1038100098477860084B4FF48042C3F804217868D9
:103820000F4B98471037BD4680BD00BF583700206A
:10383000CD3C0800C936080000400A40013C0800A1
:1038400000001820403700208D2008005A37002043
:103850005C37002065380800253C0800FD2608007C
:103860005927080080B584B000AF4C4B98473860AA
:103870004B4B4FF48062C3F808213868494B984796
:10388000494B1B78032B04D1484B9847484B98472A
:1038900081E0484B9A89484B1B88D31AFB81FB89EE
:1038A000002B27D1454B1A88434B1B8813449AB2EF
:1038B000424B1A803F4BDA88404B1B889A4203D018
:1038C0003F4B1B78002B02D03E4B984763E0394BAF
:1038D0005B69002B0ED0374B5B699847034683F03A
:1038E0000103DBB2002B05D1334B00221A80314B90
:1038F0009B89FB81FB893F2B05D94023FB81304B02
:1039000000221A7002E02E4B01221A702E4BBB606F
:10391000284B9B68284A128813447B601F4B9847AA
:1039200038601F4BD3F81C3103F40073002B06D012
:1039300038681C4B98471C4B04221A702BE000235C
:103940007B730AE07A68531C7B60BB68591CB960C2
:1039500012781A707B7B01337B737B7B9BB2FA8975
:103960009A42EFD8144B1A88FB8913449AB2124B2F
:103970001A800B4B4FF48062C3F81821084B4FF4A8
:103980000062C3F81421064B4FF48062C3F804218F
:103990003868044B98471037BD4680BDFD260800A7
:1039A00000400A405927080058370020CD3C080045
:1039B000C9360800403700205C3700205A37002005
:1039C00090370020893C08000000182080B584B0A2
:1039D00000AF614B1B78012B0FD05F4B1B78022B84
:1039E00003D05D4B1B78042B02D15C4B984701E060
:1039F0005B4B98475B4B9847ABE05B4BD3F81C3174
:103A00001B0D9BB2C3F30A03BB81584B9B891A461B
:103A1000574B1B881946BB890B449A4205DA534B16
:103A20009A89534B1B88D31ABB81524BBB604F4BB7
:103A30009B684F4A128813447B600023FB730AE0A3
:103A4000BA68531CBB607B68591C796012781A7085
:103A5000FB7B0133FB73FB7B9BB2BA899A42EFD8A5
:103A6000434B1A88BB8913449AB2414B1A80BB89D5
:103A7000402B0AD13D4BDB881A463F4B1B88194629
:103A80003B4B1B880B449A4220DC394B1A88374B3E
:103A90009A81364B5B69002B10D0344B5B69984799
:103AA000034683F00103DBB2002B07D02C4B984771
:103AB0002D4B4FF40072C3F818214AE02A4B4FF403
:103AC0000072C3F818212D4B984742E0274B9A8982
:103AD000274B1B889A4227D1244B5B69002B07D1C7
:103AE0001F4B9847204B4FF40072C3F8182130E069
:103AF0001E4B5B699847034683F00103DBB2002B42
:103B000007D0174B9847184B4FF40072C3F8182191
:103B10001FE0194B1A88164B1B8813449AB2164B98
:103B20001A80134B00221A800F4B4FF40072C3F817
:103B300018210D4B4FF48042C3F81821104B9847C1
:103B40003860094B4FF48042C3F8042138680D4BAC
:103B500098471037BD4680BD58370020CD3C08003F
:103B6000013C0800C936080000400A4040370020E8
:103B70005C370020000018205A370020253C080040
:103B8000FD2608005927080080B500AF0C4BD3F87C
:103B90001C3103F40073002B0FD10A4B1B78012B4F
:103BA00002D1094B984709E0064B1B78042B05D13D
:103BB000034B2022C3F8142100E000BF80BD00BFEA
:103BC00000400A4058370020253C080080B400AF70
:103BD000094BD3F81C3103F48063002B08D1074B49
:103BE0001B78032B05D1044B2022C3F8142100E0DD
:103BF00000BFBD4680BC704700400A4058370020D7
:103C000080B400AF054B05221A70054B2022C3F883
:103C1000142100BFBD4680BC704700BF583700204C
:103C200000400A4080B582B000AF134B03221A70E7
:103C3000124B98477860124B4FF48062C3F81821FA
:103C40000F4B4FF40062C3F814210D4B4FF4806208
:103C5000C3F804210A4B4FF40042C3F81821084B63
:103C60004FF40042C3F804217868064B984700BF20
:103C70000837BD4680BD00BF58370020FD2608002C
:103C800000400A405927080080B582B000AF0B4BB6
:103C900004221A700A4B984778600A4B4FF480420E
:103CA000C3F81821074B4FF48042C3F80421786809
:103CB000054B984700BF0837BD4680BD58370020E8
:103CC000FD26080000400A405927080080B500AFD3
:103CD000044B1B69002B02D0024B1B69984700BFA5
:103CE00080BD00BF4037002080B582B000AF314BAF
:103CF000D3F81C317B602F4B5B6903F48073002B7E
:103D000001D1002352E02B4B4FF48042C3F808212D
:103D1000284B4FF40042C3F808217B6803F480531A
:103D2000002B03D0244B984701233FE07B6803F42A
:103D30008063002B0AD01F4BD3F80C3103F480634F
:103D4000002B03D01D4B984701232FE07B6803F421
:103D50000073002B03D01A4B9847012326E07B68A1
:103D600003F40053002B04D0124B4FF40052C3F85D
:103D700018217B6803F40043002B08D00D4B4FF44F
:103D80000042C3F818210F4B984701230EE07B68CF
:103D900003F48043002B08D0064B4FF48042C3F855
:103DA0001821094B9847012300E0002318460837E3
:103DB000BD4680BD00400A40253708006538080030
:103DC000CD390800CD3B0800893B080080B483B0A2
:103DD00000AF0023FB711CE0FA79124913465B0027
:103DE0001344DB000B4403F1100213796FF300035B
:103DF0001371FA790B4913465B001344DB000B4443
:103E000003F1100213796FF382031371FB7901330D
:103E1000FB71FB79012BDFD900BF00BF0C37BD461A
:103E200080BC70476037002080B582B000AF0023AF
:103E3000FB7110E0FA7913465B001344DB000A4A79
:103E40009818FB790133DBB21A460121074B9847DA
:103E5000FB790133FB71FB79012BEBD900BF00BF6C
:103E60000837BD4680BD00BF60370020AD3E08006A
:103E700080B582B000AF0346FB71FB7903F00F03FE
:103E8000FB71FB795A1E13465B001344DB00054AA5
:103E90001344FA7901211846034B984700BF0837AD
:103EA000BD4680BD60370020AD3E080080B582B0C1
:103EB00000AF78600B46FB701346BB707B681B7DC0
:103EC00003F00103DBB2002B1FD07A68137D6FF380
:103ED000000313757B681B68002B18D00E4ABB7853
:103EE00008335B0113441B6803F00803002B03D065
:103EF000BB7863F07F03BB707B681B68FA78104661
:103F00007A689168BA78984702E000BF00E000BF85
:103F10000837BD4680BD00BF00400A4080B586B06E
:103F200000AF0346FB7100237B61FB795A1E1346E9
:103F30005B001344DB006D4A1344FB60FB681B7D90
:103F400003F00103DBB2002B00F0CC80FB68DA68E1
:103F5000FB689B689A4200F09980FB689A68FB684E
:103F6000DB68D31A3B613B69B3F5803F05D94FF459
:103F700080333B6100237B6102E03B691B047B6172
:103F80005B4AFB7908335B0113441B6803F00803A9
:103F9000002B1DD0564AFB7908335B0113441B6884
:103FA00003F00703082202FA03F31A463B69B3FB46
:103FB000F2F101FB02F29B1A002B27D07B6943F040
:103FC00008037B61FA68137D6FF3410313751DE0ED
:103FD000474AFB7908335B0113441B681B0903F054
:103FE0000303012B0ED1424AFB7908335B011344D2
:103FF0001B6803F00703082202FA03F31A463B6921
:10400000934203D87B6943F014037B61FB685A68D1
:10401000FB68DB68D118FB791A01364B13440A465A
:104020005A607B6943F021037B61334B9847B8604A
:10403000FB791A012F4B1344DB6803F01003002BAC
:104040001DD1FB791A012B4B13447A699A60FB68E6
:10405000DA683B691A44FB68DA60FB683A691A61FE
:10406000234B1A69FB79013B4FF0007101FA03F30E
:104070001F4913430B61B868204B984733E0B86879
:104080001E4B9847FB68DA68FB689A60184AFB7910
:1040900008335B0113441B6803F00803002B1AD09C
:1040A000FB681B7D03F00203DBB2002B13D0104A28
:1040B000FB7908335B01134404334FF400621A6048
:1040C0000B4B1A69FB794FF4807101FA03F308492D
:1040D00013430B6107E0FB791A460021F868084B8F
:1040E000984700E000BF1837BD4680BD603700200C
:1040F00000400A4000430A40FD26080059270800F6
:10410000AD3E080080B584B000AF0123FB73E0E052
:10411000FB7B5A1E13465B001344DB00714A1344B9
:10412000BB60714B1A69FB7B013B4FF0007101FAD8
:1041300003F31340002B3CD06B4B5A69FB7B013BD4
:104140004FF0007101FA03F31340002B31D0FB7BD9
:104150001A01664B1344DB6803F00103002B01D006
:104160000123BBE0604B1A69FB7B013B4FF0007100
:1041700001FA03F3DB435C4913400B61FB7B1A013B
:104180005A4B1344DB681B0C9BB27B607B68002B93
:1041900009D0BB68DA687B68D21ABB68DA60BB6892
:1041A000DA68BB689A60FB7B1846514B984701233D
:1041B00094E04D4B1A69FB7B4FF4807101FA03F3D5
:1041C0001340002B00F08280474AFB7B5B011344C5
:1041D00003F586731B6803F40063002B24D0424A66
:1041E000FB7B5B01134403F58E731B6803F40063D0
:1041F000002B19D13C4AFB7B5B01134403F584730C
:104200004FF400621A60384AFB7B5B01134403F5EC
:104210008A734FF400621A60FB7B1A460021B8686B
:10422000344B9847012359E02F4AFB7B5B01134431
:1042300003F586731B6803F48023002B46D02A4ABB
:10424000FB7B5B01134403F58E731B689B0C03F02F
:104250000303002B3AD1244AFB7B5B01134403F593
:1042600084734FF480221A601F4B1A69FB7B4FF452
:10427000807101FA03F3DB431B4913400B61BA68F9
:10428000137D6FF382031375174AFB7B5B011344A5
:1042900003F584731A681449FB7B22F002025B0168
:1042A0000B4403F584731A600F4AFB7B5B011344D4
:1042B00003F58A7320221A600B4AFB7B5B011344CF
:1042C00003F58C7340221A60012307E0FB7B013366
:1042D000FB73FB7B022B7FF61BAF002318461037C6
:1042E000BD4680BD6037002000400A4000430A40C0
:1042F0001D3F0800AD3E080080B586B000AFF860F5
:10430000B9607A6000237B61FB68012B1ED0FB68DB
:10431000022B1BD0FB68032B18D04FF0FF3319E0A2
:104320000E4B1A680E4B1868BB68591CB9601B7895
:10433000194690470346002B02DA4FF0FF3309E09D
:104340007B6901337B617B68013B7B607B68002B71
:10435000E6D17B6918461837BD4680BD98370020E6
:104360009437002080B584B000AF78600023FB60F4
:1043700017E0104AFB6852F833307A689A420DD140
:104380000C4AFB68DB0013445B68012B03D178689F
:10439000094B984702E07868084B9847FB6801335F
:1043A000FB60FB68022BE4D900BF00BF1037BD469D
:1043B00080BD00BF84C90800A950080079500800DA
:1043C00080B584B000AF78600023FB6017E0104A2E
:1043D000FB6852F833307A689A420DD10C4AFB6878
:1043E000DB0013445B68012B03D17868094B9847C5
:1043F00002E07868084B9847FB680133FB60FB6874
:10440000022BE4D900BF00BF1037BD4680BD00BFFE
:1044100084C9080079500800A950080080B582B00E
:1044200000AF1E4B7B601E4B3B607A683B689A4234
:104430000CD007E07A68131D7B603B68191D39605A
:1044400012681A603B68174A9342F3D3164B3B60DD
:1044500004E03B681A1D3A6000221A603B68134A68
:104460009342F6D3124B7B607B68124A23F0604381
:1044700023F07F0393607B68B3F1005F09D37B680F
:104480000D4A934205D20B4B9B680A4A43F00053F6
:1044900093600A4B98470A4B9847FEE7E4CD080023
:1044A00000000020300E0020300E002000380020D8
:1044B0000000080000ED00E000C00020F9580800EE
:1044C0002D05080080B582B000AF78607B68072BAF
:1044D0002ED801A252F823F02F450800F944080015
:1044E0000145080009450800114508001945080064
:1044F000214508002945080000200F4B984717E088
:1045000001200D4B984713E000200C4B98470FE01B
:1045100010200A4B98470BE02020084B984707E0F3
:104520003E20074B984703E0064B984700E000BF4A
:1045300000BF0837BD4680BD99490800054A0800FC
:10454000794A0800C94A080080B582B000AF786097
:104550007B68072B2FD801A252F823F07D45080075
:1045600081450800814508009345080093450800EF
:1045700093450800A5450800A545080001231BE058
:104580000F4B98470346002B14BF01230023DBB2D7
:1045900012E00C4B98470346002B14BF0123002365
:1045A000DBB209E0084B98470346002B14BF0123F8
:1045B0000023DBB200E0002318460837BD4680BD6B
:1045C000D1490800614A0800FD4A080080B483B060
:1045D00000AF78607B68072B23D801A252F823F044
:1045E00001460800074608000B4608000F46080071
:1045F00013460800174608001B4608001F4608001F
:104600004FF4FA430EE000230CE000230AE0084BCD
:1046100008E0084B06E0084B04E0074B02E0064BBD
:1046200000E0002318460C37BD4680BC704700BF31
:1046300000093D0000127A00001BB70080B582B06F
:1046400000AF0346FB7100BFFB791846064B984745
:10465000034683F00103DBB2002BF5D100BF00BF9E
:104660000837BD4680BD00BF4945080080B586B00B
:1046700000AFF8607A603B600B46FB727B68002BF2
:1046800007D13B68002B04D1FB684FF470021A601D
:104690001AE0FB7A18460E4B984702467B68B2FB3D
:1046A000F3F37B617B693A6802FB03F37B613B6850
:1046B000013B1A04074B13407A68D2B2134343F408
:1046C0007C52FB681A6000BF00BF1837BD4680BD32
:1046D000CD4508000000FF0780B582B000AF7860CC
:1046E00039603B68002B08D1094B98477B681B68F1
:1046F000084A43F00053936205E07B681B68054A53
:1047000043F48033D36100BF0837BD4680BD00BF8E
:104710006D4B080000040E4080B582B000AF786099
:104720007B68002B03D1054B9847034602E0044BFE
:104730009847034618460837BD4680BD854B08009C
:104740009D4B080080B582B000AF0346FB71FB793A
:10475000033B042B08D8FB791846064B9847FB7996
:104760001846054B984700E000BF00BF0837BD461C
:1047700080BD00BFC54408003D46080080B582B03A
:1047800000AF786000BF7868044B98470346002B61
:10479000F9D0002318460837BD4680BD19470800E8
:1047A00080B500AF0620034B984703461B0118460F
:1047B00080BD00BFCD45080080B500AF024B9847D3
:1047C00003465B08184680BDA147080090B583B03A
:1047D00000AF0620094B9847381D00230022062110
:1047E000074CA0473B1D01211846064B9847012066
:1047F000054B984700BF0C37BD4690BD45470800A4
:104800006D460800D94608007D47080090B583B082
:1048100000AF1648164B98470620164B98474FF0A6
:104820008070154B984700BF144B98470346002BE8
:10483000FAD0381D102301220621114CA0473B1D40
:10484000002118460F4B984700200F4B9847102027
:104850000E4B98470E4B98470E4B98470346184609
:10486000034B984700BF0C37BD4690BD00D8B80534
:10487000D1010020454708002D4B0800154B0800CA
:104880006D460800D94608007D4708001949080010
:1048900099560800B947080080B485B000AF786029
:1048A0001C4B1B6B23F003031A4A43F001031363F1
:1048B0004FF40063FB6007E0FB68002B01D101238C
:1048C00023E0FB68013BFB60124B9B6E03F0080387
:1048D000002BF1D00F4B1B6B23F070020D497B684E
:1048E00013430B634FF40063FB6007E0FB68002B8E
:1048F00001D1012309E0FB68013BFB60054B9B6E86
:1049000003F00803002BF1D0002318461437BD46EE
:1049100080BC704700040E4080B485B000AF786062
:104920001C4B1B6B23F070021A497B6813430B630B
:104930004FF40063FB6007E0FB68002B01D101230B
:1049400023E0FB68013BFB60124B9B6E03F0080306
:10495000002BF1D00F4B1B6B23F003030D4A43F0E8
:10496000020313634FF40063FB6007E0FB68002B56
:1049700001D1012309E0FB68013BFB60054B9B6E05
:1049800003F00803002BF1D0002318461437BD466E
:1049900080BC704700040E4080B483B000AF7860E4
:1049A0007B68012B07D1084B9B68074A43F02543DE
:1049B00043F480139360044B044A1A6000BF0C3721
:1049C000BD4680BC704700BF10120E40080000A515
:1049D00080B400AF094B5B6903F08003002B07D064
:1049E000074B9B6E03F08003002B01D0012300E0F6
:1049F00000231846BD4680BC704700BF10120E4011
:104A000000040E4080B483B000AF7860134B1B6A83
:104A1000124A43F45C1343F00803136200BF0F4BC8
:104A20009B6E03F40033002BF9D00C4B1B6A23F46C
:104A30005C1323F070037A681343084A43F45C1351
:104A4000136200BF054B9B6E03F40033002BF9D0BB
:104A500000BF00BF0C37BD4680BC704700040E404D
:104A600080B400AF034B9B6E03F400331846BD4681
:104A700080BC704700040E4080B485B000AF786001
:104A8000104B1B6AFB60FB6823F00303FB607B6831
:104A90001B029AB2FB68134343F45C1343F0010317
:104AA000FB60084AFB68136200BF064B9B6E03F075
:104AB0000103002BF9D000BF00BF1437BD4680BCF6
:104AC000704700BF00040E4080B483B000AF0A4BB3
:104AD0001B6A7B607B6823F003037B607B6843F485
:104AE0005C1343F002037B60034A7B68136200BFE0
:104AF0000C37BD4680BC704700040E4080B400AF48
:104B0000034B9B6E03F001031846BD4680BC704703
:104B100000040E4080B400AF034B9B6E03F480335F
:104B20001846BD4680BC704700040E4080B485B076
:104B300000AF78600C4B1B6AFB607B68002B04D0D5
:104B4000FB6843F08073FB6003E0FB6823F0807335
:104B5000FB60054AFB6843F45C13136200BF143723
:104B6000BD4680BC704700BF00040E4080B400AF5B
:104B7000034B4FF000529A6200BFBD4680BC7047A5
:104B800000040E4080B400AF034B9B6E03F00203A1
:104B90001846BD4680BC704700040E4080B400AF8C
:104BA000034B9B6E03F040031846BD4680BC704724
:104BB00000040E4080B483B000AF78607B681D2B8A
:104BC00001D9012315E07B681F2B11D80B4B9A6983
:104BD00001217B6801FA03F31A4001217B6801FA85
:104BE00003F39A4204D001227B689A40034B1A6176
:104BF000002318460C37BD4680BC704700040E40A9
:104C000080B483B000AF78607B681D2B01D901238D
:104C100015E07B681F2B11D80B4B9A6901217B682B
:104C200001FA03F31A4001217B6801FA03F39A4267
:104C300004D101227B689A40034B5A610023184635
:104C40000C37BD4680BC704700040E4080B483B072
:104C500000AF78607B68C3F312037B60054B1A6F6B
:104C600004497B6813430B6700BF0C37BD4680BC0B
:104C7000704700BF00040E4080B500AF0B4B984753
:104C80000346DA780A4B1A70094B1B78002B09D1BE
:104C9000084B9847034683F00103DBB2002B01D099
:104CA000002300E00123184680BD00BF5D1308000B
:104CB0009C370020F10E080080B500AF034B1B7835
:104CC000002B01D1024B984700BF80BD9C370020CC
:104CD000290F080080B500AF104B1B785BB2002B8A
:104CE00009DA0E4B1B7803F06003402B03D10C4B09
:104CF000984703460FE0094B1B785BB2002B09DB9A
:104D0000064B1B7803F06003402B03D1054B9847FB
:104D1000034600E00023184680BD00BF4037002056
:104D2000A90F0800410F080080B400AF024B1B78A8
:104D30001846BD4680BC70479C37002090B587B0B0
:104D400002AFF860B9607A607B680093BB68FA686C
:104D500000218120034CA047034618461437BD4666
:104D600090BD00BF6133080090B587B002AFF86016
:104D7000B9607A607B680093BB68FA680021022002
:104D8000034CA047034618461437BD4690BD00BFEC
:104D90006133080080B483B000AFEFF310833B6051
:104DA0003B68002B0CBF01230023DBB27B6072B693
:104DB00000BFBFF35F8F00BF044B00221A707B68F7
:104DC00018460C37BD4680BC704700BFEC0300207E
:104DD00080B483B000AF78607B68002B14BF0123E0
:104DE0000023DBB218460C37BD4680BC704700007C
:104DF00080B582B000AF78607868084B984703466A
:104E0000002B07D0064B01221A70BFF35F8F00BF43
:104E100062B600BF00BF0837BD4680BDD14D080057
:104E2000EC03002080B586B000AFF860B9607A600E
:104E3000BB680E2B02D0BB680F2B02D14FF0FF33A3
:104E400016E00D4B984778617B681B0223F07F4387
:104E500023F0FF03BA68D2B2134343F0B4431946B8
:104E6000F868064B984738617869054B98473B6965
:104E700018461837BD4680BD954D0800CF0000206C
:104E8000F14D080080B485B000AFF860B9607A6079
:104E90007B68002B03D0FB68BA685A6602E0FB68A7
:104EA000BA681A6600BF1437BD4680BC704780B42C
:104EB00087B000AFF860B9607A60FB687A685A64BE
:104EC000BB68B3F1605F3CD0BB68B3F1605F34D8BE
:104ED000BB68B3F1405F34D0BB68B3F1405F2CD8FE
:104EE000BB68B3F1205F2CD0BB68B3F1205F24D83E
:104EF000BB68B3F1805F17D0BB68B3F1805F1CD88B
:104F0000BB68002B1DD0BB68B3F1006F15D1FB68E7
:104F10001B6F7B61FB681A6F7B68D9437B690B4011
:104F20001A40FB681A6708E0FB681B6F7B617A68B0
:104F30007B691A43FB681A6700BFFB687A685A608E
:104F400000E000BF1C37BD4680BC704780B584B010
:104F500000AFF860B9607A60B968F868194B984793
:104F60007B6803F001031A46B968F868164B984746
:104F70007B6803F00A03002B03D0FB68BA681A624F
:104F800002E0FB68BA685A627B6803F00203002BF8
:104F900004D0FB68BA68C3F8802008E07B6803F09F
:104FA0000803002B03D0FB68BA68C3F88420FB68B1
:104FB000BA685A61FB68BA681A6000BF1037BD460C
:104FC00080BD00BF31500800854E080080B584B018
:104FD00000AFF860B9607A603B60B968F868124B5E
:104FE0009847BA69B968F868104B98473B68002B36
:104FF00003D0FB68BA681A6502E0FB68BA685A65B4
:105000007B68002B03D0FB68BA681A6302E0FB6878
:10501000BA685A63FB68BA681A61FB68BA681A60B2
:1050200000BF1037BD4680BD31500800854E0800D6
:1050300080B483B000AF786039607B683A685A64A6
:1050400000BF0C37BD4680BC704780B483B000AF52
:1050500078607B68DB6C18460C37BD4680BC7047B7
:1050600080B483B000AF78607B689B6C18460C37C7
:10507000BD4680BC7047000080B584B000AF78604A
:105080007868084B9847F8607B6803F01F0301229B
:1050900002FA03F31A46FB681A6300BF1037BD46D5
:1050A00080BD00BFE552080080B584B000AF7860D5
:1050B0007868084B9847F8607B6803F01F0301226B
:1050C00002FA03F31A46FB685A6300BF1037BD4665
:1050D00080BD00BFE552080090B587B002AF786090
:1050E00039607868434B9847F8603B6803F0F043B9
:1050F000B3F1605F57D0B3F1605F73D8B3F1405F35
:1051000051D0B3F1405F6DD8B3F1205F3FD0B3F120
:10511000205F67D8B3F1006F03D0B3F1805F1BD07D
:1051200060E07B6803F01F03012202FA03F31A46D2
:105130004FF00061F868304B98477B6803F01F031D
:10514000012202FA03F319463B6803F001031A46F1
:10515000F8682A4B984747E07B6803F01F03012259
:1051600002FA03F31A464FF08051F868224B984731
:105170007B6803F01F03012202FA03F319463B6820
:1051800003F001031A46F8681C4B98472CE07B6833
:1051900003F01F03012202FA03F33A681946F86884
:1051A000174B984720E07B6803F01F03012202FAA7
:1051B00003F319463B6803F06053B3F1605F0CBF23
:1051C00001230023DBB218463B689B0803F0010271
:1051D0003B6803F00103009313460246F868094C4C
:1051E000A04701E0002300E0012318461437BD4624
:1051F00090BD00BFE5520800AF4E0800854E080084
:105200004D4F0800CD4F080090B587B002AFF86051
:10521000B9607A607B6803F0F043B3F1605F39D026
:10522000B3F1605F4FD8B3F1405F33D0B3F1405F6B
:1052300049D8B3F1205F27D0B3F1205F43D8B3F151
:10524000006F03D0B3F1805F0FD03CE0BA684FF03D
:105250000061F8681F4B98477B6803F001031A460A
:10526000B968F8681C4B98472FE0BA684FF0805136
:10527000F868184B98477B6803F001031A46B96831
:10528000F868154B984720E07A68B968F868134BBE
:1052900098471AE07B6803F06053B3F1605F0CBF7E
:1052A00001230023DBB219467B689B0803F001024F
:1052B0007B6803F00103009313460A46B968F86857
:1052C000074CA04701E0002300E0012318461437F3
:1052D000BD4690BDAF4E0800854E08004D4F0800FA
:1052E000CD4F080080B485B000AF78607B685B0963
:1052F00003F5001303F206735B02FB60FB681846BC
:105300001437BD4680BC704780B400AFFEE7000094
:1053100080B400AF084B1B78DBB2002B14BF012315
:105320000023DBB283F00103DBB203F00103DBB245
:105330001846BD4680BC70479D37002080B485B0BC
:1053400000AF7860104BFB60104B1B68002B02D144
:105350000E4B0F4A1A600D4B1B68BB60BA687B6826
:105360001344FA689A4202DA4FF0FF3306E0074B23
:105370001A687B681344054A1360BB6818461437E3
:10538000BD4680BC704700BFFC3F0820A03700200E
:105390000040082080B483B000AF78604FF0FF3346
:1053A00018460C37BD4680BC704780B483B000AF50
:1053B000786039603B684FF400525A600023184609
:1053C0000C37BD4680BC704780B483B000AF7860B6
:1053D000012318460C37BD4680BC704780B485B0A9
:1053E00000AFF860B9607A60002318461437BD46F4
:1053F00080BC704780B582B000AF786079680248A1
:10540000024B9847FEE700BF9CC9080041590800BD
:1054100080B483B000AF7860396000BF0C37BD4600
:1054200080BC704780B400AF4FF0FF331846BD46D4
:1054300080BC704780B485B000AF786039600023CD
:10544000FB607B68AC221A603B681A683B685B684B
:10545000B2FBF3F31B09FB60FB68002B03D0FB6876
:10546000B3F5803F01D301230FE07B68FA681A622D
:105470003B689A687B685A607B6840F20222C3F8F6
:1054800020217B6850221A60002318461437BD463D
:1054900080BC704780B483B000AF78600B46FB706F
:1054A0007B685B6903F00203002B01D1012303E059
:1054B000FA787B68DA61002318460C37BD4680BC59
:1054C000704780B483B000AF786039607B685B69F7
:1054D00003F00103002B01D1012305E07B689B69E8
:1054E000DAB23B681A70002318460C37BD4680BC00
:1054F0007047000080B582B000AF78607868034BD9
:10550000984700BF0837BD4680BD00BFB54B0800B7
:1055100080B500AF0A20054B98470B20034B9847F6
:105520000C20024B984700BF00BF80BDF554080017
:1055300080B500AF4FF0605111200E4B98474FF0EF
:10554000605110200B4B98474FF060514C20094B95
:1055500098474FF040515320064B98475320064B35
:1055600098474FF000624FF4C0510448044B9847ED
:1055700000BF80BDD9500800A9500800000C0E40A3
:105580000952080080B500AF044B4FF400425A6046
:10559000034B9847034B984700BF80BD50120E4005
:1055A000115508003155080080B483B000AF114B8D
:1055B0001B68002B14D1EFF310837B607B68002BFA
:1055C0000BD172B600BFBFF35F8F00BF0A4B002242
:1055D0001A700A4B01221A7002E0084B00221A705E
:1055E000044B1B680133034A136000BF0C37BD46F0
:1055F00080BC7047A4370020EC030020A8370020AF
:1056000080B400AF0C4B1B68013B0B4A13600A4B84
:105610001B68002B0CD1094B1B78DBB2002B07D089
:10562000074B01221A70BFF35F8F00BF62B600BF45
:1056300000BFBD4680BC7047A4370020A8370020BB
:10564000EC03002080B586B000AFF860B9607A60E6
:1056500000237B61FB68002B12D04FF0FF3313E077
:105660000B4B1B680B4A1268B96810469847BB6819
:105670000133BB607B6901337B617B68013B7B60ED
:105680007B68002BECDC7B6918461837BD4680BD73
:10569000AC3700209437002080B400AF584B1B6B10
:1056A00003F00303032B00F28C80022B3FD2002B6C
:1056B00002D0012B10D084E0524B5B6903F08003D1
:1056C000002B04D0504B4FF400421A6079E04E4B4F
:1056D0004FF4FA421A6074E0494B1B6A03F080737E
:1056E000002B03D0484B494A1A606AE0464B484AAF
:1056F0001A60434B1B6A03F07003202B0BD0202B46
:1057000011D8002B11D0102B0DD13F4B1B685B0023
:105710003D4A13600AE03C4B1A6813465B00134491
:10572000394A136002E000BF4BE000BF49E0344B50
:105730001B6A03F08073002B03D0334B334A1A608B
:105740001FE0314B324A1A602D4B1B6A03F0700385
:10575000202B0BD0202B11D8002B11D0102B0DD1CA
:10576000294B1B685B00284A13600AE0264B1A6825
:1057700013465B001344244A136002E000BF00E0BC
:1057800000BF1F4B1B6B03F00303022B15D11C4BF7
:105790009B6A1B0CC3F30A0301331B4A126802FB0A
:1057A00003F3194A1360164B9B6ADBB2164A126860
:1057B000B2FBF3F3144A136002E0134B154A1A606C
:1057C00000BF0F4B1B6B03F07003702B08D10E4B07
:1057D0001B68114AA2FB03235B080B4A13600AE013
:1057E000074B1B6B1B0903F00703074A126822FAD9
:1057F00003F3054A136000BFBD4680BC704700BF7D
:1058000000040E4010120E407C040020001BB70064
:1058100000093D00001C4E0EABAAAAAA80B500AF3D
:105820001120054B98471020034B98474C20024B02
:10583000984700BF80BD00BF6543080080B500AF3A
:105840001120064B98471020044B98474C20034BDF
:1058500098475320024B984700BF80BD654308001E
:105860007950080080B500AF1120034B98475320B2
:10587000024B984700BF80BDC1430800A9500800F3
:1058800080B582B000AF0346FB80FB88174AA2FBBD
:10589000031292094FF47A7101FB02F29B1A9BB238
:1058A000002B02D11120124B9847FB880F4AA2FB14
:1058B000031292094FF47A7101FB02F29B1A9BB218
:1058C000B3F5FA7F02D111200A4B9847FB88C3F346
:1058D00008039BB2002B05D11020064B98474C20A3
:1058E000044B984700BF0837BD4680BDD34D6210BA
:1058F000C14308006543080070B50D4E0D4D761B81
:10590000B61006D0002455F8043B01349847A6424F
:10591000F9D1094E094D07F04FFA761BB61006D0A3
:10592000002455F8043B01349847A642F9D170BDD4
:10593000C4CD0800C4CD0800CCCD0800C4CD0800FB
:105940000FB400B5074A83B004AB106853F8042BBA
:105950008168019301F0C2FF03B05DF804EB04B06D
:10596000704700BF80040020844641EA000313F022
:10597000030349D1403A23D30B6803604B6843606B
:105980008B688360CB68C3600B6903614B694361BB
:105990008B698361CB69C3610B6A03624B6A4362A3
:1059A0008B6A8362CB6AC3620B6B03634B6B43638B
:1059B0008B6B8363CB6BC36340304031403ADBD2A7
:1059C00030320BD30B6803604B6843608B68836095
:1059D000CB68C36010301031103AF3D20C3205D3CB
:1059E00051F8043B40F8043B043AF9D2043208D0A1
:1059F000D2071CBF11F8013B00F8013B01D30B8813
:105A000003806046704700BF082A13D38B07B1D0CC
:105A100010F00303AED0C3F10403D21ADB071CBF9E
:105A200011F8013B00F8013BA4D331F8023B20F808
:105A3000023B9FE7043AD9D3013A11F8013B00F841
:105A4000013BF9D20B7803704B7843708B788370ED
:105A500060467047830730B548D0541E002A3FD0B7
:105A60000346CAB201E0013C3AD303F8012B9D077B
:105A7000F9D1032C2DD9CDB245EA05250F2C45EAE5
:105A8000054536D9A4F1100222F00F0C03F1200EC7
:105A9000E6444FEA121C03F1100242E9045542E9C0
:105AA000025510327245F8D10CF1010214F00C0FBE
:105AB00003EB021204F00F0C13D0ACF1040323F03B
:105AC00003030433134442F8045B9342FBD10CF00C
:105AD00003042CB1CAB21C4403F8012B9C42FBD135
